{"src/contracts/candleGenie.sol":{"CandleGeniePrediction":{"abi":[{"anonymous":false,"inputs":[{"indexed":true,"internalType":"address","name":"sender","type":"address"},{"indexed":true,"internalType":"uint256","name":"epoch","type":"uint256"},{"indexed":false,"internalType":"uint256","name":"amount","type":"uint256"}],"name":"BearBet","type":"event"},{"anonymous":false,"inputs":[{"indexed":true,"internalType":"address","name":"sender","type":"address"},{"indexed":true,"internalType":"uint256","name":"epoch","type":"uint256"},{"indexed":false,"internalType":"uint256","name":"amount","type":"uint256"}],"name":"BullBet","type":"event"},{"anonymous":false,"inputs":[{"indexed":true,"internalType":"address","name":"sender","type":"address"},{"indexed":true,"internalType":"uint256","name":"epoch","type":"uint256"},{"indexed":false,"internalType":"uint256","name":"amount","type":"uint256"}],"name":"Claimed","type":"event"},{"anonymous":false,"inputs":[{"indexed":true,"internalType":"uint256","name":"epoch","type":"uint256"},{"indexed":false,"internalType":"uint256","name":"minBetAmount","type":"uint256"}],"name":"MinBetAmountUpdated","type":"event"},{"anonymous":false,"inputs":[{"indexed":true,"internalType":"address","name":"previousOwner","type":"address"},{"indexed":true,"internalType":"address","name":"newOwner","type":"address"}],"name":"OwnershipTransferred","type":"event"},{"anonymous":false,"inputs":[{"indexed":true,"internalType":"uint256","name":"epoch","type":"uint256"}],"name":"Paused","type":"event"},{"anonymous":false,"inputs":[{"indexed":true,"internalType":"address","name":"sender","type":"address"},{"indexed":true,"internalType":"uint256","name":"epoch","type":"uint256"},{"indexed":false,"internalType":"uint256","name":"amount","type":"uint256"}],"name":"Refunded","type":"event"},{"anonymous":false,"inputs":[{"indexed":false,"internalType":"uint256","name":"roundDuration","type":"uint256"}],"name":"RoundDuratioUpdated","type":"event"},{"anonymous":false,"inputs":[{"indexed":true,"internalType":"uint256","name":"epoch","type":"uint256"},{"indexed":false,"internalType":"int256","name":"price","type":"int256"}],"name":"RoundEnded","type":"event"},{"anonymous":false,"inputs":[{"indexed":true,"internalType":"uint256","name":"epoch","type":"uint256"}],"name":"RoundEndedCancelled","type":"event"},{"anonymous":false,"inputs":[{"indexed":true,"internalType":"uint256","name":"epoch","type":"uint256"},{"indexed":false,"internalType":"int256","name":"price","type":"int256"}],"name":"RoundLocked","type":"event"},{"anonymous":false,"inputs":[{"indexed":true,"internalType":"uint256","name":"epoch","type":"uint256"}],"name":"RoundStarted","type":"event"},{"anonymous":false,"inputs":[{"indexed":true,"internalType":"uint256","name":"epoch","type":"uint256"}],"name":"Unpaused","type":"event"},{"inputs":[{"internalType":"uint256","name":"epoch","type":"uint256"}],"name":"BetBear","outputs":[],"stateMutability":"payable","type":"function"},{"inputs":[{"internalType":"uint256","name":"epoch","type":"uint256"}],"name":"BetBull","outputs":[],"stateMutability":"payable","type":"function"},{"inputs":[{"internalType":"uint256","name":"","type":"uint256"},{"internalType":"address","name":"","type":"address"}],"name":"Bets","outputs":[{"internalType":"enum CandleGeniePrediction.Position","name":"position","type":"uint8"},{"internalType":"uint256","name":"betTimestamp","type":"uint256"},{"internalType":"uint256","name":"claimTimestamp","type":"uint256"},{"internalType":"uint256","name":"amount","type":"uint256"},{"internalType":"bool","name":"claimed","type":"bool"}],"stateMutability":"view","type":"function"},{"inputs":[{"internalType":"uint256[]","name":"epochs","type":"uint256[]"}],"name":"Claim","outputs":[],"stateMutability":"nonpayable","type":"function"},{"inputs":[{"internalType":"uint256[]","name":"epochs","type":"uint256[]"},{"internalType":"address","name":"referrer","type":"address"}],"name":"ClaimReferred","outputs":[],"stateMutability":"nonpayable","type":"function"},{"inputs":[{"internalType":"uint256","name":"value","type":"uint256"}],"name":"FeedOperator","outputs":[],"stateMutability":"nonpayable","type":"function"},{"inputs":[{"internalType":"uint256","name":"value","type":"uint256"}],"name":"FundsExtract","outputs":[],"stateMutability":"nonpayable","type":"function"},{"inputs":[],"name":"FundsInject","outputs":[],"stateMutability":"payable","type":"function"},{"inputs":[],"name":"OwnershipRenounce","outputs":[],"stateMutability":"nonpayable","type":"function"},{"inputs":[{"internalType":"address","name":"newOwner","type":"address"}],"name":"OwnershipTransfer","outputs":[],"stateMutability":"nonpayable","type":"function"},{"inputs":[],"name":"Pause","outputs":[],"stateMutability":"nonpayable","type":"function"},{"inputs":[],"name":"Resume","outputs":[],"stateMutability":"nonpayable","type":"function"},{"inputs":[{"internalType":"uint256","name":"epoch","type":"uint256"}],"name":"RoundCancel","outputs":[],"stateMutability":"nonpayable","type":"function"},{"inputs":[{"internalType":"int256","name":"price","type":"int256"},{"internalType":"uint256","name":"houseBetBullAmount","type":"uint256"},{"internalType":"uint256","name":"houseBetBearAmount","type":"uint256"}],"name":"RoundExecute","outputs":[],"stateMutability":"nonpayable","type":"function"},{"inputs":[{"internalType":"int256","name":"price","type":"int256"}],"name":"RoundLock","outputs":[],"stateMutability":"nonpayable","type":"function"},{"inputs":[],"name":"RoundStart","outputs":[],"stateMutability":"nonpayable","type":"function"},{"inputs":[{"internalType":"uint256","name":"","type":"uint256"}],"name":"Rounds","outputs":[{"internalType":"uint256","name":"epoch","type":"uint256"},{"internalType":"uint256","name":"bullAmount","type":"uint256"},{"internalType":"uint256","name":"bearAmount","type":"uint256"},{"internalType":"uint256","name":"rewardBaseCalAmount","type":"uint256"},{"internalType":"uint256","name":"rewardAmount","type":"uint256"},{"internalType":"int256","name":"lockPrice","type":"int256"},{"internalType":"int256","name":"closePrice","type":"int256"},{"internalType":"uint32","name":"startTimestamp","type":"uint32"},{"internalType":"uint32","name":"lockTimestamp","type":"uint32"},{"internalType":"uint32","name":"closeTimestamp","type":"uint32"},{"internalType":"bool","name":"closed","type":"bool"},{"internalType":"bool","name":"cancelled","type":"bool"}],"stateMutability":"view","type":"function"},{"inputs":[{"internalType":"uint256","name":"_minBetAmount","type":"uint256"}],"name":"SetMinBetAmount","outputs":[],"stateMutability":"nonpayable","type":"function"},{"inputs":[{"internalType":"address","name":"_operator","type":"address"}],"name":"SetOperator","outputs":[],"stateMutability":"nonpayable","type":"function"},{"inputs":[{"internalType":"string","name":"_priceSource","type":"string"}],"name":"SetPriceSource","outputs":[],"stateMutability":"nonpayable","type":"function"},{"inputs":[{"internalType":"address","name":"_referralsContract","type":"address"}],"name":"SetReferralsContract","outputs":[],"stateMutability":"nonpayable","type":"function"},{"inputs":[{"internalType":"uint256","name":"_rate","type":"uint256"}],"name":"SetReferralsRate","outputs":[],"stateMutability":"nonpayable","type":"function"},{"inputs":[{"internalType":"uint256","name":"_rewardRate","type":"uint256"}],"name":"SetRewardRate","outputs":[],"stateMutability":"nonpayable","type":"function"},{"inputs":[{"internalType":"uint256","name":"_roundDuration","type":"uint256"}],"name":"SetRoundDuration","outputs":[],"stateMutability":"nonpayable","type":"function"},{"inputs":[{"internalType":"bool","name":"_value","type":"bool"}],"name":"SetShowPlayers","outputs":[],"stateMutability":"nonpayable","type":"function"},{"inputs":[{"internalType":"address","name":"","type":"address"},{"internalType":"uint256","name":"","type":"uint256"}],"name":"UserBets","outputs":[{"internalType":"uint256","name":"","type":"uint256"}],"stateMutability":"view","type":"function"},{"inputs":[{"internalType":"uint256","name":"epoch","type":"uint256"},{"internalType":"address","name":"user","type":"address"}],"name":"claimable","outputs":[{"internalType":"bool","name":"","type":"bool"}],"stateMutability":"view","type":"function"},{"inputs":[],"name":"currentEpoch","outputs":[{"internalType":"uint256","name":"","type":"uint256"}],"stateMutability":"view","type":"function"},{"inputs":[{"internalType":"uint256","name":"epoch","type":"uint256"}],"name":"getRound","outputs":[{"components":[{"internalType":"uint256","name":"epoch","type":"uint256"},{"internalType":"uint256","name":"bullAmount","type":"uint256"},{"internalType":"uint256","name":"bearAmount","type":"uint256"},{"internalType":"uint256","name":"rewardBaseCalAmount","type":"uint256"},{"internalType":"uint256","name":"rewardAmount","type":"uint256"},{"internalType":"int256","name":"lockPrice","type":"int256"},{"internalType":"int256","name":"closePrice","type":"int256"},{"internalType":"uint32","name":"startTimestamp","type":"uint32"},{"internalType":"uint32","name":"lockTimestamp","type":"uint32"},{"internalType":"uint32","name":"closeTimestamp","type":"uint32"},{"internalType":"bool","name":"closed","type":"bool"},{"internalType":"bool","name":"cancelled","type":"bool"},{"internalType":"address[]","name":"players","type":"address[]"}],"internalType":"struct CandleGeniePrediction.Round","name":"","type":"tuple"}],"stateMutability":"view","type":"function"},{"inputs":[{"internalType":"uint256","name":"epoch","type":"uint256"}],"name":"getRoundPlayers","outputs":[{"internalType":"address[]","name":"","type":"address[]"}],"stateMutability":"view","type":"function"},{"inputs":[],"name":"getStats","outputs":[{"internalType":"uint256","name":"","type":"uint256"},{"internalType":"uint256","name":"","type":"uint256"},{"internalType":"uint256","name":"","type":"uint256"},{"internalType":"uint256","name":"","type":"uint256"},{"internalType":"uint256","name":"","type":"uint256"},{"internalType":"uint256","name":"","type":"uint256"}],"stateMutability":"view","type":"function"},{"inputs":[{"internalType":"address","name":"user","type":"address"},{"internalType":"uint256","name":"cursor","type":"uint256"},{"internalType":"uint256","name":"size","type":"uint256"}],"name":"getUserRounds","outputs":[{"internalType":"uint256[]","name":"","type":"uint256[]"},{"components":[{"internalType":"enum CandleGeniePrediction.Position","name":"position","type":"uint8"},{"internalType":"uint256","name":"betTimestamp","type":"uint256"},{"internalType":"uint256","name":"claimTimestamp","type":"uint256"},{"internalType":"uint256","name":"amount","type":"uint256"},{"internalType":"bool","name":"claimed","type":"bool"}],"internalType":"struct CandleGeniePrediction.Bet[]","name":"","type":"tuple[]"},{"internalType":"uint256","name":"","type":"uint256"}],"stateMutability":"view","type":"function"},{"inputs":[{"internalType":"address","name":"user","type":"address"}],"name":"getUserRoundsLength","outputs":[{"internalType":"uint256","name":"","type":"uint256"}],"stateMutability":"view","type":"function"},{"inputs":[],"name":"lockOnce","outputs":[{"internalType":"bool","name":"","type":"bool"}],"stateMutability":"view","type":"function"},{"inputs":[],"name":"minBetAmount","outputs":[{"internalType":"uint256","name":"","type":"uint256"}],"stateMutability":"view","type":"function"},{"inputs":[],"name":"owner","outputs":[{"internalType":"address","name":"","type":"address"}],"stateMutability":"view","type":"function"},{"inputs":[],"name":"paused","outputs":[{"internalType":"bool","name":"","type":"bool"}],"stateMutability":"view","type":"function"},{"inputs":[],"name":"priceSource","outputs":[{"internalType":"string","name":"","type":"string"}],"stateMutability":"view","type":"function"},{"inputs":[],"name":"referralRate","outputs":[{"internalType":"uint256","name":"","type":"uint256"}],"stateMutability":"view","type":"function"},{"inputs":[{"internalType":"uint256","name":"epoch","type":"uint256"},{"internalType":"address","name":"user","type":"address"}],"name":"refundable","outputs":[{"internalType":"bool","name":"","type":"bool"}],"stateMutability":"view","type":"function"},{"inputs":[],"name":"rewardRate","outputs":[{"internalType":"uint256","name":"","type":"uint256"}],"stateMutability":"view","type":"function"},{"inputs":[],"name":"roundDuration","outputs":[{"internalType":"uint256","name":"","type":"uint256"}],"stateMutability":"view","type":"function"},{"inputs":[],"name":"startOnce","outputs":[{"internalType":"bool","name":"","type":"bool"}],"stateMutability":"view","type":"function"},{"stateMutability":"payable","type":"receive"}],"evm":{"bytecode":{"linkReferences":{},"object":"6080604052605f60075561012c60085566038d7ea4c6800060095534801561002657600080fd5b50600080546001600160a01b031916339081178255604051909182917f8be0079c531659141344cd1fd0a4f28419497f9722a3daafe3b4186f6b6457e0908290a3506000805460ff60a01b1916905560018055613bf7806100886000396000f3fe60806040526004361061025f5760003560e01c80638da5cb5b11610144578063cf48098e116100b6578063e20a66d01161007a578063e20a66d014610859578063eef4eeae14610879578063f3c729be14610899578063f7cb789a146108b9578063fa968eea146108cf578063fd5bab23146108e557600080fd5b8063cf48098e146106df578063d5df9d23146106ff578063dbebfba6146107f9578063dd574ce614610819578063dfc396911461083957600080fd5b8063951fd60011610108578063951fd60014610608578063a053ce1f14610637578063a0c7f71c1461064d578063bb434f281461066d578063bd776d8a14610680578063c59d48471461069357600080fd5b80638da5cb5b146105535780638df3f8261461057b5780638dfc68161461059b5780638f1327c0146105bb5780638f9fa51b146105e857600080fd5b806348894f0d116101dd5780636a42c87b116101a15780636a42c87b146104b257806376671808146104d2578063776e11dd146104e85780637b0a47ee146105155780637bf412541461052b57806383d2f5a01461054b57600080fd5b806348894f0d14610429578063490d6d11146104495780635b75c2761461045e5780635c975abb1461047e5780636985a0221461049d57600080fd5b8063273867d411610224578063273867d41461030d57806331c5d1371461035157806336f56ba014610371578063381a5478146103915780633977b381146103c057600080fd5b8062e855901461026b578063168f53001461028d5780631946fb78146102ad5780631f713cae146102cd57806320531bc9146102e257600080fd5b3661026657005b600080fd5b34801561027757600080fd5b5061028b61028636600461323b565b6108fa565b005b34801561029957600080fd5b5061028b6102a836600461323b565b61094e565b3480156102b957600080fd5b5061028b6102c836600461323b565b610992565b3480156102d957600080fd5b5061028b6109d6565b3480156102ee57600080fd5b506102f7610acb565b6040516103049190613254565b60405180910390f35b34801561031957600080fd5b506103436103283660046132be565b6001600160a01b031660009081526005602052604090205490565b604051908152602001610304565b34801561035d57600080fd5b5061028b61036c36600461323b565b610b59565b34801561037d57600080fd5b5061028b61038c36600461323b565b610ca9565b34801561039d57600080fd5b50600a546103b090610100900460ff1681565b6040519015158152602001610304565b3480156103cc57600080fd5b506104186103db3660046132e2565b600460208181526000938452604080852090915291835291208054600182015460028301546003840154939094015460ff92831694919391921685565b60405161030495949392919061334a565b34801561043557600080fd5b5061028b61044436600461323b565b610d23565b34801561045557600080fd5b5061028b610da0565b34801561046a57600080fd5b5061028b61047936600461323b565b610e71565b34801561048a57600080fd5b50600054600160a01b900460ff166103b0565b3480156104a957600080fd5b5061028b610f25565b3480156104be57600080fd5b50600a546103b09062010000900460ff1681565b3480156104de57600080fd5b5061034360025481565b3480156104f457600080fd5b5061050861050336600461323b565b610fc4565b604051610304919061337c565b34801561052157600080fd5b5061034360075481565b34801561053757600080fd5b506103b06105463660046132e2565b611033565b61028b6112b7565b34801561055f57600080fd5b506000546040516001600160a01b039091168152602001610304565b34801561058757600080fd5b5061028b61059636600461323b565b6112e3565b3480156105a757600080fd5b5061028b6105b63660046133c9565b611337565b3480156105c757600080fd5b506105db6105d636600461323b565b611701565b6040516103049190613439565b3480156105f457600080fd5b5061028b610603366004613565565b611895565b34801561061457600080fd5b506106286106233660046135a7565b61190c565b604051610304939291906135dc565b34801561064357600080fd5b5061034360135481565b34801561065957600080fd5b506103b06106683660046132e2565b611b92565b61028b61067b36600461323b565b611e0e565b61028b61068e36600461323b565b61214d565b34801561069f57600080fd5b50600b54600c54600d54600e54600f54601054604080519687526020870195909552938501929092526060840152608083015260a082015260c001610304565b3480156106eb57600080fd5b506103436106fa366004613692565b61247d565b34801561070b57600080fd5b5061079061071a36600461323b565b6003602081905260009182526040909120805460018201546002830154938301546004840154600585015460068601546007909601549496939593949293919290919063ffffffff80821691600160201b8104821691600160401b8204169060ff600160601b8204811691600160681b9004168c565b604080519c8d5260208d019b909b52998b019890985260608a0196909652608089019490945260a088019290925260c087015263ffffffff90811660e0870152908116610100860152166101208401521515610140830152151561016082015261018001610304565b34801561080557600080fd5b5061028b6108143660046132be565b6124ae565b34801561082557600080fd5b5061028b6108343660046136be565b6124fa565b34801561084557600080fd5b5061028b6108543660046132be565b6125f8565b34801561086557600080fd5b5061028b6108743660046132be565b6126e2565b34801561088557600080fd5b5061028b61089436600461372b565b612743565b3480156108a557600080fd5b5061028b6108b43660046137dc565b6127e3565b3480156108c557600080fd5b5061034360085481565b3480156108db57600080fd5b5061034360095481565b3480156108f157600080fd5b5061028b612835565b6000546001600160a01b031633148061091d57506011546001600160a01b031633145b6109425760405162461bcd60e51b8152600401610939906137fe565b60405180910390fd5b61094b816128a9565b50565b6000546001600160a01b031633148061097157506011546001600160a01b031633145b61098d5760405162461bcd60e51b8152600401610939906137fe565b601355565b6000546001600160a01b03163314806109b557506011546001600160a01b031633145b6109d15760405162461bcd60e51b8152600401610939906137fe565b600755565b6000546001600160a01b03163314806109f957506011546001600160a01b031633145b610a155760405162461bcd60e51b8152600401610939906137fe565b600054600160a01b900460ff1615610a3f5760405162461bcd60e51b815260040161093990613835565b600a54610100900460ff1615610a975760405162461bcd60e51b815260206004820181905260248201527f53746172742066756e6374696f6e2063616e206f6e6c792072756e206f6e63656044820152606401610939565b60028054906000610aa783613875565b9190505550610aba6002546000806128fc565b600a805461ff001916610100179055565b60068054610ad89061388e565b80601f0160208091040260200160405190810160405280929190818152602001828054610b049061388e565b8015610b515780601f10610b2657610100808354040283529160200191610b51565b820191906000526020600020905b815481529060010190602001808311610b3457829003601f168201915b505050505081565b6000546001600160a01b0316331480610b7c57506011546001600160a01b031633145b610b985760405162461bcd60e51b8152600401610939906137fe565b600054600160a01b900460ff1615610bc25760405162461bcd60e51b815260040161093990613835565b600a54610100900460ff16610c0d5760405162461bcd60e51b8152602060048201526011602482015270149bdd5b99081b9bdd081cdd185c9d1959607a1b6044820152606401610939565b600a5462010000900460ff1615610c665760405162461bcd60e51b815260206004820152601f60248201527f4c6f636b2066756e6374696f6e2063616e206f6e6c792072756e206f6e6365006044820152606401610939565b610c7260025482612a12565b60028054906000610c8283613875565b9190505550610c956002546000806128fc565b50600a805462ff0000191662010000179055565b6000546001600160a01b0316331480610ccc57506011546001600160a01b031633145b610ce85760405162461bcd60e51b8152600401610939906137fe565b60088190556040518181527f696fab4a25d5a0f71f21ee59aa7512cd96fe20b7a28f4e2663099566b4639d899060200160405180910390a150565b6000546001600160a01b0316331480610d4657506011546001600160a01b031633145b610d625760405162461bcd60e51b8152600401610939906137fe565b60098190556002546040518281527f82480e97991520549ac4b5d0e1d97edb3bfac2666202923b6903d2a953dc76089060200160405180910390a250565b6000546001600160a01b0316331480610dc357506011546001600160a01b031633145b610ddf5760405162461bcd60e51b8152600401610939906137fe565b600054600160a01b900460ff16610e2f5760405162461bcd60e51b815260206004820152601460248201527314185d5cd8589b194e881b9bdd081c185d5cd95960621b6044820152606401610939565b600a805462ffff0019169055610e43612a63565b6002546040517f9dd715fed52c25e642f97653bb4c4339ad98fe6d6e130348be82ae5d86383a8c90600090a2565b6000546001600160a01b0316331480610e9457506011546001600160a01b031633145b610eb05760405162461bcd60e51b8152600401610939906137fe565b60115460408051638da5cb5b60e01b8152905161094b926001600160a01b031691638da5cb5b9160048083019260209291908290030181865afa158015610efb573d6000803e3d6000fd5b505050506040513d601f19601f82011682018060405250810190610f1f91906138c8565b82612ac2565b6000546001600160a01b0316331480610f4857506011546001600160a01b031633145b610f645760405162461bcd60e51b8152600401610939906137fe565b600054600160a01b900460ff1615610f8e5760405162461bcd60e51b815260040161093990613835565b610f96612af8565b6002546040517f32fb7c9891bc4f963c7de9f1186d2a7755c7d6e9f4604dabe1d8bb3027c2f49e90600090a2565b60008181526003602090815260409182902060080180548351818402810184019094528084526060939283018282801561102757602002820191906000526020600020905b81546001600160a01b03168152600190910190602001808311611009575b50505050509050919050565b60008281526004602090815260408083206001600160a01b0385168452909152808220815160a08101909252805483929190829060ff16600181111561107b5761107b613312565b600181111561108c5761108c613312565b815260018281015460208084019190915260028085015460408086019190915260038087015460608088019190915260049788015460ff908116151560809889015260008e815283875284812085516101a081018752815481529881015489890152958601548886015292850154918701919091529683015495850195909552600582015460a0850152600682015460c0850152600782015463ffffffff80821660e0870152600160201b82048116610100870152600160401b820416610120860152600160601b810487161515610140860152600160681b9004909516151561016084015260088101805486518185028101850190975280875296975093959294909361018086019391929091908301828280156111d457602002820191906000526020600020905b81546001600160a01b031681526001909101906020018083116111b6575b5050505050815250509050600082606001511115806111f4575081608001515b80611208575061012081015163ffffffff16155b80611228575061012081015161121f9060056138e5565b63ffffffff1642105b15611238576000925050506112b1565b61014081015161016082015160a083015191159160009081128015611261575060008460c00151135b801561127457508360c001518460a00151145b905060008460a001516000148061128d575060c0850151155b905083806112985750825b806112a05750815b806112a85750805b96505050505050505b92915050565b6000546001600160a01b031633146112e15760405162461bcd60e51b81526004016109399061390d565b565b6000546001600160a01b031633148061130657506011546001600160a01b031633145b6113225760405162461bcd60e51b8152600401610939906137fe565b61094b610f1f6000546001600160a01b031690565b6000546001600160a01b031633148061135a57506011546001600160a01b031633145b6113765760405162461bcd60e51b8152600401610939906137fe565b600054600160a01b900460ff16156113a05760405162461bcd60e51b815260040161093990613835565b600a54610100900460ff1680156113bf5750600a5462010000900460ff165b61143c5760405162461bcd60e51b815260206004820152604260248201527f43616e206f6e6c79206578656375746520726f756e642061667465722073746160448201527f7274526f756e6420616e64206c6f636b526f756e642069732074726967676572606482015261195960f21b608482015260a401610939565b600360006002805461144e9190613942565b81526020810191909152604001600090812060070154600160401b900463ffffffff1690036114db5760405162461bcd60e51b815260206004820152603360248201527f43616e206f6e6c79206578656375746520726f756e64206166746572207072656044820152721d9a5bdd5cc81c9bdd5b99081cdd185c9d1959606a1b6064820152608401610939565b60036000600280546114ed9190613942565b8152602081019190915260400160002060070154600160401b900463ffffffff164210156115835760405162461bcd60e51b815260206004820152603760248201527f43616e206f6e6c79206578656375746520726f756e6420726f756e642061667460448201527f65722070726576696f757320726f756e6420656e6465640000000000000000006064820152608401610939565b600254600090815260036020526040902060070154600160201b900463ffffffff164210156116105760405162461bcd60e51b815260206004820152603360248201527f43616e206f6e6c79206578656375746520726f756e64206166746572206c6f636044820152721ac81d1a5b595cdd185b5c081c995858da1959606a1b6064820152608401610939565b600254600090815260036020526040902060070154600160401b900463ffffffff1642111561169f5760405162461bcd60e51b815260206004820152603560248201527f43616e206f6e6c79206578656375746520726f756e64206265666f726520637560448201527407272656e7420636c6f73652074696d657374616d7605c1b6064820152608401610939565b6116ab60025484612a12565b6116c360016002546116bd9190613942565b84612b37565b6116da60016002546116d59190613942565b612b96565b600280549060006116ea83613875565b91905055506116fc60025483836128fc565b505050565b611782604051806101a0016040528060008152602001600081526020016000815260200160008152602001600081526020016000815260200160008152602001600063ffffffff168152602001600063ffffffff168152602001600063ffffffff168152602001600015158152602001600015158152602001606081525090565b60008281526003602081815260409283902083516101a0810185528154815260018201548184015260028201548186015292810154606084015260048101546080840152600581015460a0840152600681015460c0840152600781015463ffffffff80821660e0860152600160201b82048116610100860152600160401b82041661012085015260ff600160601b820481161515610140860152600160681b9091041615156101608401526008810180548551818502810185019096528086529394919361018086019383018282801561188557602002820191906000526020600020905b81546001600160a01b03168152600190910190602001808311611867575b5050505050815250509050919050565b6002600154036118b75760405162461bcd60e51b815260040161093990613959565b6002600155333b156118db5760405162461bcd60e51b815260040161093990613990565b3332146118fa5760405162461bcd60e51b8152600401610939906139bf565b6119048282612c3f565b505060018055565b6001600160a01b03831660009081526005602052604081205460609182918490611937908790613942565b811115611965576001600160a01b038716600090815260056020526040902054611962908790613942565b90505b60008167ffffffffffffffff81111561198057611980613715565b6040519080825280602002602001820160405280156119a9578160200160208202803683370190505b50905060008267ffffffffffffffff8111156119c7576119c7613715565b604051908082528060200260200182016040528015611a2d57816020015b611a1a6040805160a0810190915280600081526020016000815260200160008152602001600081526020016000151581525090565b8152602001906001900390816119e55790505b50905060005b83811015611b73576001600160a01b038a166000908152600560205260409020611a5d828b6139f6565b81548110611a6d57611a6d613a0e565b9060005260206000200154838281518110611a8a57611a8a613a0e565b60200260200101818152505060046000848381518110611aac57611aac613a0e565b602090810291909101810151825281810192909252604090810160009081206001600160a01b038e16825290925290819020815160a081019092528054829060ff166001811115611aff57611aff613312565b6001811115611b1057611b10613312565b815260018201546020820152600282015460408201526003820154606082015260049091015460ff1615156080909101528251839083908110611b5557611b55613a0e565b60200260200101819052508080611b6b90613875565b915050611a33565b508181611b80858b6139f6565b95509550955050505093509350939050565b60008281526004602090815260408083206001600160a01b0385168452909152808220815160a08101909252805483929190829060ff166001811115611bda57611bda613312565b6001811115611beb57611beb613312565b815260018281015460208084019190915260028085015460408086019190915260038087015460608088019190915260049788015460ff908116151560809889015260008e815283875284812085516101a081018752815481529881015489890152958601548886015292850154918701919091529683015495850195909552600582015460a0850152600682015460c0850152600782015463ffffffff80821660e0870152600160201b82048116610100870152600160401b820416610120860152600160601b810487161515610140860152600160681b900490951615156101608401526008810180548651818502810185019097528087529697509395929490936101808601939192909190830182828015611d3357602002820191906000526020600020905b81546001600160a01b03168152600190910190602001808311611d15575b50505050508152505090508061014001511580611d5257506060820151155b80611d5e575081608001515b80611d6e575060008160a0015113155b80611d7e575060008160c0015113155b80611d9057508060c001518160a00151145b15611da0576000925050506112b1565b60008160a001518260c00151138015611dcb5750600083516001811115611dc957611dc9613312565b145b905060008260a001518360c00151128015611df85750600184516001811115611df657611df6613312565b145b90508180611e035750805b979650505050505050565b600054600160a01b900460ff1615611e385760405162461bcd60e51b815260040161093990613835565b600260015403611e5a5760405162461bcd60e51b815260040161093990613959565b6002600155333b15611e7e5760405162461bcd60e51b815260040161093990613990565b333214611e9d5760405162461bcd60e51b8152600401610939906139bf565b6002548114611ee65760405162461bcd60e51b815260206004820152601560248201527442657420697320746f6f206561726c792f6c61746560581b6044820152606401610939565b611eef816131aa565b611f305760405162461bcd60e51b8152602060048201526012602482015271526f756e64206e6f74206265747461626c6560701b6044820152606401610939565b600954341015611f525760405162461bcd60e51b815260040161093990613a24565b600081815260046020908152604080832033845290915290206003015415611fbc5760405162461bcd60e51b815260206004820152601b60248201527f43616e206f6e6c7920626574206f6e63652070657220726f756e6400000000006044820152606401610939565b60008181526003602052604090206001810154349190611fdd9083906139f6565b60018281019190915560008481526004602090815260408083203384528252808320805460ff1916815560038101879055428186015560058352908320805494850181558352908220909201859055600b80549161203a83613875565b919050555082600c600082825461205191906139f6565b9091555050600a5460ff161561208957600882018054600181018255600091825260209091200180546001600160a01b031916331790555b6012546001600160a01b03161561210a5760125460135460405163a9c2eae560e01b81523360048201526024810186905260448101919091526001600160a01b039091169063a9c2eae590606401600060405180830381600087803b1580156120f157600080fd5b505af1158015612105573d6000803e3d6000fd5b505050505b60025460405184815233907f49237630b34a73a6a12f9d3d4a305ddd6e3a359cc147ffb7a5f18c08f736bc25906020015b60405180910390a35050600180555050565b600054600160a01b900460ff16156121775760405162461bcd60e51b815260040161093990613835565b6002600154036121995760405162461bcd60e51b815260040161093990613959565b6002600155333b156121bd5760405162461bcd60e51b815260040161093990613990565b3332146121dc5760405162461bcd60e51b8152600401610939906139bf565b60025481146122255760405162461bcd60e51b815260206004820152601560248201527442657420697320746f6f206561726c792f6c61746560581b6044820152606401610939565b61222e816131aa565b61226f5760405162461bcd60e51b8152602060048201526012602482015271526f756e64206e6f74206265747461626c6560701b6044820152606401610939565b6009543410156122915760405162461bcd60e51b815260040161093990613a24565b6000818152600460209081526040808320338452909152902060030154156122fb5760405162461bcd60e51b815260206004820152601b60248201527f43616e206f6e6c7920626574206f6e63652070657220726f756e6400000000006044820152606401610939565b6000818152600360205260409020600281015434919061231c9083906139f6565b600282015560008381526004602090815260408083203384528252808320805460ff1916600190811782556003820187905542818301556005845291842080549283018155845291832001859055600d8054919261237983613875565b919050555082600e600082825461239091906139f6565b9091555050600a5460ff16156123c857600882018054600181018255600091825260209091200180546001600160a01b031916331790555b6012546001600160a01b0316156124495760125460135460405163a9c2eae560e01b81523360048201526024810186905260448101919091526001600160a01b039091169063a9c2eae590606401600060405180830381600087803b15801561243057600080fd5b505af1158015612444573d6000803e3d6000fd5b505050505b604051838152849033907f93349b5cb1cdd80ea47c8a040b8c0e31e219e0665c1eb33d9a7b2d3fad11e2249060200161213b565b6005602052816000526040600020818154811061249957600080fd5b90600052602060002001600091509150505481565b6000546001600160a01b031633146124d85760405162461bcd60e51b81526004016109399061390d565b601180546001600160a01b0319166001600160a01b0392909216919091179055565b60026001540361251c5760405162461bcd60e51b815260040161093990613959565b6002600155333b156125405760405162461bcd60e51b815260040161093990613990565b33321461255f5760405162461bcd60e51b8152600401610939906139bf565b6125698383612c3f565b6012546001600160a01b0316156125ef576001600160a01b038116156125ef57601254604051630710ec7560e01b81526001600160a01b03838116600483015233602483015290911690630710ec7590604401600060405180830381600087803b1580156125d657600080fd5b505af11580156125ea573d6000803e3d6000fd5b505050505b50506001805550565b6000546001600160a01b031633146126225760405162461bcd60e51b81526004016109399061390d565b6001600160a01b0381166126875760405162461bcd60e51b815260206004820152602660248201527f4f776e61626c653a206e6577206f776e657220697320746865207a65726f206160448201526564647265737360d01b6064820152608401610939565b600080546040516001600160a01b03808516939216917f8be0079c531659141344cd1fd0a4f28419497f9722a3daafe3b4186f6b6457e091a3600080546001600160a01b0319166001600160a01b0392909216919091179055565b6000546001600160a01b031633148061270557506011546001600160a01b031633145b6127215760405162461bcd60e51b8152600401610939906137fe565b601280546001600160a01b0319166001600160a01b0392909216919091179055565b6000546001600160a01b031633148061276657506011546001600160a01b031633145b6127825760405162461bcd60e51b8152600401610939906137fe565b60008151116127d35760405162461bcd60e51b815260206004820152601d60248201527f507269636520736f757263652063616e206e6f7420626520656d7074790000006044820152606401610939565b60066127df8282613ac0565b5050565b6000546001600160a01b031633148061280657506011546001600160a01b031633145b6128225760405162461bcd60e51b8152600401610939906137fe565b600a805460ff1916911515919091179055565b6000546001600160a01b0316331461285f5760405162461bcd60e51b81526004016109399061390d565b600080546040516001600160a01b03909116907f8be0079c531659141344cd1fd0a4f28419497f9722a3daafe3b4186f6b6457e0908390a3600080546001600160a01b0319169055565b60008181526003602052604080822060078101805461ffff60601b1916600160681b1790559051909183917f2cb29a2ef221b0c3a14c1ad2f16e14ebd400af83556f5592b6e2689539daafa29190a25050565b600083815260036020526040902083815560078101805463ffffffff19164263ffffffff811691909117909155600854612935916139f6565b60078201805463ffffffff92909216600160201b0267ffffffff000000001990921691909117905560085461296b906002613b80565b61297590426139f6565b8160070160086101000a81548163ffffffff021916908363ffffffff1602179055506000831180156129a75750600082115b156129e157828160010160008282546129c091906139f6565b92505081905550818160020160008282546129db91906139f6565b90915550505b60405184907f33a701182892fd888ed152ca2ac23771a32e814469b7cd255965471e1af3a65990600090a250505050565b60008281526003602090815260409182902060058101849055915183815284917fed3d5364266a40b08be3572a189b162355beff1b143e03774e5cd7c94f22403591015b60405180910390a2505050565b600054600160a01b900460ff16612ab35760405162461bcd60e51b815260206004820152601460248201527314185d5cd8589b194e881b9bdd081c185d5cd95960621b6044820152606401610939565b6000805460ff60a01b19169055565b6040516001600160a01b0383169082156108fc029083906000818181858888f193505050501580156116fc573d6000803e3d6000fd5b600054600160a01b900460ff1615612b225760405162461bcd60e51b815260040161093990613835565b6000805460ff60a01b1916600160a01b179055565b600082815260036020526040908190206006810183905560078101805460ff60601b1916600160601b179055905183907fdce8257390bdfa785e27c9715109e4b503b3006d9f4ea2d1f689e77e8a41713e90612a569085815260200190565b60008181526003602052604081206002810154600182015491929182918291612bbf91906139f6565b9050836005015484600601541315612bf95783600101549250606460075482612be89190613b80565b612bf29190613b9f565b9150612c2d565b836005015484600601541215612c2d5783600201549250606460075482612c209190613b80565b612c2a9190613b9f565b91505b50600383019190915560049091015550565b6000805b8281101561312e57612c6d848483818110612c6057612c60613a0e565b9050602002013533611b92565b15612f5d57600060036000868685818110612c8a57612c8a613a0e565b6020908102929092013583525081810192909252604090810160002081516101a081018352815481526001820154818501526002820154818401526003820154606082015260048201546080820152600582015460a0820152600682015460c0820152600782015463ffffffff80821660e0840152600160201b82048116610100840152600160401b82041661012083015260ff600160601b820481161515610140840152600160681b90910416151561016082015260088201805484518187028101870190955280855291949293610180860193909290830182828015612d9b57602002820191906000526020600020905b81546001600160a01b03168152600190910190602001808311612d7d575b505050505081525050905060008160600151826080015160046000898988818110612dc857612dc8613a0e565b9050602002013581526020019081526020016000206000336001600160a01b03166001600160a01b0316815260200190815260200160002060030154612e0e9190613b80565b612e189190613b9f565b9050600160046000888887818110612e3257612e32613a0e565b9050602002013581526020019081526020016000206000336001600160a01b03166001600160a01b0316815260200190815260200160002060040160006101000a81548160ff0219169083151502179055504260046000888887818110612e9b57612e9b613a0e565b602090810292909201358352508181019290925260409081016000908120338252909252902060020155612ecf81856139f6565b600f80549195506000612ee183613875565b91905055508060106000828254612ef891906139f6565b909155508690508584818110612f1057612f10613a0e565b90506020020135336001600160a01b03167f987d620f307ff6b94d58743cb7a7509f24071586a77759b77c2d4e29f75a2f9a83604051612f5291815260200190565b60405180910390a350505b612f7f848483818110612f7257612f72613a0e565b9050602002013533611033565b1561311c57600060046000868685818110612f9c57612f9c613a0e565b9050602002013581526020019081526020016000206000336001600160a01b03166001600160a01b03168152602001908152602001600020600301549050600160046000878786818110612ff257612ff2613a0e565b9050602002013581526020019081526020016000206000336001600160a01b03166001600160a01b0316815260200190815260200160002060040160006101000a81548160ff021916908315150217905550426004600087878681811061305b5761305b613a0e565b60209081029290920135835250818101929092526040908101600090812033825290925290206002015561308f81846139f6565b600f805491945060006130a183613875565b919050555080601060008282546130b891906139f6565b9091555085905084838181106130d0576130d0613a0e565b90506020020135336001600160a01b03167f2dc8e290002f06fc0085bbca9dfb8b415cf4d1178950c72ff9ee8f4d8878ee668360405161311291815260200190565b60405180910390a3505b8061312681613875565b915050612c43565b506000811161319a5760405162461bcd60e51b815260206004820152603260248201527f4e6f7420666f756e6420616e7920656c696769626c6520726577617264206f7260448201527120726566756e647320666f7220636c61696d60701b6064820152608401610939565b80156116fc576116fc3382612ac2565b60008181526003602052604081206007015463ffffffff16158015906131ed5750600082815260036020526040902060070154600160201b900463ffffffff1615155b801561320f575060008281526003602052604090206007015463ffffffff1642115b80156112b1575050600090815260036020526040902060070154600160201b900463ffffffff16421090565b60006020828403121561324d57600080fd5b5035919050565b600060208083528351808285015260005b8181101561328157858101830151858201604001528201613265565b81811115613293576000604083870101525b50601f01601f1916929092016040019392505050565b6001600160a01b038116811461094b57600080fd5b6000602082840312156132d057600080fd5b81356132db816132a9565b9392505050565b600080604083850312156132f557600080fd5b823591506020830135613307816132a9565b809150509250929050565b634e487b7160e01b600052602160045260246000fd5b6002811061334657634e487b7160e01b600052602160045260246000fd5b9052565b60a081016133588288613328565b85602083015284604083015283606083015282151560808301529695505050505050565b6020808252825182820181905260009190848201906040850190845b818110156133bd5783516001600160a01b031683529284019291840191600101613398565b50909695505050505050565b6000806000606084860312156133de57600080fd5b505081359360208301359350604090920135919050565b600081518084526020808501945080840160005b8381101561342e5781516001600160a01b031687529582019590820190600101613409565b509495945050505050565b6020815281516020820152602082015160408201526040820151606082015260608201516080820152608082015160a082015260a082015160c082015260c082015160e0820152600060e083015161010061349b8185018363ffffffff169052565b84015190506101206134b48482018363ffffffff169052565b84015190506101406134cd8482018363ffffffff169052565b84015190506101606134e28482018315159052565b84015190506101806134f78482018315159052565b8401516101a08481015290506135116101c08401826133f5565b949350505050565b60008083601f84011261352b57600080fd5b50813567ffffffffffffffff81111561354357600080fd5b6020830191508360208260051b850101111561355e57600080fd5b9250929050565b6000806020838503121561357857600080fd5b823567ffffffffffffffff81111561358f57600080fd5b61359b85828601613519565b90969095509350505050565b6000806000606084860312156135bc57600080fd5b83356135c7816132a9565b95602085013595506040909401359392505050565b6060808252845182820181905260009190608090818501906020808a01865b83811015613617578151855293820193908201906001016135fb565b5050868303818801528851808452898201938201925060005b8181101561367a578451613645858251613328565b80840151858501526040808201519086015287810151888601528601511515868501529382019360a090930192600101613630565b50505080945050505050826040830152949350505050565b600080604083850312156136a557600080fd5b82356136b0816132a9565b946020939093013593505050565b6000806000604084860312156136d357600080fd5b833567ffffffffffffffff8111156136ea57600080fd5b6136f686828701613519565b909450925050602084013561370a816132a9565b809150509250925092565b634e487b7160e01b600052604160045260246000fd5b60006020828403121561373d57600080fd5b813567ffffffffffffffff8082111561375557600080fd5b818401915084601f83011261376957600080fd5b81358181111561377b5761377b613715565b604051601f8201601f19908116603f011681019083821181831017156137a3576137a3613715565b816040528281528760208487010111156137bc57600080fd5b826020860160208301376000928101602001929092525095945050505050565b6000602082840312156137ee57600080fd5b813580151581146132db57600080fd5b6020808252601f908201527f43616c6c6572206973206e6f74206f776e6572206f72206f70657261746f7200604082015260600190565b60208082526010908201526f14185d5cd8589b194e881c185d5cd95960821b604082015260600190565b634e487b7160e01b600052601160045260246000fd5b6000600182016138875761388761385f565b5060010190565b600181811c908216806138a257607f821691505b6020821081036138c257634e487b7160e01b600052602260045260246000fd5b50919050565b6000602082840312156138da57600080fd5b81516132db816132a9565b600063ffffffff8083168185168083038211156139045761390461385f565b01949350505050565b6020808252818101527f4f776e61626c653a2063616c6c6572206973206e6f7420746865206f776e6572604082015260600190565b6000828210156139545761395461385f565b500390565b6020808252601f908201527f5265656e7472616e637947756172643a207265656e7472616e742063616c6c00604082015260600190565b60208082526015908201527410dbdb9d1c9858dd1cc81b9bdd08185b1b1bddd959605a1b604082015260600190565b6020808252601b908201527f50726f787920636f6e747261637473206e6f7420616c6c6f7765640000000000604082015260600190565b60008219821115613a0957613a0961385f565b500190565b634e487b7160e01b600052603260045260246000fd5b6020808252602e908201527f42657420616d6f756e74206d7573742062652067726561746572207468616e2060408201526d1b5a5b9a5b5d5b48185b5bdd5b9d60921b606082015260800190565b601f8211156116fc57600081815260208120601f850160051c81016020861015613a995750805b601f850160051c820191505b81811015613ab857828155600101613aa5565b505050505050565b815167ffffffffffffffff811115613ada57613ada613715565b613aee81613ae8845461388e565b84613a72565b602080601f831160018114613b235760008415613b0b5750858301515b600019600386901b1c1916600185901b178555613ab8565b600085815260208120601f198616915b82811015613b5257888601518255948401946001909101908401613b33565b5085821015613b705787850151600019600388901b60f8161c191681555b5050505050600190811b01905550565b6000816000190483118215151615613b9a57613b9a61385f565b500290565b600082613bbc57634e487b7160e01b600052601260045260246000fd5b50049056fea2646970667358221220ef76dfb0be05c68041f4c904f69fa02a5026e0e4b2fec128f8c6530f82edcaab64736f6c634300080f0033","opcodes":"PUSH1 0x80 PUSH1 0x40 MSTORE PUSH1 0x5F PUSH1 0x7 SSTORE PUSH2 0x12C PUSH1 0x8 SSTORE PUSH7 0x38D7EA4C68000 PUSH1 0x9 SSTORE CALLVALUE DUP1 ISZERO PUSH2 0x26 JUMPI PUSH1 0x0 DUP1 REVERT JUMPDEST POP PUSH1 0x0 DUP1 SLOAD PUSH1 0x1 PUSH1 0x1 PUSH1 0xA0 SHL SUB NOT AND CALLER SWAP1 DUP2 OR DUP3 SSTORE PUSH1 0x40 MLOAD SWAP1 SWAP2 DUP3 SWAP2 PUSH32 0x8BE0079C531659141344CD1FD0A4F28419497F9722A3DAAFE3B4186F6B6457E0 SWAP1 DUP3 SWAP1 LOG3 POP PUSH1 0x0 DUP1 SLOAD PUSH1 0xFF PUSH1 0xA0 SHL NOT AND SWAP1 SSTORE PUSH1 0x1 DUP1 SSTORE PUSH2 0x3BF7 DUP1 PUSH2 0x88 PUSH1 0x0 CODECOPY PUSH1 0x0 RETURN INVALID PUSH1 0x80 PUSH1 0x40 MSTORE PUSH1 0x4 CALLDATASIZE LT PUSH2 0x25F JUMPI PUSH1 0x0 CALLDATALOAD PUSH1 0xE0 SHR DUP1 PUSH4 0x8DA5CB5B GT PUSH2 0x144 JUMPI DUP1 PUSH4 0xCF48098E GT PUSH2 0xB6 JUMPI DUP1 PUSH4 0xE20A66D0 GT PUSH2 0x7A JUMPI DUP1 PUSH4 0xE20A66D0 EQ PUSH2 0x859 JUMPI DUP1 PUSH4 0xEEF4EEAE EQ PUSH2 0x879 JUMPI DUP1 PUSH4 0xF3C729BE EQ PUSH2 0x899 JUMPI DUP1 PUSH4 0xF7CB789A EQ PUSH2 0x8B9 JUMPI DUP1 PUSH4 0xFA968EEA EQ PUSH2 0x8CF JUMPI DUP1 PUSH4 0xFD5BAB23 EQ PUSH2 0x8E5 JUMPI PUSH1 0x0 DUP1 REVERT JUMPDEST DUP1 PUSH4 0xCF48098E EQ PUSH2 0x6DF JUMPI DUP1 PUSH4 0xD5DF9D23 EQ PUSH2 0x6FF JUMPI DUP1 PUSH4 0xDBEBFBA6 EQ PUSH2 0x7F9 JUMPI DUP1 PUSH4 0xDD574CE6 EQ PUSH2 0x819 JUMPI DUP1 PUSH4 0xDFC39691 EQ PUSH2 0x839 JUMPI PUSH1 0x0 DUP1 REVERT JUMPDEST DUP1 PUSH4 0x951FD600 GT PUSH2 0x108 JUMPI DUP1 PUSH4 0x951FD600 EQ PUSH2 0x608 JUMPI DUP1 PUSH4 0xA053CE1F EQ PUSH2 0x637 JUMPI DUP1 PUSH4 0xA0C7F71C EQ PUSH2 0x64D JUMPI DUP1 PUSH4 0xBB434F28 EQ PUSH2 0x66D JUMPI DUP1 PUSH4 0xBD776D8A EQ PUSH2 0x680 JUMPI DUP1 PUSH4 0xC59D4847 EQ PUSH2 0x693 JUMPI PUSH1 0x0 DUP1 REVERT JUMPDEST DUP1 PUSH4 0x8DA5CB5B EQ PUSH2 0x553 JUMPI DUP1 PUSH4 0x8DF3F826 EQ PUSH2 0x57B JUMPI DUP1 PUSH4 0x8DFC6816 EQ PUSH2 0x59B JUMPI DUP1 PUSH4 0x8F1327C0 EQ PUSH2 0x5BB JUMPI DUP1 PUSH4 0x8F9FA51B EQ PUSH2 0x5E8 JUMPI PUSH1 0x0 DUP1 REVERT JUMPDEST DUP1 PUSH4 0x48894F0D GT PUSH2 0x1DD JUMPI DUP1 PUSH4 0x6A42C87B GT PUSH2 0x1A1 JUMPI DUP1 PUSH4 0x6A42C87B EQ PUSH2 0x4B2 JUMPI DUP1 PUSH4 0x76671808 EQ PUSH2 0x4D2 JUMPI DUP1 PUSH4 0x776E11DD EQ PUSH2 0x4E8 JUMPI DUP1 PUSH4 0x7B0A47EE EQ PUSH2 0x515 JUMPI DUP1 PUSH4 0x7BF41254 EQ PUSH2 0x52B JUMPI DUP1 PUSH4 0x83D2F5A0 EQ PUSH2 0x54B JUMPI PUSH1 0x0 DUP1 REVERT JUMPDEST DUP1 PUSH4 0x48894F0D EQ PUSH2 0x429 JUMPI DUP1 PUSH4 0x490D6D11 EQ PUSH2 0x449 JUMPI DUP1 PUSH4 0x5B75C276 EQ PUSH2 0x45E JUMPI DUP1 PUSH4 0x5C975ABB EQ PUSH2 0x47E JUMPI DUP1 PUSH4 0x6985A022 EQ PUSH2 0x49D JUMPI PUSH1 0x0 DUP1 REVERT JUMPDEST DUP1 PUSH4 0x273867D4 GT PUSH2 0x224 JUMPI DUP1 PUSH4 0x273867D4 EQ PUSH2 0x30D JUMPI DUP1 PUSH4 0x31C5D137 EQ PUSH2 0x351 JUMPI DUP1 PUSH4 0x36F56BA0 EQ PUSH2 0x371 JUMPI DUP1 PUSH4 0x381A5478 EQ PUSH2 0x391 JUMPI DUP1 PUSH4 0x3977B381 EQ PUSH2 0x3C0 JUMPI PUSH1 0x0 DUP1 REVERT JUMPDEST DUP1 PUSH3 0xE85590 EQ PUSH2 0x26B JUMPI DUP1 PUSH4 0x168F5300 EQ PUSH2 0x28D JUMPI DUP1 PUSH4 0x1946FB78 EQ PUSH2 0x2AD JUMPI DUP1 PUSH4 0x1F713CAE EQ PUSH2 0x2CD JUMPI DUP1 PUSH4 0x20531BC9 EQ PUSH2 0x2E2 JUMPI PUSH1 0x0 DUP1 REVERT JUMPDEST CALLDATASIZE PUSH2 0x266 JUMPI STOP JUMPDEST PUSH1 0x0 DUP1 REVERT JUMPDEST CALLVALUE DUP1 ISZERO PUSH2 0x277 JUMPI PUSH1 0x0 DUP1 REVERT JUMPDEST POP PUSH2 0x28B PUSH2 0x286 CALLDATASIZE PUSH1 0x4 PUSH2 0x323B JUMP JUMPDEST PUSH2 0x8FA JUMP JUMPDEST STOP JUMPDEST CALLVALUE DUP1 ISZERO PUSH2 0x299 JUMPI PUSH1 0x0 DUP1 REVERT JUMPDEST POP PUSH2 0x28B PUSH2 0x2A8 CALLDATASIZE PUSH1 0x4 PUSH2 0x323B JUMP JUMPDEST PUSH2 0x94E JUMP JUMPDEST CALLVALUE DUP1 ISZERO PUSH2 0x2B9 JUMPI PUSH1 0x0 DUP1 REVERT JUMPDEST POP PUSH2 0x28B PUSH2 0x2C8 CALLDATASIZE PUSH1 0x4 PUSH2 0x323B JUMP JUMPDEST PUSH2 0x992 JUMP JUMPDEST CALLVALUE DUP1 ISZERO PUSH2 0x2D9 JUMPI PUSH1 0x0 DUP1 REVERT JUMPDEST POP PUSH2 0x28B PUSH2 0x9D6 JUMP JUMPDEST CALLVALUE DUP1 ISZERO PUSH2 0x2EE JUMPI PUSH1 0x0 DUP1 REVERT JUMPDEST POP PUSH2 0x2F7 PUSH2 0xACB JUMP JUMPDEST PUSH1 0x40 MLOAD PUSH2 0x304 SWAP2 SWAP1 PUSH2 0x3254 JUMP JUMPDEST PUSH1 0x40 MLOAD DUP1 SWAP2 SUB SWAP1 RETURN JUMPDEST CALLVALUE DUP1 ISZERO PUSH2 0x319 JUMPI PUSH1 0x0 DUP1 REVERT JUMPDEST POP PUSH2 0x343 PUSH2 0x328 CALLDATASIZE PUSH1 0x4 PUSH2 0x32BE JUMP JUMPDEST PUSH1 0x1 PUSH1 0x1 PUSH1 0xA0 SHL SUB AND PUSH1 0x0 SWAP1 DUP2 MSTORE PUSH1 0x5 PUSH1 0x20 MSTORE PUSH1 0x40 SWAP1 KECCAK256 SLOAD SWAP1 JUMP JUMPDEST PUSH1 0x40 MLOAD SWAP1 DUP2 MSTORE PUSH1 0x20 ADD PUSH2 0x304 JUMP JUMPDEST CALLVALUE DUP1 ISZERO PUSH2 0x35D JUMPI PUSH1 0x0 DUP1 REVERT JUMPDEST POP PUSH2 0x28B PUSH2 0x36C CALLDATASIZE PUSH1 0x4 PUSH2 0x323B JUMP JUMPDEST PUSH2 0xB59 JUMP JUMPDEST CALLVALUE DUP1 ISZERO PUSH2 0x37D JUMPI PUSH1 0x0 DUP1 REVERT JUMPDEST POP PUSH2 0x28B PUSH2 0x38C CALLDATASIZE PUSH1 0x4 PUSH2 0x323B JUMP JUMPDEST PUSH2 0xCA9 JUMP JUMPDEST CALLVALUE DUP1 ISZERO PUSH2 0x39D JUMPI PUSH1 0x0 DUP1 REVERT JUMPDEST POP PUSH1 0xA SLOAD PUSH2 0x3B0 SWAP1 PUSH2 0x100 SWAP1 DIV PUSH1 0xFF AND DUP2 JUMP JUMPDEST PUSH1 0x40 MLOAD SWAP1 ISZERO ISZERO DUP2 MSTORE PUSH1 0x20 ADD PUSH2 0x304 JUMP JUMPDEST CALLVALUE DUP1 ISZERO PUSH2 0x3CC JUMPI PUSH1 0x0 DUP1 REVERT JUMPDEST POP PUSH2 0x418 PUSH2 0x3DB CALLDATASIZE PUSH1 0x4 PUSH2 0x32E2 JUMP JUMPDEST PUSH1 0x4 PUSH1 0x20 DUP2 DUP2 MSTORE PUSH1 0x0 SWAP4 DUP5 MSTORE PUSH1 0x40 DUP1 DUP6 KECCAK256 SWAP1 SWAP2 MSTORE SWAP2 DUP4 MSTORE SWAP2 KECCAK256 DUP1 SLOAD PUSH1 0x1 DUP3 ADD SLOAD PUSH1 0x2 DUP4 ADD SLOAD PUSH1 0x3 DUP5 ADD SLOAD SWAP4 SWAP1 SWAP5 ADD SLOAD PUSH1 0xFF SWAP3 DUP4 AND SWAP5 SWAP2 SWAP4 SWAP2 SWAP3 AND DUP6 JUMP JUMPDEST PUSH1 0x40 MLOAD PUSH2 0x304 SWAP6 SWAP5 SWAP4 SWAP3 SWAP2 SWAP1 PUSH2 0x334A JUMP JUMPDEST CALLVALUE DUP1 ISZERO PUSH2 0x435 JUMPI PUSH1 0x0 DUP1 REVERT JUMPDEST POP PUSH2 0x28B PUSH2 0x444 CALLDATASIZE PUSH1 0x4 PUSH2 0x323B JUMP JUMPDEST PUSH2 0xD23 JUMP JUMPDEST CALLVALUE DUP1 ISZERO PUSH2 0x455 JUMPI PUSH1 0x0 DUP1 REVERT JUMPDEST POP PUSH2 0x28B PUSH2 0xDA0 JUMP JUMPDEST CALLVALUE DUP1 ISZERO PUSH2 0x46A JUMPI PUSH1 0x0 DUP1 REVERT JUMPDEST POP PUSH2 0x28B PUSH2 0x479 CALLDATASIZE PUSH1 0x4 PUSH2 0x323B JUMP JUMPDEST PUSH2 0xE71 JUMP JUMPDEST CALLVALUE DUP1 ISZERO PUSH2 0x48A JUMPI PUSH1 0x0 DUP1 REVERT JUMPDEST POP PUSH1 0x0 SLOAD PUSH1 0x1 PUSH1 0xA0 SHL SWAP1 DIV PUSH1 0xFF AND PUSH2 0x3B0 JUMP JUMPDEST CALLVALUE DUP1 ISZERO PUSH2 0x4A9 JUMPI PUSH1 0x0 DUP1 REVERT JUMPDEST POP PUSH2 0x28B PUSH2 0xF25 JUMP JUMPDEST CALLVALUE DUP1 ISZERO PUSH2 0x4BE JUMPI PUSH1 0x0 DUP1 REVERT JUMPDEST POP PUSH1 0xA SLOAD PUSH2 0x3B0 SWAP1 PUSH3 0x10000 SWAP1 DIV PUSH1 0xFF AND DUP2 JUMP JUMPDEST CALLVALUE DUP1 ISZERO PUSH2 0x4DE JUMPI PUSH1 0x0 DUP1 REVERT JUMPDEST POP PUSH2 0x343 PUSH1 0x2 SLOAD DUP2 JUMP JUMPDEST CALLVALUE DUP1 ISZERO PUSH2 0x4F4 JUMPI PUSH1 0x0 DUP1 REVERT JUMPDEST POP PUSH2 0x508 PUSH2 0x503 CALLDATASIZE PUSH1 0x4 PUSH2 0x323B JUMP JUMPDEST PUSH2 0xFC4 JUMP JUMPDEST PUSH1 0x40 MLOAD PUSH2 0x304 SWAP2 SWAP1 PUSH2 0x337C JUMP JUMPDEST CALLVALUE DUP1 ISZERO PUSH2 0x521 JUMPI PUSH1 0x0 DUP1 REVERT JUMPDEST POP PUSH2 0x343 PUSH1 0x7 SLOAD DUP2 JUMP JUMPDEST CALLVALUE DUP1 ISZERO PUSH2 0x537 JUMPI PUSH1 0x0 DUP1 REVERT JUMPDEST POP PUSH2 0x3B0 PUSH2 0x546 CALLDATASIZE PUSH1 0x4 PUSH2 0x32E2 JUMP JUMPDEST PUSH2 0x1033 JUMP JUMPDEST PUSH2 0x28B PUSH2 0x12B7 JUMP JUMPDEST CALLVALUE DUP1 ISZERO PUSH2 0x55F JUMPI PUSH1 0x0 DUP1 REVERT JUMPDEST POP PUSH1 0x0 SLOAD PUSH1 0x40 MLOAD PUSH1 0x1 PUSH1 0x1 PUSH1 0xA0 SHL SUB SWAP1 SWAP2 AND DUP2 MSTORE PUSH1 0x20 ADD PUSH2 0x304 JUMP JUMPDEST CALLVALUE DUP1 ISZERO PUSH2 0x587 JUMPI PUSH1 0x0 DUP1 REVERT JUMPDEST POP PUSH2 0x28B PUSH2 0x596 CALLDATASIZE PUSH1 0x4 PUSH2 0x323B JUMP JUMPDEST PUSH2 0x12E3 JUMP JUMPDEST CALLVALUE DUP1 ISZERO PUSH2 0x5A7 JUMPI PUSH1 0x0 DUP1 REVERT JUMPDEST POP PUSH2 0x28B PUSH2 0x5B6 CALLDATASIZE PUSH1 0x4 PUSH2 0x33C9 JUMP JUMPDEST PUSH2 0x1337 JUMP JUMPDEST CALLVALUE DUP1 ISZERO PUSH2 0x5C7 JUMPI PUSH1 0x0 DUP1 REVERT JUMPDEST POP PUSH2 0x5DB PUSH2 0x5D6 CALLDATASIZE PUSH1 0x4 PUSH2 0x323B JUMP JUMPDEST PUSH2 0x1701 JUMP JUMPDEST PUSH1 0x40 MLOAD PUSH2 0x304 SWAP2 SWAP1 PUSH2 0x3439 JUMP JUMPDEST CALLVALUE DUP1 ISZERO PUSH2 0x5F4 JUMPI PUSH1 0x0 DUP1 REVERT JUMPDEST POP PUSH2 0x28B PUSH2 0x603 CALLDATASIZE PUSH1 0x4 PUSH2 0x3565 JUMP JUMPDEST PUSH2 0x1895 JUMP JUMPDEST CALLVALUE DUP1 ISZERO PUSH2 0x614 JUMPI PUSH1 0x0 DUP1 REVERT JUMPDEST POP PUSH2 0x628 PUSH2 0x623 CALLDATASIZE PUSH1 0x4 PUSH2 0x35A7 JUMP JUMPDEST PUSH2 0x190C JUMP JUMPDEST PUSH1 0x40 MLOAD PUSH2 0x304 SWAP4 SWAP3 SWAP2 SWAP1 PUSH2 0x35DC JUMP JUMPDEST CALLVALUE DUP1 ISZERO PUSH2 0x643 JUMPI PUSH1 0x0 DUP1 REVERT JUMPDEST POP PUSH2 0x343 PUSH1 0x13 SLOAD DUP2 JUMP JUMPDEST CALLVALUE DUP1 ISZERO PUSH2 0x659 JUMPI PUSH1 0x0 DUP1 REVERT JUMPDEST POP PUSH2 0x3B0 PUSH2 0x668 CALLDATASIZE PUSH1 0x4 PUSH2 0x32E2 JUMP JUMPDEST PUSH2 0x1B92 JUMP JUMPDEST PUSH2 0x28B PUSH2 0x67B CALLDATASIZE PUSH1 0x4 PUSH2 0x323B JUMP JUMPDEST PUSH2 0x1E0E JUMP JUMPDEST PUSH2 0x28B PUSH2 0x68E CALLDATASIZE PUSH1 0x4 PUSH2 0x323B JUMP JUMPDEST PUSH2 0x214D JUMP JUMPDEST CALLVALUE DUP1 ISZERO PUSH2 0x69F JUMPI PUSH1 0x0 DUP1 REVERT JUMPDEST POP PUSH1 0xB SLOAD PUSH1 0xC SLOAD PUSH1 0xD SLOAD PUSH1 0xE SLOAD PUSH1 0xF SLOAD PUSH1 0x10 SLOAD PUSH1 0x40 DUP1 MLOAD SWAP7 DUP8 MSTORE PUSH1 0x20 DUP8 ADD SWAP6 SWAP1 SWAP6 MSTORE SWAP4 DUP6 ADD SWAP3 SWAP1 SWAP3 MSTORE PUSH1 0x60 DUP5 ADD MSTORE PUSH1 0x80 DUP4 ADD MSTORE PUSH1 0xA0 DUP3 ADD MSTORE PUSH1 0xC0 ADD PUSH2 0x304 JUMP JUMPDEST CALLVALUE DUP1 ISZERO PUSH2 0x6EB JUMPI PUSH1 0x0 DUP1 REVERT JUMPDEST POP PUSH2 0x343 PUSH2 0x6FA CALLDATASIZE PUSH1 0x4 PUSH2 0x3692 JUMP JUMPDEST PUSH2 0x247D JUMP JUMPDEST CALLVALUE DUP1 ISZERO PUSH2 0x70B JUMPI PUSH1 0x0 DUP1 REVERT JUMPDEST POP PUSH2 0x790 PUSH2 0x71A CALLDATASIZE PUSH1 0x4 PUSH2 0x323B JUMP JUMPDEST PUSH1 0x3 PUSH1 0x20 DUP2 SWAP1 MSTORE PUSH1 0x0 SWAP2 DUP3 MSTORE PUSH1 0x40 SWAP1 SWAP2 KECCAK256 DUP1 SLOAD PUSH1 0x1 DUP3 ADD SLOAD PUSH1 0x2 DUP4 ADD SLOAD SWAP4 DUP4 ADD SLOAD PUSH1 0x4 DUP5 ADD SLOAD PUSH1 0x5 DUP6 ADD SLOAD PUSH1 0x6 DUP7 ADD SLOAD PUSH1 0x7 SWAP1 SWAP7 ADD SLOAD SWAP5 SWAP7 SWAP4 SWAP6 SWAP4 SWAP5 SWAP3 SWAP4 SWAP2 SWAP3 SWAP1 SWAP2 SWAP1 PUSH4 0xFFFFFFFF DUP1 DUP3 AND SWAP2 PUSH1 0x1 PUSH1 0x20 SHL DUP2 DIV DUP3 AND SWAP2 PUSH1 0x1 PUSH1 0x40 SHL DUP3 DIV AND SWAP1 PUSH1 0xFF PUSH1 0x1 PUSH1 0x60 SHL DUP3 DIV DUP2 AND SWAP2 PUSH1 0x1 PUSH1 0x68 SHL SWAP1 DIV AND DUP13 JUMP JUMPDEST PUSH1 0x40 DUP1 MLOAD SWAP13 DUP14 MSTORE PUSH1 0x20 DUP14 ADD SWAP12 SWAP1 SWAP12 MSTORE SWAP10 DUP12 ADD SWAP9 SWAP1 SWAP9 MSTORE PUSH1 0x60 DUP11 ADD SWAP7 SWAP1 SWAP7 MSTORE PUSH1 0x80 DUP10 ADD SWAP5 SWAP1 SWAP5 MSTORE PUSH1 0xA0 DUP9 ADD SWAP3 SWAP1 SWAP3 MSTORE PUSH1 0xC0 DUP8 ADD MSTORE PUSH4 0xFFFFFFFF SWAP1 DUP2 AND PUSH1 0xE0 DUP8 ADD MSTORE SWAP1 DUP2 AND PUSH2 0x100 DUP7 ADD MSTORE AND PUSH2 0x120 DUP5 ADD MSTORE ISZERO ISZERO PUSH2 0x140 DUP4 ADD MSTORE ISZERO ISZERO PUSH2 0x160 DUP3 ADD MSTORE PUSH2 0x180 ADD PUSH2 0x304 JUMP JUMPDEST CALLVALUE DUP1 ISZERO PUSH2 0x805 JUMPI PUSH1 0x0 DUP1 REVERT JUMPDEST POP PUSH2 0x28B PUSH2 0x814 CALLDATASIZE PUSH1 0x4 PUSH2 0x32BE JUMP JUMPDEST PUSH2 0x24AE JUMP JUMPDEST CALLVALUE DUP1 ISZERO PUSH2 0x825 JUMPI PUSH1 0x0 DUP1 REVERT JUMPDEST POP PUSH2 0x28B PUSH2 0x834 CALLDATASIZE PUSH1 0x4 PUSH2 0x36BE JUMP JUMPDEST PUSH2 0x24FA JUMP JUMPDEST CALLVALUE DUP1 ISZERO PUSH2 0x845 JUMPI PUSH1 0x0 DUP1 REVERT JUMPDEST POP PUSH2 0x28B PUSH2 0x854 CALLDATASIZE PUSH1 0x4 PUSH2 0x32BE JUMP JUMPDEST PUSH2 0x25F8 JUMP JUMPDEST CALLVALUE DUP1 ISZERO PUSH2 0x865 JUMPI PUSH1 0x0 DUP1 REVERT JUMPDEST POP PUSH2 0x28B PUSH2 0x874 CALLDATASIZE PUSH1 0x4 PUSH2 0x32BE JUMP JUMPDEST PUSH2 0x26E2 JUMP JUMPDEST CALLVALUE DUP1 ISZERO PUSH2 0x885 JUMPI PUSH1 0x0 DUP1 REVERT JUMPDEST POP PUSH2 0x28B PUSH2 0x894 CALLDATASIZE PUSH1 0x4 PUSH2 0x372B JUMP JUMPDEST PUSH2 0x2743 JUMP JUMPDEST CALLVALUE DUP1 ISZERO PUSH2 0x8A5 JUMPI PUSH1 0x0 DUP1 REVERT JUMPDEST POP PUSH2 0x28B PUSH2 0x8B4 CALLDATASIZE PUSH1 0x4 PUSH2 0x37DC JUMP JUMPDEST PUSH2 0x27E3 JUMP JUMPDEST CALLVALUE DUP1 ISZERO PUSH2 0x8C5 JUMPI PUSH1 0x0 DUP1 REVERT JUMPDEST POP PUSH2 0x343 PUSH1 0x8 SLOAD DUP2 JUMP JUMPDEST CALLVALUE DUP1 ISZERO PUSH2 0x8DB JUMPI PUSH1 0x0 DUP1 REVERT JUMPDEST POP PUSH2 0x343 PUSH1 0x9 SLOAD DUP2 JUMP JUMPDEST CALLVALUE DUP1 ISZERO PUSH2 0x8F1 JUMPI PUSH1 0x0 DUP1 REVERT JUMPDEST POP PUSH2 0x28B PUSH2 0x2835 JUMP JUMPDEST PUSH1 0x0 SLOAD PUSH1 0x1 PUSH1 0x1 PUSH1 0xA0 SHL SUB AND CALLER EQ DUP1 PUSH2 0x91D JUMPI POP PUSH1 0x11 SLOAD PUSH1 0x1 PUSH1 0x1 PUSH1 0xA0 SHL SUB AND CALLER EQ JUMPDEST PUSH2 0x942 JUMPI PUSH1 0x40 MLOAD PUSH3 0x461BCD PUSH1 0xE5 SHL DUP2 MSTORE PUSH1 0x4 ADD PUSH2 0x939 SWAP1 PUSH2 0x37FE JUMP JUMPDEST PUSH1 0x40 MLOAD DUP1 SWAP2 SUB SWAP1 REVERT JUMPDEST PUSH2 0x94B DUP2 PUSH2 0x28A9 JUMP JUMPDEST POP JUMP JUMPDEST PUSH1 0x0 SLOAD PUSH1 0x1 PUSH1 0x1 PUSH1 0xA0 SHL SUB AND CALLER EQ DUP1 PUSH2 0x971 JUMPI POP PUSH1 0x11 SLOAD PUSH1 0x1 PUSH1 0x1 PUSH1 0xA0 SHL SUB AND CALLER EQ JUMPDEST PUSH2 0x98D JUMPI PUSH1 0x40 MLOAD PUSH3 0x461BCD PUSH1 0xE5 SHL DUP2 MSTORE PUSH1 0x4 ADD PUSH2 0x939 SWAP1 PUSH2 0x37FE JUMP JUMPDEST PUSH1 0x13 SSTORE JUMP JUMPDEST PUSH1 0x0 SLOAD PUSH1 0x1 PUSH1 0x1 PUSH1 0xA0 SHL SUB AND CALLER EQ DUP1 PUSH2 0x9B5 JUMPI POP PUSH1 0x11 SLOAD PUSH1 0x1 PUSH1 0x1 PUSH1 0xA0 SHL SUB AND CALLER EQ JUMPDEST PUSH2 0x9D1 JUMPI PUSH1 0x40 MLOAD PUSH3 0x461BCD PUSH1 0xE5 SHL DUP2 MSTORE PUSH1 0x4 ADD PUSH2 0x939 SWAP1 PUSH2 0x37FE JUMP JUMPDEST PUSH1 0x7 SSTORE JUMP JUMPDEST PUSH1 0x0 SLOAD PUSH1 0x1 PUSH1 0x1 PUSH1 0xA0 SHL SUB AND CALLER EQ DUP1 PUSH2 0x9F9 JUMPI POP PUSH1 0x11 SLOAD PUSH1 0x1 PUSH1 0x1 PUSH1 0xA0 SHL SUB AND CALLER EQ JUMPDEST PUSH2 0xA15 JUMPI PUSH1 0x40 MLOAD PUSH3 0x461BCD PUSH1 0xE5 SHL DUP2 MSTORE PUSH1 0x4 ADD PUSH2 0x939 SWAP1 PUSH2 0x37FE JUMP JUMPDEST PUSH1 0x0 SLOAD PUSH1 0x1 PUSH1 0xA0 SHL SWAP1 DIV PUSH1 0xFF AND ISZERO PUSH2 0xA3F JUMPI PUSH1 0x40 MLOAD PUSH3 0x461BCD PUSH1 0xE5 SHL DUP2 MSTORE PUSH1 0x4 ADD PUSH2 0x939 SWAP1 PUSH2 0x3835 JUMP JUMPDEST PUSH1 0xA SLOAD PUSH2 0x100 SWAP1 DIV PUSH1 0xFF AND ISZERO PUSH2 0xA97 JUMPI PUSH1 0x40 MLOAD PUSH3 0x461BCD PUSH1 0xE5 SHL DUP2 MSTORE PUSH1 0x20 PUSH1 0x4 DUP3 ADD DUP2 SWAP1 MSTORE PUSH1 0x24 DUP3 ADD MSTORE PUSH32 0x53746172742066756E6374696F6E2063616E206F6E6C792072756E206F6E6365 PUSH1 0x44 DUP3 ADD MSTORE PUSH1 0x64 ADD PUSH2 0x939 JUMP JUMPDEST PUSH1 0x2 DUP1 SLOAD SWAP1 PUSH1 0x0 PUSH2 0xAA7 DUP4 PUSH2 0x3875 JUMP JUMPDEST SWAP2 SWAP1 POP SSTORE POP PUSH2 0xABA PUSH1 0x2 SLOAD PUSH1 0x0 DUP1 PUSH2 0x28FC JUMP JUMPDEST PUSH1 0xA DUP1 SLOAD PUSH2 0xFF00 NOT AND PUSH2 0x100 OR SWAP1 SSTORE JUMP JUMPDEST PUSH1 0x6 DUP1 SLOAD PUSH2 0xAD8 SWAP1 PUSH2 0x388E JUMP JUMPDEST DUP1 PUSH1 0x1F ADD PUSH1 0x20 DUP1 SWAP2 DIV MUL PUSH1 0x20 ADD PUSH1 0x40 MLOAD SWAP1 DUP2 ADD PUSH1 0x40 MSTORE DUP1 SWAP3 SWAP2 SWAP1 DUP2 DUP2 MSTORE PUSH1 0x20 ADD DUP3 DUP1 SLOAD PUSH2 0xB04 SWAP1 PUSH2 0x388E JUMP JUMPDEST DUP1 ISZERO PUSH2 0xB51 JUMPI DUP1 PUSH1 0x1F LT PUSH2 0xB26 JUMPI PUSH2 0x100 DUP1 DUP4 SLOAD DIV MUL DUP4 MSTORE SWAP2 PUSH1 0x20 ADD SWAP2 PUSH2 0xB51 JUMP JUMPDEST DUP3 ADD SWAP2 SWAP1 PUSH1 0x0 MSTORE PUSH1 0x20 PUSH1 0x0 KECCAK256 SWAP1 JUMPDEST DUP2 SLOAD DUP2 MSTORE SWAP1 PUSH1 0x1 ADD SWAP1 PUSH1 0x20 ADD DUP1 DUP4 GT PUSH2 0xB34 JUMPI DUP3 SWAP1 SUB PUSH1 0x1F AND DUP3 ADD SWAP2 JUMPDEST POP POP POP POP POP DUP2 JUMP JUMPDEST PUSH1 0x0 SLOAD PUSH1 0x1 PUSH1 0x1 PUSH1 0xA0 SHL SUB AND CALLER EQ DUP1 PUSH2 0xB7C JUMPI POP PUSH1 0x11 SLOAD PUSH1 0x1 PUSH1 0x1 PUSH1 0xA0 SHL SUB AND CALLER EQ JUMPDEST PUSH2 0xB98 JUMPI PUSH1 0x40 MLOAD PUSH3 0x461BCD PUSH1 0xE5 SHL DUP2 MSTORE PUSH1 0x4 ADD PUSH2 0x939 SWAP1 PUSH2 0x37FE JUMP JUMPDEST PUSH1 0x0 SLOAD PUSH1 0x1 PUSH1 0xA0 SHL SWAP1 DIV PUSH1 0xFF AND ISZERO PUSH2 0xBC2 JUMPI PUSH1 0x40 MLOAD PUSH3 0x461BCD PUSH1 0xE5 SHL DUP2 MSTORE PUSH1 0x4 ADD PUSH2 0x939 SWAP1 PUSH2 0x3835 JUMP JUMPDEST PUSH1 0xA SLOAD PUSH2 0x100 SWAP1 DIV PUSH1 0xFF AND PUSH2 0xC0D JUMPI PUSH1 0x40 MLOAD PUSH3 0x461BCD PUSH1 0xE5 SHL DUP2 MSTORE PUSH1 0x20 PUSH1 0x4 DUP3 ADD MSTORE PUSH1 0x11 PUSH1 0x24 DUP3 ADD MSTORE PUSH17 0x149BDD5B99081B9BDD081CDD185C9D1959 PUSH1 0x7A SHL PUSH1 0x44 DUP3 ADD MSTORE PUSH1 0x64 ADD PUSH2 0x939 JUMP JUMPDEST PUSH1 0xA SLOAD PUSH3 0x10000 SWAP1 DIV PUSH1 0xFF AND ISZERO PUSH2 0xC66 JUMPI PUSH1 0x40 MLOAD PUSH3 0x461BCD PUSH1 0xE5 SHL DUP2 MSTORE PUSH1 0x20 PUSH1 0x4 DUP3 ADD MSTORE PUSH1 0x1F PUSH1 0x24 DUP3 ADD MSTORE PUSH32 0x4C6F636B2066756E6374696F6E2063616E206F6E6C792072756E206F6E636500 PUSH1 0x44 DUP3 ADD MSTORE PUSH1 0x64 ADD PUSH2 0x939 JUMP JUMPDEST PUSH2 0xC72 PUSH1 0x2 SLOAD DUP3 PUSH2 0x2A12 JUMP JUMPDEST PUSH1 0x2 DUP1 SLOAD SWAP1 PUSH1 0x0 PUSH2 0xC82 DUP4 PUSH2 0x3875 JUMP JUMPDEST SWAP2 SWAP1 POP SSTORE POP PUSH2 0xC95 PUSH1 0x2 SLOAD PUSH1 0x0 DUP1 PUSH2 0x28FC JUMP JUMPDEST POP PUSH1 0xA DUP1 SLOAD PUSH3 0xFF0000 NOT AND PUSH3 0x10000 OR SWAP1 SSTORE JUMP JUMPDEST PUSH1 0x0 SLOAD PUSH1 0x1 PUSH1 0x1 PUSH1 0xA0 SHL SUB AND CALLER EQ DUP1 PUSH2 0xCCC JUMPI POP PUSH1 0x11 SLOAD PUSH1 0x1 PUSH1 0x1 PUSH1 0xA0 SHL SUB AND CALLER EQ JUMPDEST PUSH2 0xCE8 JUMPI PUSH1 0x40 MLOAD PUSH3 0x461BCD PUSH1 0xE5 SHL DUP2 MSTORE PUSH1 0x4 ADD PUSH2 0x939 SWAP1 PUSH2 0x37FE JUMP JUMPDEST PUSH1 0x8 DUP2 SWAP1 SSTORE PUSH1 0x40 MLOAD DUP2 DUP2 MSTORE PUSH32 0x696FAB4A25D5A0F71F21EE59AA7512CD96FE20B7A28F4E2663099566B4639D89 SWAP1 PUSH1 0x20 ADD PUSH1 0x40 MLOAD DUP1 SWAP2 SUB SWAP1 LOG1 POP JUMP JUMPDEST PUSH1 0x0 SLOAD PUSH1 0x1 PUSH1 0x1 PUSH1 0xA0 SHL SUB AND CALLER EQ DUP1 PUSH2 0xD46 JUMPI POP PUSH1 0x11 SLOAD PUSH1 0x1 PUSH1 0x1 PUSH1 0xA0 SHL SUB AND CALLER EQ JUMPDEST PUSH2 0xD62 JUMPI PUSH1 0x40 MLOAD PUSH3 0x461BCD PUSH1 0xE5 SHL DUP2 MSTORE PUSH1 0x4 ADD PUSH2 0x939 SWAP1 PUSH2 0x37FE JUMP JUMPDEST PUSH1 0x9 DUP2 SWAP1 SSTORE PUSH1 0x2 SLOAD PUSH1 0x40 MLOAD DUP3 DUP2 MSTORE PUSH32 0x82480E97991520549AC4B5D0E1D97EDB3BFAC2666202923B6903D2A953DC7608 SWAP1 PUSH1 0x20 ADD PUSH1 0x40 MLOAD DUP1 SWAP2 SUB SWAP1 LOG2 POP JUMP JUMPDEST PUSH1 0x0 SLOAD PUSH1 0x1 PUSH1 0x1 PUSH1 0xA0 SHL SUB AND CALLER EQ DUP1 PUSH2 0xDC3 JUMPI POP PUSH1 0x11 SLOAD PUSH1 0x1 PUSH1 0x1 PUSH1 0xA0 SHL SUB AND CALLER EQ JUMPDEST PUSH2 0xDDF JUMPI PUSH1 0x40 MLOAD PUSH3 0x461BCD PUSH1 0xE5 SHL DUP2 MSTORE PUSH1 0x4 ADD PUSH2 0x939 SWAP1 PUSH2 0x37FE JUMP JUMPDEST PUSH1 0x0 SLOAD PUSH1 0x1 PUSH1 0xA0 SHL SWAP1 DIV PUSH1 0xFF AND PUSH2 0xE2F JUMPI PUSH1 0x40 MLOAD PUSH3 0x461BCD PUSH1 0xE5 SHL DUP2 MSTORE PUSH1 0x20 PUSH1 0x4 DUP3 ADD MSTORE PUSH1 0x14 PUSH1 0x24 DUP3 ADD MSTORE PUSH20 0x14185D5CD8589B194E881B9BDD081C185D5CD959 PUSH1 0x62 SHL PUSH1 0x44 DUP3 ADD MSTORE PUSH1 0x64 ADD PUSH2 0x939 JUMP JUMPDEST PUSH1 0xA DUP1 SLOAD PUSH3 0xFFFF00 NOT AND SWAP1 SSTORE PUSH2 0xE43 PUSH2 0x2A63 JUMP JUMPDEST PUSH1 0x2 SLOAD PUSH1 0x40 MLOAD PUSH32 0x9DD715FED52C25E642F97653BB4C4339AD98FE6D6E130348BE82AE5D86383A8C SWAP1 PUSH1 0x0 SWAP1 LOG2 JUMP JUMPDEST PUSH1 0x0 SLOAD PUSH1 0x1 PUSH1 0x1 PUSH1 0xA0 SHL SUB AND CALLER EQ DUP1 PUSH2 0xE94 JUMPI POP PUSH1 0x11 SLOAD PUSH1 0x1 PUSH1 0x1 PUSH1 0xA0 SHL SUB AND CALLER EQ JUMPDEST PUSH2 0xEB0 JUMPI PUSH1 0x40 MLOAD PUSH3 0x461BCD PUSH1 0xE5 SHL DUP2 MSTORE PUSH1 0x4 ADD PUSH2 0x939 SWAP1 PUSH2 0x37FE JUMP JUMPDEST PUSH1 0x11 SLOAD PUSH1 0x40 DUP1 MLOAD PUSH4 0x8DA5CB5B PUSH1 0xE0 SHL DUP2 MSTORE SWAP1 MLOAD PUSH2 0x94B SWAP3 PUSH1 0x1 PUSH1 0x1 PUSH1 0xA0 SHL SUB AND SWAP2 PUSH4 0x8DA5CB5B SWAP2 PUSH1 0x4 DUP1 DUP4 ADD SWAP3 PUSH1 0x20 SWAP3 SWAP2 SWAP1 DUP3 SWAP1 SUB ADD DUP2 DUP7 GAS STATICCALL ISZERO DUP1 ISZERO PUSH2 0xEFB JUMPI RETURNDATASIZE PUSH1 0x0 DUP1 RETURNDATACOPY RETURNDATASIZE PUSH1 0x0 REVERT JUMPDEST POP POP POP POP PUSH1 0x40 MLOAD RETURNDATASIZE PUSH1 0x1F NOT PUSH1 0x1F DUP3 ADD AND DUP3 ADD DUP1 PUSH1 0x40 MSTORE POP DUP2 ADD SWAP1 PUSH2 0xF1F SWAP2 SWAP1 PUSH2 0x38C8 JUMP JUMPDEST DUP3 PUSH2 0x2AC2 JUMP JUMPDEST PUSH1 0x0 SLOAD PUSH1 0x1 PUSH1 0x1 PUSH1 0xA0 SHL SUB AND CALLER EQ DUP1 PUSH2 0xF48 JUMPI POP PUSH1 0x11 SLOAD PUSH1 0x1 PUSH1 0x1 PUSH1 0xA0 SHL SUB AND CALLER EQ JUMPDEST PUSH2 0xF64 JUMPI PUSH1 0x40 MLOAD PUSH3 0x461BCD PUSH1 0xE5 SHL DUP2 MSTORE PUSH1 0x4 ADD PUSH2 0x939 SWAP1 PUSH2 0x37FE JUMP JUMPDEST PUSH1 0x0 SLOAD PUSH1 0x1 PUSH1 0xA0 SHL SWAP1 DIV PUSH1 0xFF AND ISZERO PUSH2 0xF8E JUMPI PUSH1 0x40 MLOAD PUSH3 0x461BCD PUSH1 0xE5 SHL DUP2 MSTORE PUSH1 0x4 ADD PUSH2 0x939 SWAP1 PUSH2 0x3835 JUMP JUMPDEST PUSH2 0xF96 PUSH2 0x2AF8 JUMP JUMPDEST PUSH1 0x2 SLOAD PUSH1 0x40 MLOAD PUSH32 0x32FB7C9891BC4F963C7DE9F1186D2A7755C7D6E9F4604DABE1D8BB3027C2F49E SWAP1 PUSH1 0x0 SWAP1 LOG2 JUMP JUMPDEST PUSH1 0x0 DUP2 DUP2 MSTORE PUSH1 0x3 PUSH1 0x20 SWAP1 DUP2 MSTORE PUSH1 0x40 SWAP2 DUP3 SWAP1 KECCAK256 PUSH1 0x8 ADD DUP1 SLOAD DUP4 MLOAD DUP2 DUP5 MUL DUP2 ADD DUP5 ADD SWAP1 SWAP5 MSTORE DUP1 DUP5 MSTORE PUSH1 0x60 SWAP4 SWAP3 DUP4 ADD DUP3 DUP3 DUP1 ISZERO PUSH2 0x1027 JUMPI PUSH1 0x20 MUL DUP3 ADD SWAP2 SWAP1 PUSH1 0x0 MSTORE PUSH1 0x20 PUSH1 0x0 KECCAK256 SWAP1 JUMPDEST DUP2 SLOAD PUSH1 0x1 PUSH1 0x1 PUSH1 0xA0 SHL SUB AND DUP2 MSTORE PUSH1 0x1 SWAP1 SWAP2 ADD SWAP1 PUSH1 0x20 ADD DUP1 DUP4 GT PUSH2 0x1009 JUMPI JUMPDEST POP POP POP POP POP SWAP1 POP SWAP2 SWAP1 POP JUMP JUMPDEST PUSH1 0x0 DUP3 DUP2 MSTORE PUSH1 0x4 PUSH1 0x20 SWAP1 DUP2 MSTORE PUSH1 0x40 DUP1 DUP4 KECCAK256 PUSH1 0x1 PUSH1 0x1 PUSH1 0xA0 SHL SUB DUP6 AND DUP5 MSTORE SWAP1 SWAP2 MSTORE DUP1 DUP3 KECCAK256 DUP2 MLOAD PUSH1 0xA0 DUP2 ADD SWAP1 SWAP3 MSTORE DUP1 SLOAD DUP4 SWAP3 SWAP2 SWAP1 DUP3 SWAP1 PUSH1 0xFF AND PUSH1 0x1 DUP2 GT ISZERO PUSH2 0x107B JUMPI PUSH2 0x107B PUSH2 0x3312 JUMP JUMPDEST PUSH1 0x1 DUP2 GT ISZERO PUSH2 0x108C JUMPI PUSH2 0x108C PUSH2 0x3312 JUMP JUMPDEST DUP2 MSTORE PUSH1 0x1 DUP3 DUP2 ADD SLOAD PUSH1 0x20 DUP1 DUP5 ADD SWAP2 SWAP1 SWAP2 MSTORE PUSH1 0x2 DUP1 DUP6 ADD SLOAD PUSH1 0x40 DUP1 DUP7 ADD SWAP2 SWAP1 SWAP2 MSTORE PUSH1 0x3 DUP1 DUP8 ADD SLOAD PUSH1 0x60 DUP1 DUP9 ADD SWAP2 SWAP1 SWAP2 MSTORE PUSH1 0x4 SWAP8 DUP9 ADD SLOAD PUSH1 0xFF SWAP1 DUP2 AND ISZERO ISZERO PUSH1 0x80 SWAP9 DUP10 ADD MSTORE PUSH1 0x0 DUP15 DUP2 MSTORE DUP4 DUP8 MSTORE DUP5 DUP2 KECCAK256 DUP6 MLOAD PUSH2 0x1A0 DUP2 ADD DUP8 MSTORE DUP2 SLOAD DUP2 MSTORE SWAP9 DUP2 ADD SLOAD DUP10 DUP10 ADD MSTORE SWAP6 DUP7 ADD SLOAD DUP9 DUP7 ADD MSTORE SWAP3 DUP6 ADD SLOAD SWAP2 DUP8 ADD SWAP2 SWAP1 SWAP2 MSTORE SWAP7 DUP4 ADD SLOAD SWAP6 DUP6 ADD SWAP6 SWAP1 SWAP6 MSTORE PUSH1 0x5 DUP3 ADD SLOAD PUSH1 0xA0 DUP6 ADD MSTORE PUSH1 0x6 DUP3 ADD SLOAD PUSH1 0xC0 DUP6 ADD MSTORE PUSH1 0x7 DUP3 ADD SLOAD PUSH4 0xFFFFFFFF DUP1 DUP3 AND PUSH1 0xE0 DUP8 ADD MSTORE PUSH1 0x1 PUSH1 0x20 SHL DUP3 DIV DUP2 AND PUSH2 0x100 DUP8 ADD MSTORE PUSH1 0x1 PUSH1 0x40 SHL DUP3 DIV AND PUSH2 0x120 DUP7 ADD MSTORE PUSH1 0x1 PUSH1 0x60 SHL DUP2 DIV DUP8 AND ISZERO ISZERO PUSH2 0x140 DUP7 ADD MSTORE PUSH1 0x1 PUSH1 0x68 SHL SWAP1 DIV SWAP1 SWAP6 AND ISZERO ISZERO PUSH2 0x160 DUP5 ADD MSTORE PUSH1 0x8 DUP2 ADD DUP1 SLOAD DUP7 MLOAD DUP2 DUP6 MUL DUP2 ADD DUP6 ADD SWAP1 SWAP8 MSTORE DUP1 DUP8 MSTORE SWAP7 SWAP8 POP SWAP4 SWAP6 SWAP3 SWAP5 SWAP1 SWAP4 PUSH2 0x180 DUP7 ADD SWAP4 SWAP2 SWAP3 SWAP1 SWAP2 SWAP1 DUP4 ADD DUP3 DUP3 DUP1 ISZERO PUSH2 0x11D4 JUMPI PUSH1 0x20 MUL DUP3 ADD SWAP2 SWAP1 PUSH1 0x0 MSTORE PUSH1 0x20 PUSH1 0x0 KECCAK256 SWAP1 JUMPDEST DUP2 SLOAD PUSH1 0x1 PUSH1 0x1 PUSH1 0xA0 SHL SUB AND DUP2 MSTORE PUSH1 0x1 SWAP1 SWAP2 ADD SWAP1 PUSH1 0x20 ADD DUP1 DUP4 GT PUSH2 0x11B6 JUMPI JUMPDEST POP POP POP POP POP DUP2 MSTORE POP POP SWAP1 POP PUSH1 0x0 DUP3 PUSH1 0x60 ADD MLOAD GT ISZERO DUP1 PUSH2 0x11F4 JUMPI POP DUP2 PUSH1 0x80 ADD MLOAD JUMPDEST DUP1 PUSH2 0x1208 JUMPI POP PUSH2 0x120 DUP2 ADD MLOAD PUSH4 0xFFFFFFFF AND ISZERO JUMPDEST DUP1 PUSH2 0x1228 JUMPI POP PUSH2 0x120 DUP2 ADD MLOAD PUSH2 0x121F SWAP1 PUSH1 0x5 PUSH2 0x38E5 JUMP JUMPDEST PUSH4 0xFFFFFFFF AND TIMESTAMP LT JUMPDEST ISZERO PUSH2 0x1238 JUMPI PUSH1 0x0 SWAP3 POP POP POP PUSH2 0x12B1 JUMP JUMPDEST PUSH2 0x140 DUP2 ADD MLOAD PUSH2 0x160 DUP3 ADD MLOAD PUSH1 0xA0 DUP4 ADD MLOAD SWAP2 ISZERO SWAP2 PUSH1 0x0 SWAP1 DUP2 SLT DUP1 ISZERO PUSH2 0x1261 JUMPI POP PUSH1 0x0 DUP5 PUSH1 0xC0 ADD MLOAD SGT JUMPDEST DUP1 ISZERO PUSH2 0x1274 JUMPI POP DUP4 PUSH1 0xC0 ADD MLOAD DUP5 PUSH1 0xA0 ADD MLOAD EQ JUMPDEST SWAP1 POP PUSH1 0x0 DUP5 PUSH1 0xA0 ADD MLOAD PUSH1 0x0 EQ DUP1 PUSH2 0x128D JUMPI POP PUSH1 0xC0 DUP6 ADD MLOAD ISZERO JUMPDEST SWAP1 POP DUP4 DUP1 PUSH2 0x1298 JUMPI POP DUP3 JUMPDEST DUP1 PUSH2 0x12A0 JUMPI POP DUP2 JUMPDEST DUP1 PUSH2 0x12A8 JUMPI POP DUP1 JUMPDEST SWAP7 POP POP POP POP POP POP POP JUMPDEST SWAP3 SWAP2 POP POP JUMP JUMPDEST PUSH1 0x0 SLOAD PUSH1 0x1 PUSH1 0x1 PUSH1 0xA0 SHL SUB AND CALLER EQ PUSH2 0x12E1 JUMPI PUSH1 0x40 MLOAD PUSH3 0x461BCD PUSH1 0xE5 SHL DUP2 MSTORE PUSH1 0x4 ADD PUSH2 0x939 SWAP1 PUSH2 0x390D JUMP JUMPDEST JUMP JUMPDEST PUSH1 0x0 SLOAD PUSH1 0x1 PUSH1 0x1 PUSH1 0xA0 SHL SUB AND CALLER EQ DUP1 PUSH2 0x1306 JUMPI POP PUSH1 0x11 SLOAD PUSH1 0x1 PUSH1 0x1 PUSH1 0xA0 SHL SUB AND CALLER EQ JUMPDEST PUSH2 0x1322 JUMPI PUSH1 0x40 MLOAD PUSH3 0x461BCD PUSH1 0xE5 SHL DUP2 MSTORE PUSH1 0x4 ADD PUSH2 0x939 SWAP1 PUSH2 0x37FE JUMP JUMPDEST PUSH2 0x94B PUSH2 0xF1F PUSH1 0x0 SLOAD PUSH1 0x1 PUSH1 0x1 PUSH1 0xA0 SHL SUB AND SWAP1 JUMP JUMPDEST PUSH1 0x0 SLOAD PUSH1 0x1 PUSH1 0x1 PUSH1 0xA0 SHL SUB AND CALLER EQ DUP1 PUSH2 0x135A JUMPI POP PUSH1 0x11 SLOAD PUSH1 0x1 PUSH1 0x1 PUSH1 0xA0 SHL SUB AND CALLER EQ JUMPDEST PUSH2 0x1376 JUMPI PUSH1 0x40 MLOAD PUSH3 0x461BCD PUSH1 0xE5 SHL DUP2 MSTORE PUSH1 0x4 ADD PUSH2 0x939 SWAP1 PUSH2 0x37FE JUMP JUMPDEST PUSH1 0x0 SLOAD PUSH1 0x1 PUSH1 0xA0 SHL SWAP1 DIV PUSH1 0xFF AND ISZERO PUSH2 0x13A0 JUMPI PUSH1 0x40 MLOAD PUSH3 0x461BCD PUSH1 0xE5 SHL DUP2 MSTORE PUSH1 0x4 ADD PUSH2 0x939 SWAP1 PUSH2 0x3835 JUMP JUMPDEST PUSH1 0xA SLOAD PUSH2 0x100 SWAP1 DIV PUSH1 0xFF AND DUP1 ISZERO PUSH2 0x13BF JUMPI POP PUSH1 0xA SLOAD PUSH3 0x10000 SWAP1 DIV PUSH1 0xFF AND JUMPDEST PUSH2 0x143C JUMPI PUSH1 0x40 MLOAD PUSH3 0x461BCD PUSH1 0xE5 SHL DUP2 MSTORE PUSH1 0x20 PUSH1 0x4 DUP3 ADD MSTORE PUSH1 0x42 PUSH1 0x24 DUP3 ADD MSTORE PUSH32 0x43616E206F6E6C79206578656375746520726F756E6420616674657220737461 PUSH1 0x44 DUP3 ADD MSTORE PUSH32 0x7274526F756E6420616E64206C6F636B526F756E642069732074726967676572 PUSH1 0x64 DUP3 ADD MSTORE PUSH2 0x1959 PUSH1 0xF2 SHL PUSH1 0x84 DUP3 ADD MSTORE PUSH1 0xA4 ADD PUSH2 0x939 JUMP JUMPDEST PUSH1 0x3 PUSH1 0x0 PUSH1 0x2 DUP1 SLOAD PUSH2 0x144E SWAP2 SWAP1 PUSH2 0x3942 JUMP JUMPDEST DUP2 MSTORE PUSH1 0x20 DUP2 ADD SWAP2 SWAP1 SWAP2 MSTORE PUSH1 0x40 ADD PUSH1 0x0 SWAP1 DUP2 KECCAK256 PUSH1 0x7 ADD SLOAD PUSH1 0x1 PUSH1 0x40 SHL SWAP1 DIV PUSH4 0xFFFFFFFF AND SWAP1 SUB PUSH2 0x14DB JUMPI PUSH1 0x40 MLOAD PUSH3 0x461BCD PUSH1 0xE5 SHL DUP2 MSTORE PUSH1 0x20 PUSH1 0x4 DUP3 ADD MSTORE PUSH1 0x33 PUSH1 0x24 DUP3 ADD MSTORE PUSH32 0x43616E206F6E6C79206578656375746520726F756E6420616674657220707265 PUSH1 0x44 DUP3 ADD MSTORE PUSH19 0x1D9A5BDD5CC81C9BDD5B99081CDD185C9D1959 PUSH1 0x6A SHL PUSH1 0x64 DUP3 ADD MSTORE PUSH1 0x84 ADD PUSH2 0x939 JUMP JUMPDEST PUSH1 0x3 PUSH1 0x0 PUSH1 0x2 DUP1 SLOAD PUSH2 0x14ED SWAP2 SWAP1 PUSH2 0x3942 JUMP JUMPDEST DUP2 MSTORE PUSH1 0x20 DUP2 ADD SWAP2 SWAP1 SWAP2 MSTORE PUSH1 0x40 ADD PUSH1 0x0 KECCAK256 PUSH1 0x7 ADD SLOAD PUSH1 0x1 PUSH1 0x40 SHL SWAP1 DIV PUSH4 0xFFFFFFFF AND TIMESTAMP LT ISZERO PUSH2 0x1583 JUMPI PUSH1 0x40 MLOAD PUSH3 0x461BCD PUSH1 0xE5 SHL DUP2 MSTORE PUSH1 0x20 PUSH1 0x4 DUP3 ADD MSTORE PUSH1 0x37 PUSH1 0x24 DUP3 ADD MSTORE PUSH32 0x43616E206F6E6C79206578656375746520726F756E6420726F756E6420616674 PUSH1 0x44 DUP3 ADD MSTORE PUSH32 0x65722070726576696F757320726F756E6420656E646564000000000000000000 PUSH1 0x64 DUP3 ADD MSTORE PUSH1 0x84 ADD PUSH2 0x939 JUMP JUMPDEST PUSH1 0x2 SLOAD PUSH1 0x0 SWAP1 DUP2 MSTORE PUSH1 0x3 PUSH1 0x20 MSTORE PUSH1 0x40 SWAP1 KECCAK256 PUSH1 0x7 ADD SLOAD PUSH1 0x1 PUSH1 0x20 SHL SWAP1 DIV PUSH4 0xFFFFFFFF AND TIMESTAMP LT ISZERO PUSH2 0x1610 JUMPI PUSH1 0x40 MLOAD PUSH3 0x461BCD PUSH1 0xE5 SHL DUP2 MSTORE PUSH1 0x20 PUSH1 0x4 DUP3 ADD MSTORE PUSH1 0x33 PUSH1 0x24 DUP3 ADD MSTORE PUSH32 0x43616E206F6E6C79206578656375746520726F756E64206166746572206C6F63 PUSH1 0x44 DUP3 ADD MSTORE PUSH19 0x1AC81D1A5B595CDD185B5C081C995858DA1959 PUSH1 0x6A SHL PUSH1 0x64 DUP3 ADD MSTORE PUSH1 0x84 ADD PUSH2 0x939 JUMP JUMPDEST PUSH1 0x2 SLOAD PUSH1 0x0 SWAP1 DUP2 MSTORE PUSH1 0x3 PUSH1 0x20 MSTORE PUSH1 0x40 SWAP1 KECCAK256 PUSH1 0x7 ADD SLOAD PUSH1 0x1 PUSH1 0x40 SHL SWAP1 DIV PUSH4 0xFFFFFFFF AND TIMESTAMP GT ISZERO PUSH2 0x169F JUMPI PUSH1 0x40 MLOAD PUSH3 0x461BCD PUSH1 0xE5 SHL DUP2 MSTORE PUSH1 0x20 PUSH1 0x4 DUP3 ADD MSTORE PUSH1 0x35 PUSH1 0x24 DUP3 ADD MSTORE PUSH32 0x43616E206F6E6C79206578656375746520726F756E64206265666F7265206375 PUSH1 0x44 DUP3 ADD MSTORE PUSH21 0x7272656E7420636C6F73652074696D657374616D7 PUSH1 0x5C SHL PUSH1 0x64 DUP3 ADD MSTORE PUSH1 0x84 ADD PUSH2 0x939 JUMP JUMPDEST PUSH2 0x16AB PUSH1 0x2 SLOAD DUP5 PUSH2 0x2A12 JUMP JUMPDEST PUSH2 0x16C3 PUSH1 0x1 PUSH1 0x2 SLOAD PUSH2 0x16BD SWAP2 SWAP1 PUSH2 0x3942 JUMP JUMPDEST DUP5 PUSH2 0x2B37 JUMP JUMPDEST PUSH2 0x16DA PUSH1 0x1 PUSH1 0x2 SLOAD PUSH2 0x16D5 SWAP2 SWAP1 PUSH2 0x3942 JUMP JUMPDEST PUSH2 0x2B96 JUMP JUMPDEST PUSH1 0x2 DUP1 SLOAD SWAP1 PUSH1 0x0 PUSH2 0x16EA DUP4 PUSH2 0x3875 JUMP JUMPDEST SWAP2 SWAP1 POP SSTORE POP PUSH2 0x16FC PUSH1 0x2 SLOAD DUP4 DUP4 PUSH2 0x28FC JUMP JUMPDEST POP POP POP JUMP JUMPDEST PUSH2 0x1782 PUSH1 0x40 MLOAD DUP1 PUSH2 0x1A0 ADD PUSH1 0x40 MSTORE DUP1 PUSH1 0x0 DUP2 MSTORE PUSH1 0x20 ADD PUSH1 0x0 DUP2 MSTORE PUSH1 0x20 ADD PUSH1 0x0 DUP2 MSTORE PUSH1 0x20 ADD PUSH1 0x0 DUP2 MSTORE PUSH1 0x20 ADD PUSH1 0x0 DUP2 MSTORE PUSH1 0x20 ADD PUSH1 0x0 DUP2 MSTORE PUSH1 0x20 ADD PUSH1 0x0 DUP2 MSTORE PUSH1 0x20 ADD PUSH1 0x0 PUSH4 0xFFFFFFFF AND DUP2 MSTORE PUSH1 0x20 ADD PUSH1 0x0 PUSH4 0xFFFFFFFF AND DUP2 MSTORE PUSH1 0x20 ADD PUSH1 0x0 PUSH4 0xFFFFFFFF AND DUP2 MSTORE PUSH1 0x20 ADD PUSH1 0x0 ISZERO ISZERO DUP2 MSTORE PUSH1 0x20 ADD PUSH1 0x0 ISZERO ISZERO DUP2 MSTORE PUSH1 0x20 ADD PUSH1 0x60 DUP2 MSTORE POP SWAP1 JUMP JUMPDEST PUSH1 0x0 DUP3 DUP2 MSTORE PUSH1 0x3 PUSH1 0x20 DUP2 DUP2 MSTORE PUSH1 0x40 SWAP3 DUP4 SWAP1 KECCAK256 DUP4 MLOAD PUSH2 0x1A0 DUP2 ADD DUP6 MSTORE DUP2 SLOAD DUP2 MSTORE PUSH1 0x1 DUP3 ADD SLOAD DUP2 DUP5 ADD MSTORE PUSH1 0x2 DUP3 ADD SLOAD DUP2 DUP7 ADD MSTORE SWAP3 DUP2 ADD SLOAD PUSH1 0x60 DUP5 ADD MSTORE PUSH1 0x4 DUP2 ADD SLOAD PUSH1 0x80 DUP5 ADD MSTORE PUSH1 0x5 DUP2 ADD SLOAD PUSH1 0xA0 DUP5 ADD MSTORE PUSH1 0x6 DUP2 ADD SLOAD PUSH1 0xC0 DUP5 ADD MSTORE PUSH1 0x7 DUP2 ADD SLOAD PUSH4 0xFFFFFFFF DUP1 DUP3 AND PUSH1 0xE0 DUP7 ADD MSTORE PUSH1 0x1 PUSH1 0x20 SHL DUP3 DIV DUP2 AND PUSH2 0x100 DUP7 ADD MSTORE PUSH1 0x1 PUSH1 0x40 SHL DUP3 DIV AND PUSH2 0x120 DUP6 ADD MSTORE PUSH1 0xFF PUSH1 0x1 PUSH1 0x60 SHL DUP3 DIV DUP2 AND ISZERO ISZERO PUSH2 0x140 DUP7 ADD MSTORE PUSH1 0x1 PUSH1 0x68 SHL SWAP1 SWAP2 DIV AND ISZERO ISZERO PUSH2 0x160 DUP5 ADD MSTORE PUSH1 0x8 DUP2 ADD DUP1 SLOAD DUP6 MLOAD DUP2 DUP6 MUL DUP2 ADD DUP6 ADD SWAP1 SWAP7 MSTORE DUP1 DUP7 MSTORE SWAP4 SWAP5 SWAP2 SWAP4 PUSH2 0x180 DUP7 ADD SWAP4 DUP4 ADD DUP3 DUP3 DUP1 ISZERO PUSH2 0x1885 JUMPI PUSH1 0x20 MUL DUP3 ADD SWAP2 SWAP1 PUSH1 0x0 MSTORE PUSH1 0x20 PUSH1 0x0 KECCAK256 SWAP1 JUMPDEST DUP2 SLOAD PUSH1 0x1 PUSH1 0x1 PUSH1 0xA0 SHL SUB AND DUP2 MSTORE PUSH1 0x1 SWAP1 SWAP2 ADD SWAP1 PUSH1 0x20 ADD DUP1 DUP4 GT PUSH2 0x1867 JUMPI JUMPDEST POP POP POP POP POP DUP2 MSTORE POP POP SWAP1 POP SWAP2 SWAP1 POP JUMP JUMPDEST PUSH1 0x2 PUSH1 0x1 SLOAD SUB PUSH2 0x18B7 JUMPI PUSH1 0x40 MLOAD PUSH3 0x461BCD PUSH1 0xE5 SHL DUP2 MSTORE PUSH1 0x4 ADD PUSH2 0x939 SWAP1 PUSH2 0x3959 JUMP JUMPDEST PUSH1 0x2 PUSH1 0x1 SSTORE CALLER EXTCODESIZE ISZERO PUSH2 0x18DB JUMPI PUSH1 0x40 MLOAD PUSH3 0x461BCD PUSH1 0xE5 SHL DUP2 MSTORE PUSH1 0x4 ADD PUSH2 0x939 SWAP1 PUSH2 0x3990 JUMP JUMPDEST CALLER ORIGIN EQ PUSH2 0x18FA JUMPI PUSH1 0x40 MLOAD PUSH3 0x461BCD PUSH1 0xE5 SHL DUP2 MSTORE PUSH1 0x4 ADD PUSH2 0x939 SWAP1 PUSH2 0x39BF JUMP JUMPDEST PUSH2 0x1904 DUP3 DUP3 PUSH2 0x2C3F JUMP JUMPDEST POP POP PUSH1 0x1 DUP1 SSTORE JUMP JUMPDEST PUSH1 0x1 PUSH1 0x1 PUSH1 0xA0 SHL SUB DUP4 AND PUSH1 0x0 SWAP1 DUP2 MSTORE PUSH1 0x5 PUSH1 0x20 MSTORE PUSH1 0x40 DUP2 KECCAK256 SLOAD PUSH1 0x60 SWAP2 DUP3 SWAP2 DUP5 SWAP1 PUSH2 0x1937 SWAP1 DUP8 SWAP1 PUSH2 0x3942 JUMP JUMPDEST DUP2 GT ISZERO PUSH2 0x1965 JUMPI PUSH1 0x1 PUSH1 0x1 PUSH1 0xA0 SHL SUB DUP8 AND PUSH1 0x0 SWAP1 DUP2 MSTORE PUSH1 0x5 PUSH1 0x20 MSTORE PUSH1 0x40 SWAP1 KECCAK256 SLOAD PUSH2 0x1962 SWAP1 DUP8 SWAP1 PUSH2 0x3942 JUMP JUMPDEST SWAP1 POP JUMPDEST PUSH1 0x0 DUP2 PUSH8 0xFFFFFFFFFFFFFFFF DUP2 GT ISZERO PUSH2 0x1980 JUMPI PUSH2 0x1980 PUSH2 0x3715 JUMP JUMPDEST PUSH1 0x40 MLOAD SWAP1 DUP1 DUP3 MSTORE DUP1 PUSH1 0x20 MUL PUSH1 0x20 ADD DUP3 ADD PUSH1 0x40 MSTORE DUP1 ISZERO PUSH2 0x19A9 JUMPI DUP2 PUSH1 0x20 ADD PUSH1 0x20 DUP3 MUL DUP1 CALLDATASIZE DUP4 CALLDATACOPY ADD SWAP1 POP JUMPDEST POP SWAP1 POP PUSH1 0x0 DUP3 PUSH8 0xFFFFFFFFFFFFFFFF DUP2 GT ISZERO PUSH2 0x19C7 JUMPI PUSH2 0x19C7 PUSH2 0x3715 JUMP JUMPDEST PUSH1 0x40 MLOAD SWAP1 DUP1 DUP3 MSTORE DUP1 PUSH1 0x20 MUL PUSH1 0x20 ADD DUP3 ADD PUSH1 0x40 MSTORE DUP1 ISZERO PUSH2 0x1A2D JUMPI DUP2 PUSH1 0x20 ADD JUMPDEST PUSH2 0x1A1A PUSH1 0x40 DUP1 MLOAD PUSH1 0xA0 DUP2 ADD SWAP1 SWAP2 MSTORE DUP1 PUSH1 0x0 DUP2 MSTORE PUSH1 0x20 ADD PUSH1 0x0 DUP2 MSTORE PUSH1 0x20 ADD PUSH1 0x0 DUP2 MSTORE PUSH1 0x20 ADD PUSH1 0x0 DUP2 MSTORE PUSH1 0x20 ADD PUSH1 0x0 ISZERO ISZERO DUP2 MSTORE POP SWAP1 JUMP JUMPDEST DUP2 MSTORE PUSH1 0x20 ADD SWAP1 PUSH1 0x1 SWAP1 SUB SWAP1 DUP2 PUSH2 0x19E5 JUMPI SWAP1 POP JUMPDEST POP SWAP1 POP PUSH1 0x0 JUMPDEST DUP4 DUP2 LT ISZERO PUSH2 0x1B73 JUMPI PUSH1 0x1 PUSH1 0x1 PUSH1 0xA0 SHL SUB DUP11 AND PUSH1 0x0 SWAP1 DUP2 MSTORE PUSH1 0x5 PUSH1 0x20 MSTORE PUSH1 0x40 SWAP1 KECCAK256 PUSH2 0x1A5D DUP3 DUP12 PUSH2 0x39F6 JUMP JUMPDEST DUP2 SLOAD DUP2 LT PUSH2 0x1A6D JUMPI PUSH2 0x1A6D PUSH2 0x3A0E JUMP JUMPDEST SWAP1 PUSH1 0x0 MSTORE PUSH1 0x20 PUSH1 0x0 KECCAK256 ADD SLOAD DUP4 DUP3 DUP2 MLOAD DUP2 LT PUSH2 0x1A8A JUMPI PUSH2 0x1A8A PUSH2 0x3A0E JUMP JUMPDEST PUSH1 0x20 MUL PUSH1 0x20 ADD ADD DUP2 DUP2 MSTORE POP POP PUSH1 0x4 PUSH1 0x0 DUP5 DUP4 DUP2 MLOAD DUP2 LT PUSH2 0x1AAC JUMPI PUSH2 0x1AAC PUSH2 0x3A0E JUMP JUMPDEST PUSH1 0x20 SWAP1 DUP2 MUL SWAP2 SWAP1 SWAP2 ADD DUP2 ADD MLOAD DUP3 MSTORE DUP2 DUP2 ADD SWAP3 SWAP1 SWAP3 MSTORE PUSH1 0x40 SWAP1 DUP2 ADD PUSH1 0x0 SWAP1 DUP2 KECCAK256 PUSH1 0x1 PUSH1 0x1 PUSH1 0xA0 SHL SUB DUP15 AND DUP3 MSTORE SWAP1 SWAP3 MSTORE SWAP1 DUP2 SWAP1 KECCAK256 DUP2 MLOAD PUSH1 0xA0 DUP2 ADD SWAP1 SWAP3 MSTORE DUP1 SLOAD DUP3 SWAP1 PUSH1 0xFF AND PUSH1 0x1 DUP2 GT ISZERO PUSH2 0x1AFF JUMPI PUSH2 0x1AFF PUSH2 0x3312 JUMP JUMPDEST PUSH1 0x1 DUP2 GT ISZERO PUSH2 0x1B10 JUMPI PUSH2 0x1B10 PUSH2 0x3312 JUMP JUMPDEST DUP2 MSTORE PUSH1 0x1 DUP3 ADD SLOAD PUSH1 0x20 DUP3 ADD MSTORE PUSH1 0x2 DUP3 ADD SLOAD PUSH1 0x40 DUP3 ADD MSTORE PUSH1 0x3 DUP3 ADD SLOAD PUSH1 0x60 DUP3 ADD MSTORE PUSH1 0x4 SWAP1 SWAP2 ADD SLOAD PUSH1 0xFF AND ISZERO ISZERO PUSH1 0x80 SWAP1 SWAP2 ADD MSTORE DUP3 MLOAD DUP4 SWAP1 DUP4 SWAP1 DUP2 LT PUSH2 0x1B55 JUMPI PUSH2 0x1B55 PUSH2 0x3A0E JUMP JUMPDEST PUSH1 0x20 MUL PUSH1 0x20 ADD ADD DUP2 SWAP1 MSTORE POP DUP1 DUP1 PUSH2 0x1B6B SWAP1 PUSH2 0x3875 JUMP JUMPDEST SWAP2 POP POP PUSH2 0x1A33 JUMP JUMPDEST POP DUP2 DUP2 PUSH2 0x1B80 DUP6 DUP12 PUSH2 0x39F6 JUMP JUMPDEST SWAP6 POP SWAP6 POP SWAP6 POP POP POP POP SWAP4 POP SWAP4 POP SWAP4 SWAP1 POP JUMP JUMPDEST PUSH1 0x0 DUP3 DUP2 MSTORE PUSH1 0x4 PUSH1 0x20 SWAP1 DUP2 MSTORE PUSH1 0x40 DUP1 DUP4 KECCAK256 PUSH1 0x1 PUSH1 0x1 PUSH1 0xA0 SHL SUB DUP6 AND DUP5 MSTORE SWAP1 SWAP2 MSTORE DUP1 DUP3 KECCAK256 DUP2 MLOAD PUSH1 0xA0 DUP2 ADD SWAP1 SWAP3 MSTORE DUP1 SLOAD DUP4 SWAP3 SWAP2 SWAP1 DUP3 SWAP1 PUSH1 0xFF AND PUSH1 0x1 DUP2 GT ISZERO PUSH2 0x1BDA JUMPI PUSH2 0x1BDA PUSH2 0x3312 JUMP JUMPDEST PUSH1 0x1 DUP2 GT ISZERO PUSH2 0x1BEB JUMPI PUSH2 0x1BEB PUSH2 0x3312 JUMP JUMPDEST DUP2 MSTORE PUSH1 0x1 DUP3 DUP2 ADD SLOAD PUSH1 0x20 DUP1 DUP5 ADD SWAP2 SWAP1 SWAP2 MSTORE PUSH1 0x2 DUP1 DUP6 ADD SLOAD PUSH1 0x40 DUP1 DUP7 ADD SWAP2 SWAP1 SWAP2 MSTORE PUSH1 0x3 DUP1 DUP8 ADD SLOAD PUSH1 0x60 DUP1 DUP9 ADD SWAP2 SWAP1 SWAP2 MSTORE PUSH1 0x4 SWAP8 DUP9 ADD SLOAD PUSH1 0xFF SWAP1 DUP2 AND ISZERO ISZERO PUSH1 0x80 SWAP9 DUP10 ADD MSTORE PUSH1 0x0 DUP15 DUP2 MSTORE DUP4 DUP8 MSTORE DUP5 DUP2 KECCAK256 DUP6 MLOAD PUSH2 0x1A0 DUP2 ADD DUP8 MSTORE DUP2 SLOAD DUP2 MSTORE SWAP9 DUP2 ADD SLOAD DUP10 DUP10 ADD MSTORE SWAP6 DUP7 ADD SLOAD DUP9 DUP7 ADD MSTORE SWAP3 DUP6 ADD SLOAD SWAP2 DUP8 ADD SWAP2 SWAP1 SWAP2 MSTORE SWAP7 DUP4 ADD SLOAD SWAP6 DUP6 ADD SWAP6 SWAP1 SWAP6 MSTORE PUSH1 0x5 DUP3 ADD SLOAD PUSH1 0xA0 DUP6 ADD MSTORE PUSH1 0x6 DUP3 ADD SLOAD PUSH1 0xC0 DUP6 ADD MSTORE PUSH1 0x7 DUP3 ADD SLOAD PUSH4 0xFFFFFFFF DUP1 DUP3 AND PUSH1 0xE0 DUP8 ADD MSTORE PUSH1 0x1 PUSH1 0x20 SHL DUP3 DIV DUP2 AND PUSH2 0x100 DUP8 ADD MSTORE PUSH1 0x1 PUSH1 0x40 SHL DUP3 DIV AND PUSH2 0x120 DUP7 ADD MSTORE PUSH1 0x1 PUSH1 0x60 SHL DUP2 DIV DUP8 AND ISZERO ISZERO PUSH2 0x140 DUP7 ADD MSTORE PUSH1 0x1 PUSH1 0x68 SHL SWAP1 DIV SWAP1 SWAP6 AND ISZERO ISZERO PUSH2 0x160 DUP5 ADD MSTORE PUSH1 0x8 DUP2 ADD DUP1 SLOAD DUP7 MLOAD DUP2 DUP6 MUL DUP2 ADD DUP6 ADD SWAP1 SWAP8 MSTORE DUP1 DUP8 MSTORE SWAP7 SWAP8 POP SWAP4 SWAP6 SWAP3 SWAP5 SWAP1 SWAP4 PUSH2 0x180 DUP7 ADD SWAP4 SWAP2 SWAP3 SWAP1 SWAP2 SWAP1 DUP4 ADD DUP3 DUP3 DUP1 ISZERO PUSH2 0x1D33 JUMPI PUSH1 0x20 MUL DUP3 ADD SWAP2 SWAP1 PUSH1 0x0 MSTORE PUSH1 0x20 PUSH1 0x0 KECCAK256 SWAP1 JUMPDEST DUP2 SLOAD PUSH1 0x1 PUSH1 0x1 PUSH1 0xA0 SHL SUB AND DUP2 MSTORE PUSH1 0x1 SWAP1 SWAP2 ADD SWAP1 PUSH1 0x20 ADD DUP1 DUP4 GT PUSH2 0x1D15 JUMPI JUMPDEST POP POP POP POP POP DUP2 MSTORE POP POP SWAP1 POP DUP1 PUSH2 0x140 ADD MLOAD ISZERO DUP1 PUSH2 0x1D52 JUMPI POP PUSH1 0x60 DUP3 ADD MLOAD ISZERO JUMPDEST DUP1 PUSH2 0x1D5E JUMPI POP DUP2 PUSH1 0x80 ADD MLOAD JUMPDEST DUP1 PUSH2 0x1D6E JUMPI POP PUSH1 0x0 DUP2 PUSH1 0xA0 ADD MLOAD SGT ISZERO JUMPDEST DUP1 PUSH2 0x1D7E JUMPI POP PUSH1 0x0 DUP2 PUSH1 0xC0 ADD MLOAD SGT ISZERO JUMPDEST DUP1 PUSH2 0x1D90 JUMPI POP DUP1 PUSH1 0xC0 ADD MLOAD DUP2 PUSH1 0xA0 ADD MLOAD EQ JUMPDEST ISZERO PUSH2 0x1DA0 JUMPI PUSH1 0x0 SWAP3 POP POP POP PUSH2 0x12B1 JUMP JUMPDEST PUSH1 0x0 DUP2 PUSH1 0xA0 ADD MLOAD DUP3 PUSH1 0xC0 ADD MLOAD SGT DUP1 ISZERO PUSH2 0x1DCB JUMPI POP PUSH1 0x0 DUP4 MLOAD PUSH1 0x1 DUP2 GT ISZERO PUSH2 0x1DC9 JUMPI PUSH2 0x1DC9 PUSH2 0x3312 JUMP JUMPDEST EQ JUMPDEST SWAP1 POP PUSH1 0x0 DUP3 PUSH1 0xA0 ADD MLOAD DUP4 PUSH1 0xC0 ADD MLOAD SLT DUP1 ISZERO PUSH2 0x1DF8 JUMPI POP PUSH1 0x1 DUP5 MLOAD PUSH1 0x1 DUP2 GT ISZERO PUSH2 0x1DF6 JUMPI PUSH2 0x1DF6 PUSH2 0x3312 JUMP JUMPDEST EQ JUMPDEST SWAP1 POP DUP2 DUP1 PUSH2 0x1E03 JUMPI POP DUP1 JUMPDEST SWAP8 SWAP7 POP POP POP POP POP POP POP JUMP JUMPDEST PUSH1 0x0 SLOAD PUSH1 0x1 PUSH1 0xA0 SHL SWAP1 DIV PUSH1 0xFF AND ISZERO PUSH2 0x1E38 JUMPI PUSH1 0x40 MLOAD PUSH3 0x461BCD PUSH1 0xE5 SHL DUP2 MSTORE PUSH1 0x4 ADD PUSH2 0x939 SWAP1 PUSH2 0x3835 JUMP JUMPDEST PUSH1 0x2 PUSH1 0x1 SLOAD SUB PUSH2 0x1E5A JUMPI PUSH1 0x40 MLOAD PUSH3 0x461BCD PUSH1 0xE5 SHL DUP2 MSTORE PUSH1 0x4 ADD PUSH2 0x939 SWAP1 PUSH2 0x3959 JUMP JUMPDEST PUSH1 0x2 PUSH1 0x1 SSTORE CALLER EXTCODESIZE ISZERO PUSH2 0x1E7E JUMPI PUSH1 0x40 MLOAD PUSH3 0x461BCD PUSH1 0xE5 SHL DUP2 MSTORE PUSH1 0x4 ADD PUSH2 0x939 SWAP1 PUSH2 0x3990 JUMP JUMPDEST CALLER ORIGIN EQ PUSH2 0x1E9D JUMPI PUSH1 0x40 MLOAD PUSH3 0x461BCD PUSH1 0xE5 SHL DUP2 MSTORE PUSH1 0x4 ADD PUSH2 0x939 SWAP1 PUSH2 0x39BF JUMP JUMPDEST PUSH1 0x2 SLOAD DUP2 EQ PUSH2 0x1EE6 JUMPI PUSH1 0x40 MLOAD PUSH3 0x461BCD PUSH1 0xE5 SHL DUP2 MSTORE PUSH1 0x20 PUSH1 0x4 DUP3 ADD MSTORE PUSH1 0x15 PUSH1 0x24 DUP3 ADD MSTORE PUSH21 0x42657420697320746F6F206561726C792F6C617465 PUSH1 0x58 SHL PUSH1 0x44 DUP3 ADD MSTORE PUSH1 0x64 ADD PUSH2 0x939 JUMP JUMPDEST PUSH2 0x1EEF DUP2 PUSH2 0x31AA JUMP JUMPDEST PUSH2 0x1F30 JUMPI PUSH1 0x40 MLOAD PUSH3 0x461BCD PUSH1 0xE5 SHL DUP2 MSTORE PUSH1 0x20 PUSH1 0x4 DUP3 ADD MSTORE PUSH1 0x12 PUSH1 0x24 DUP3 ADD MSTORE PUSH18 0x526F756E64206E6F74206265747461626C65 PUSH1 0x70 SHL PUSH1 0x44 DUP3 ADD MSTORE PUSH1 0x64 ADD PUSH2 0x939 JUMP JUMPDEST PUSH1 0x9 SLOAD CALLVALUE LT ISZERO PUSH2 0x1F52 JUMPI PUSH1 0x40 MLOAD PUSH3 0x461BCD PUSH1 0xE5 SHL DUP2 MSTORE PUSH1 0x4 ADD PUSH2 0x939 SWAP1 PUSH2 0x3A24 JUMP JUMPDEST PUSH1 0x0 DUP2 DUP2 MSTORE PUSH1 0x4 PUSH1 0x20 SWAP1 DUP2 MSTORE PUSH1 0x40 DUP1 DUP4 KECCAK256 CALLER DUP5 MSTORE SWAP1 SWAP2 MSTORE SWAP1 KECCAK256 PUSH1 0x3 ADD SLOAD ISZERO PUSH2 0x1FBC JUMPI PUSH1 0x40 MLOAD PUSH3 0x461BCD PUSH1 0xE5 SHL DUP2 MSTORE PUSH1 0x20 PUSH1 0x4 DUP3 ADD MSTORE PUSH1 0x1B PUSH1 0x24 DUP3 ADD MSTORE PUSH32 0x43616E206F6E6C7920626574206F6E63652070657220726F756E640000000000 PUSH1 0x44 DUP3 ADD MSTORE PUSH1 0x64 ADD PUSH2 0x939 JUMP JUMPDEST PUSH1 0x0 DUP2 DUP2 MSTORE PUSH1 0x3 PUSH1 0x20 MSTORE PUSH1 0x40 SWAP1 KECCAK256 PUSH1 0x1 DUP2 ADD SLOAD CALLVALUE SWAP2 SWAP1 PUSH2 0x1FDD SWAP1 DUP4 SWAP1 PUSH2 0x39F6 JUMP JUMPDEST PUSH1 0x1 DUP3 DUP2 ADD SWAP2 SWAP1 SWAP2 SSTORE PUSH1 0x0 DUP5 DUP2 MSTORE PUSH1 0x4 PUSH1 0x20 SWAP1 DUP2 MSTORE PUSH1 0x40 DUP1 DUP4 KECCAK256 CALLER DUP5 MSTORE DUP3 MSTORE DUP1 DUP4 KECCAK256 DUP1 SLOAD PUSH1 0xFF NOT AND DUP2 SSTORE PUSH1 0x3 DUP2 ADD DUP8 SWAP1 SSTORE TIMESTAMP DUP2 DUP7 ADD SSTORE PUSH1 0x5 DUP4 MSTORE SWAP1 DUP4 KECCAK256 DUP1 SLOAD SWAP5 DUP6 ADD DUP2 SSTORE DUP4 MSTORE SWAP1 DUP3 KECCAK256 SWAP1 SWAP3 ADD DUP6 SWAP1 SSTORE PUSH1 0xB DUP1 SLOAD SWAP2 PUSH2 0x203A DUP4 PUSH2 0x3875 JUMP JUMPDEST SWAP2 SWAP1 POP SSTORE POP DUP3 PUSH1 0xC PUSH1 0x0 DUP3 DUP3 SLOAD PUSH2 0x2051 SWAP2 SWAP1 PUSH2 0x39F6 JUMP JUMPDEST SWAP1 SWAP2 SSTORE POP POP PUSH1 0xA SLOAD PUSH1 0xFF AND ISZERO PUSH2 0x2089 JUMPI PUSH1 0x8 DUP3 ADD DUP1 SLOAD PUSH1 0x1 DUP2 ADD DUP3 SSTORE PUSH1 0x0 SWAP2 DUP3 MSTORE PUSH1 0x20 SWAP1 SWAP2 KECCAK256 ADD DUP1 SLOAD PUSH1 0x1 PUSH1 0x1 PUSH1 0xA0 SHL SUB NOT AND CALLER OR SWAP1 SSTORE JUMPDEST PUSH1 0x12 SLOAD PUSH1 0x1 PUSH1 0x1 PUSH1 0xA0 SHL SUB AND ISZERO PUSH2 0x210A JUMPI PUSH1 0x12 SLOAD PUSH1 0x13 SLOAD PUSH1 0x40 MLOAD PUSH4 0xA9C2EAE5 PUSH1 0xE0 SHL DUP2 MSTORE CALLER PUSH1 0x4 DUP3 ADD MSTORE PUSH1 0x24 DUP2 ADD DUP7 SWAP1 MSTORE PUSH1 0x44 DUP2 ADD SWAP2 SWAP1 SWAP2 MSTORE PUSH1 0x1 PUSH1 0x1 PUSH1 0xA0 SHL SUB SWAP1 SWAP2 AND SWAP1 PUSH4 0xA9C2EAE5 SWAP1 PUSH1 0x64 ADD PUSH1 0x0 PUSH1 0x40 MLOAD DUP1 DUP4 SUB DUP2 PUSH1 0x0 DUP8 DUP1 EXTCODESIZE ISZERO DUP1 ISZERO PUSH2 0x20F1 JUMPI PUSH1 0x0 DUP1 REVERT JUMPDEST POP GAS CALL ISZERO DUP1 ISZERO PUSH2 0x2105 JUMPI RETURNDATASIZE PUSH1 0x0 DUP1 RETURNDATACOPY RETURNDATASIZE PUSH1 0x0 REVERT JUMPDEST POP POP POP POP JUMPDEST PUSH1 0x2 SLOAD PUSH1 0x40 MLOAD DUP5 DUP2 MSTORE CALLER SWAP1 PUSH32 0x49237630B34A73A6A12F9D3D4A305DDD6E3A359CC147FFB7A5F18C08F736BC25 SWAP1 PUSH1 0x20 ADD JUMPDEST PUSH1 0x40 MLOAD DUP1 SWAP2 SUB SWAP1 LOG3 POP POP PUSH1 0x1 DUP1 SSTORE POP POP JUMP JUMPDEST PUSH1 0x0 SLOAD PUSH1 0x1 PUSH1 0xA0 SHL SWAP1 DIV PUSH1 0xFF AND ISZERO PUSH2 0x2177 JUMPI PUSH1 0x40 MLOAD PUSH3 0x461BCD PUSH1 0xE5 SHL DUP2 MSTORE PUSH1 0x4 ADD PUSH2 0x939 SWAP1 PUSH2 0x3835 JUMP JUMPDEST PUSH1 0x2 PUSH1 0x1 SLOAD SUB PUSH2 0x2199 JUMPI PUSH1 0x40 MLOAD PUSH3 0x461BCD PUSH1 0xE5 SHL DUP2 MSTORE PUSH1 0x4 ADD PUSH2 0x939 SWAP1 PUSH2 0x3959 JUMP JUMPDEST PUSH1 0x2 PUSH1 0x1 SSTORE CALLER EXTCODESIZE ISZERO PUSH2 0x21BD JUMPI PUSH1 0x40 MLOAD PUSH3 0x461BCD PUSH1 0xE5 SHL DUP2 MSTORE PUSH1 0x4 ADD PUSH2 0x939 SWAP1 PUSH2 0x3990 JUMP JUMPDEST CALLER ORIGIN EQ PUSH2 0x21DC JUMPI PUSH1 0x40 MLOAD PUSH3 0x461BCD PUSH1 0xE5 SHL DUP2 MSTORE PUSH1 0x4 ADD PUSH2 0x939 SWAP1 PUSH2 0x39BF JUMP JUMPDEST PUSH1 0x2 SLOAD DUP2 EQ PUSH2 0x2225 JUMPI PUSH1 0x40 MLOAD PUSH3 0x461BCD PUSH1 0xE5 SHL DUP2 MSTORE PUSH1 0x20 PUSH1 0x4 DUP3 ADD MSTORE PUSH1 0x15 PUSH1 0x24 DUP3 ADD MSTORE PUSH21 0x42657420697320746F6F206561726C792F6C617465 PUSH1 0x58 SHL PUSH1 0x44 DUP3 ADD MSTORE PUSH1 0x64 ADD PUSH2 0x939 JUMP JUMPDEST PUSH2 0x222E DUP2 PUSH2 0x31AA JUMP JUMPDEST PUSH2 0x226F JUMPI PUSH1 0x40 MLOAD PUSH3 0x461BCD PUSH1 0xE5 SHL DUP2 MSTORE PUSH1 0x20 PUSH1 0x4 DUP3 ADD MSTORE PUSH1 0x12 PUSH1 0x24 DUP3 ADD MSTORE PUSH18 0x526F756E64206E6F74206265747461626C65 PUSH1 0x70 SHL PUSH1 0x44 DUP3 ADD MSTORE PUSH1 0x64 ADD PUSH2 0x939 JUMP JUMPDEST PUSH1 0x9 SLOAD CALLVALUE LT ISZERO PUSH2 0x2291 JUMPI PUSH1 0x40 MLOAD PUSH3 0x461BCD PUSH1 0xE5 SHL DUP2 MSTORE PUSH1 0x4 ADD PUSH2 0x939 SWAP1 PUSH2 0x3A24 JUMP JUMPDEST PUSH1 0x0 DUP2 DUP2 MSTORE PUSH1 0x4 PUSH1 0x20 SWAP1 DUP2 MSTORE PUSH1 0x40 DUP1 DUP4 KECCAK256 CALLER DUP5 MSTORE SWAP1 SWAP2 MSTORE SWAP1 KECCAK256 PUSH1 0x3 ADD SLOAD ISZERO PUSH2 0x22FB JUMPI PUSH1 0x40 MLOAD PUSH3 0x461BCD PUSH1 0xE5 SHL DUP2 MSTORE PUSH1 0x20 PUSH1 0x4 DUP3 ADD MSTORE PUSH1 0x1B PUSH1 0x24 DUP3 ADD MSTORE PUSH32 0x43616E206F6E6C7920626574206F6E63652070657220726F756E640000000000 PUSH1 0x44 DUP3 ADD MSTORE PUSH1 0x64 ADD PUSH2 0x939 JUMP JUMPDEST PUSH1 0x0 DUP2 DUP2 MSTORE PUSH1 0x3 PUSH1 0x20 MSTORE PUSH1 0x40 SWAP1 KECCAK256 PUSH1 0x2 DUP2 ADD SLOAD CALLVALUE SWAP2 SWAP1 PUSH2 0x231C SWAP1 DUP4 SWAP1 PUSH2 0x39F6 JUMP JUMPDEST PUSH1 0x2 DUP3 ADD SSTORE PUSH1 0x0 DUP4 DUP2 MSTORE PUSH1 0x4 PUSH1 0x20 SWAP1 DUP2 MSTORE PUSH1 0x40 DUP1 DUP4 KECCAK256 CALLER DUP5 MSTORE DUP3 MSTORE DUP1 DUP4 KECCAK256 DUP1 SLOAD PUSH1 0xFF NOT AND PUSH1 0x1 SWAP1 DUP2 OR DUP3 SSTORE PUSH1 0x3 DUP3 ADD DUP8 SWAP1 SSTORE TIMESTAMP DUP2 DUP4 ADD SSTORE PUSH1 0x5 DUP5 MSTORE SWAP2 DUP5 KECCAK256 DUP1 SLOAD SWAP3 DUP4 ADD DUP2 SSTORE DUP5 MSTORE SWAP2 DUP4 KECCAK256 ADD DUP6 SWAP1 SSTORE PUSH1 0xD DUP1 SLOAD SWAP2 SWAP3 PUSH2 0x2379 DUP4 PUSH2 0x3875 JUMP JUMPDEST SWAP2 SWAP1 POP SSTORE POP DUP3 PUSH1 0xE PUSH1 0x0 DUP3 DUP3 SLOAD PUSH2 0x2390 SWAP2 SWAP1 PUSH2 0x39F6 JUMP JUMPDEST SWAP1 SWAP2 SSTORE POP POP PUSH1 0xA SLOAD PUSH1 0xFF AND ISZERO PUSH2 0x23C8 JUMPI PUSH1 0x8 DUP3 ADD DUP1 SLOAD PUSH1 0x1 DUP2 ADD DUP3 SSTORE PUSH1 0x0 SWAP2 DUP3 MSTORE PUSH1 0x20 SWAP1 SWAP2 KECCAK256 ADD DUP1 SLOAD PUSH1 0x1 PUSH1 0x1 PUSH1 0xA0 SHL SUB NOT AND CALLER OR SWAP1 SSTORE JUMPDEST PUSH1 0x12 SLOAD PUSH1 0x1 PUSH1 0x1 PUSH1 0xA0 SHL SUB AND ISZERO PUSH2 0x2449 JUMPI PUSH1 0x12 SLOAD PUSH1 0x13 SLOAD PUSH1 0x40 MLOAD PUSH4 0xA9C2EAE5 PUSH1 0xE0 SHL DUP2 MSTORE CALLER PUSH1 0x4 DUP3 ADD MSTORE PUSH1 0x24 DUP2 ADD DUP7 SWAP1 MSTORE PUSH1 0x44 DUP2 ADD SWAP2 SWAP1 SWAP2 MSTORE PUSH1 0x1 PUSH1 0x1 PUSH1 0xA0 SHL SUB SWAP1 SWAP2 AND SWAP1 PUSH4 0xA9C2EAE5 SWAP1 PUSH1 0x64 ADD PUSH1 0x0 PUSH1 0x40 MLOAD DUP1 DUP4 SUB DUP2 PUSH1 0x0 DUP8 DUP1 EXTCODESIZE ISZERO DUP1 ISZERO PUSH2 0x2430 JUMPI PUSH1 0x0 DUP1 REVERT JUMPDEST POP GAS CALL ISZERO DUP1 ISZERO PUSH2 0x2444 JUMPI RETURNDATASIZE PUSH1 0x0 DUP1 RETURNDATACOPY RETURNDATASIZE PUSH1 0x0 REVERT JUMPDEST POP POP POP POP JUMPDEST PUSH1 0x40 MLOAD DUP4 DUP2 MSTORE DUP5 SWAP1 CALLER SWAP1 PUSH32 0x93349B5CB1CDD80EA47C8A040B8C0E31E219E0665C1EB33D9A7B2D3FAD11E224 SWAP1 PUSH1 0x20 ADD PUSH2 0x213B JUMP JUMPDEST PUSH1 0x5 PUSH1 0x20 MSTORE DUP2 PUSH1 0x0 MSTORE PUSH1 0x40 PUSH1 0x0 KECCAK256 DUP2 DUP2 SLOAD DUP2 LT PUSH2 0x2499 JUMPI PUSH1 0x0 DUP1 REVERT JUMPDEST SWAP1 PUSH1 0x0 MSTORE PUSH1 0x20 PUSH1 0x0 KECCAK256 ADD PUSH1 0x0 SWAP2 POP SWAP2 POP POP SLOAD DUP2 JUMP JUMPDEST PUSH1 0x0 SLOAD PUSH1 0x1 PUSH1 0x1 PUSH1 0xA0 SHL SUB AND CALLER EQ PUSH2 0x24D8 JUMPI PUSH1 0x40 MLOAD PUSH3 0x461BCD PUSH1 0xE5 SHL DUP2 MSTORE PUSH1 0x4 ADD PUSH2 0x939 SWAP1 PUSH2 0x390D JUMP JUMPDEST PUSH1 0x11 DUP1 SLOAD PUSH1 0x1 PUSH1 0x1 PUSH1 0xA0 SHL SUB NOT AND PUSH1 0x1 PUSH1 0x1 PUSH1 0xA0 SHL SUB SWAP3 SWAP1 SWAP3 AND SWAP2 SWAP1 SWAP2 OR SWAP1 SSTORE JUMP JUMPDEST PUSH1 0x2 PUSH1 0x1 SLOAD SUB PUSH2 0x251C JUMPI PUSH1 0x40 MLOAD PUSH3 0x461BCD PUSH1 0xE5 SHL DUP2 MSTORE PUSH1 0x4 ADD PUSH2 0x939 SWAP1 PUSH2 0x3959 JUMP JUMPDEST PUSH1 0x2 PUSH1 0x1 SSTORE CALLER EXTCODESIZE ISZERO PUSH2 0x2540 JUMPI PUSH1 0x40 MLOAD PUSH3 0x461BCD PUSH1 0xE5 SHL DUP2 MSTORE PUSH1 0x4 ADD PUSH2 0x939 SWAP1 PUSH2 0x3990 JUMP JUMPDEST CALLER ORIGIN EQ PUSH2 0x255F JUMPI PUSH1 0x40 MLOAD PUSH3 0x461BCD PUSH1 0xE5 SHL DUP2 MSTORE PUSH1 0x4 ADD PUSH2 0x939 SWAP1 PUSH2 0x39BF JUMP JUMPDEST PUSH2 0x2569 DUP4 DUP4 PUSH2 0x2C3F JUMP JUMPDEST PUSH1 0x12 SLOAD PUSH1 0x1 PUSH1 0x1 PUSH1 0xA0 SHL SUB AND ISZERO PUSH2 0x25EF JUMPI PUSH1 0x1 PUSH1 0x1 PUSH1 0xA0 SHL SUB DUP2 AND ISZERO PUSH2 0x25EF JUMPI PUSH1 0x12 SLOAD PUSH1 0x40 MLOAD PUSH4 0x710EC75 PUSH1 0xE0 SHL DUP2 MSTORE PUSH1 0x1 PUSH1 0x1 PUSH1 0xA0 SHL SUB DUP4 DUP2 AND PUSH1 0x4 DUP4 ADD MSTORE CALLER PUSH1 0x24 DUP4 ADD MSTORE SWAP1 SWAP2 AND SWAP1 PUSH4 0x710EC75 SWAP1 PUSH1 0x44 ADD PUSH1 0x0 PUSH1 0x40 MLOAD DUP1 DUP4 SUB DUP2 PUSH1 0x0 DUP8 DUP1 EXTCODESIZE ISZERO DUP1 ISZERO PUSH2 0x25D6 JUMPI PUSH1 0x0 DUP1 REVERT JUMPDEST POP GAS CALL ISZERO DUP1 ISZERO PUSH2 0x25EA JUMPI RETURNDATASIZE PUSH1 0x0 DUP1 RETURNDATACOPY RETURNDATASIZE PUSH1 0x0 REVERT JUMPDEST POP POP POP POP JUMPDEST POP POP PUSH1 0x1 DUP1 SSTORE POP JUMP JUMPDEST PUSH1 0x0 SLOAD PUSH1 0x1 PUSH1 0x1 PUSH1 0xA0 SHL SUB AND CALLER EQ PUSH2 0x2622 JUMPI PUSH1 0x40 MLOAD PUSH3 0x461BCD PUSH1 0xE5 SHL DUP2 MSTORE PUSH1 0x4 ADD PUSH2 0x939 SWAP1 PUSH2 0x390D JUMP JUMPDEST PUSH1 0x1 PUSH1 0x1 PUSH1 0xA0 SHL SUB DUP2 AND PUSH2 0x2687 JUMPI PUSH1 0x40 MLOAD PUSH3 0x461BCD PUSH1 0xE5 SHL DUP2 MSTORE PUSH1 0x20 PUSH1 0x4 DUP3 ADD MSTORE PUSH1 0x26 PUSH1 0x24 DUP3 ADD MSTORE PUSH32 0x4F776E61626C653A206E6577206F776E657220697320746865207A65726F2061 PUSH1 0x44 DUP3 ADD MSTORE PUSH6 0x646472657373 PUSH1 0xD0 SHL PUSH1 0x64 DUP3 ADD MSTORE PUSH1 0x84 ADD PUSH2 0x939 JUMP JUMPDEST PUSH1 0x0 DUP1 SLOAD PUSH1 0x40 MLOAD PUSH1 0x1 PUSH1 0x1 PUSH1 0xA0 SHL SUB DUP1 DUP6 AND SWAP4 SWAP3 AND SWAP2 PUSH32 0x8BE0079C531659141344CD1FD0A4F28419497F9722A3DAAFE3B4186F6B6457E0 SWAP2 LOG3 PUSH1 0x0 DUP1 SLOAD PUSH1 0x1 PUSH1 0x1 PUSH1 0xA0 SHL SUB NOT AND PUSH1 0x1 PUSH1 0x1 PUSH1 0xA0 SHL SUB SWAP3 SWAP1 SWAP3 AND SWAP2 SWAP1 SWAP2 OR SWAP1 SSTORE JUMP JUMPDEST PUSH1 0x0 SLOAD PUSH1 0x1 PUSH1 0x1 PUSH1 0xA0 SHL SUB AND CALLER EQ DUP1 PUSH2 0x2705 JUMPI POP PUSH1 0x11 SLOAD PUSH1 0x1 PUSH1 0x1 PUSH1 0xA0 SHL SUB AND CALLER EQ JUMPDEST PUSH2 0x2721 JUMPI PUSH1 0x40 MLOAD PUSH3 0x461BCD PUSH1 0xE5 SHL DUP2 MSTORE PUSH1 0x4 ADD PUSH2 0x939 SWAP1 PUSH2 0x37FE JUMP JUMPDEST PUSH1 0x12 DUP1 SLOAD PUSH1 0x1 PUSH1 0x1 PUSH1 0xA0 SHL SUB NOT AND PUSH1 0x1 PUSH1 0x1 PUSH1 0xA0 SHL SUB SWAP3 SWAP1 SWAP3 AND SWAP2 SWAP1 SWAP2 OR SWAP1 SSTORE JUMP JUMPDEST PUSH1 0x0 SLOAD PUSH1 0x1 PUSH1 0x1 PUSH1 0xA0 SHL SUB AND CALLER EQ DUP1 PUSH2 0x2766 JUMPI POP PUSH1 0x11 SLOAD PUSH1 0x1 PUSH1 0x1 PUSH1 0xA0 SHL SUB AND CALLER EQ JUMPDEST PUSH2 0x2782 JUMPI PUSH1 0x40 MLOAD PUSH3 0x461BCD PUSH1 0xE5 SHL DUP2 MSTORE PUSH1 0x4 ADD PUSH2 0x939 SWAP1 PUSH2 0x37FE JUMP JUMPDEST PUSH1 0x0 DUP2 MLOAD GT PUSH2 0x27D3 JUMPI PUSH1 0x40 MLOAD PUSH3 0x461BCD PUSH1 0xE5 SHL DUP2 MSTORE PUSH1 0x20 PUSH1 0x4 DUP3 ADD MSTORE PUSH1 0x1D PUSH1 0x24 DUP3 ADD MSTORE PUSH32 0x507269636520736F757263652063616E206E6F7420626520656D707479000000 PUSH1 0x44 DUP3 ADD MSTORE PUSH1 0x64 ADD PUSH2 0x939 JUMP JUMPDEST PUSH1 0x6 PUSH2 0x27DF DUP3 DUP3 PUSH2 0x3AC0 JUMP JUMPDEST POP POP JUMP JUMPDEST PUSH1 0x0 SLOAD PUSH1 0x1 PUSH1 0x1 PUSH1 0xA0 SHL SUB AND CALLER EQ DUP1 PUSH2 0x2806 JUMPI POP PUSH1 0x11 SLOAD PUSH1 0x1 PUSH1 0x1 PUSH1 0xA0 SHL SUB AND CALLER EQ JUMPDEST PUSH2 0x2822 JUMPI PUSH1 0x40 MLOAD PUSH3 0x461BCD PUSH1 0xE5 SHL DUP2 MSTORE PUSH1 0x4 ADD PUSH2 0x939 SWAP1 PUSH2 0x37FE JUMP JUMPDEST PUSH1 0xA DUP1 SLOAD PUSH1 0xFF NOT AND SWAP2 ISZERO ISZERO SWAP2 SWAP1 SWAP2 OR SWAP1 SSTORE JUMP JUMPDEST PUSH1 0x0 SLOAD PUSH1 0x1 PUSH1 0x1 PUSH1 0xA0 SHL SUB AND CALLER EQ PUSH2 0x285F JUMPI PUSH1 0x40 MLOAD PUSH3 0x461BCD PUSH1 0xE5 SHL DUP2 MSTORE PUSH1 0x4 ADD PUSH2 0x939 SWAP1 PUSH2 0x390D JUMP JUMPDEST PUSH1 0x0 DUP1 SLOAD PUSH1 0x40 MLOAD PUSH1 0x1 PUSH1 0x1 PUSH1 0xA0 SHL SUB SWAP1 SWAP2 AND SWAP1 PUSH32 0x8BE0079C531659141344CD1FD0A4F28419497F9722A3DAAFE3B4186F6B6457E0 SWAP1 DUP4 SWAP1 LOG3 PUSH1 0x0 DUP1 SLOAD PUSH1 0x1 PUSH1 0x1 PUSH1 0xA0 SHL SUB NOT AND SWAP1 SSTORE JUMP JUMPDEST PUSH1 0x0 DUP2 DUP2 MSTORE PUSH1 0x3 PUSH1 0x20 MSTORE PUSH1 0x40 DUP1 DUP3 KECCAK256 PUSH1 0x7 DUP2 ADD DUP1 SLOAD PUSH2 0xFFFF PUSH1 0x60 SHL NOT AND PUSH1 0x1 PUSH1 0x68 SHL OR SWAP1 SSTORE SWAP1 MLOAD SWAP1 SWAP2 DUP4 SWAP2 PUSH32 0x2CB29A2EF221B0C3A14C1AD2F16E14EBD400AF83556F5592B6E2689539DAAFA2 SWAP2 SWAP1 LOG2 POP POP JUMP JUMPDEST PUSH1 0x0 DUP4 DUP2 MSTORE PUSH1 0x3 PUSH1 0x20 MSTORE PUSH1 0x40 SWAP1 KECCAK256 DUP4 DUP2 SSTORE PUSH1 0x7 DUP2 ADD DUP1 SLOAD PUSH4 0xFFFFFFFF NOT AND TIMESTAMP PUSH4 0xFFFFFFFF DUP2 AND SWAP2 SWAP1 SWAP2 OR SWAP1 SWAP2 SSTORE PUSH1 0x8 SLOAD PUSH2 0x2935 SWAP2 PUSH2 0x39F6 JUMP JUMPDEST PUSH1 0x7 DUP3 ADD DUP1 SLOAD PUSH4 0xFFFFFFFF SWAP3 SWAP1 SWAP3 AND PUSH1 0x1 PUSH1 0x20 SHL MUL PUSH8 0xFFFFFFFF00000000 NOT SWAP1 SWAP3 AND SWAP2 SWAP1 SWAP2 OR SWAP1 SSTORE PUSH1 0x8 SLOAD PUSH2 0x296B SWAP1 PUSH1 0x2 PUSH2 0x3B80 JUMP JUMPDEST PUSH2 0x2975 SWAP1 TIMESTAMP PUSH2 0x39F6 JUMP JUMPDEST DUP2 PUSH1 0x7 ADD PUSH1 0x8 PUSH2 0x100 EXP DUP2 SLOAD DUP2 PUSH4 0xFFFFFFFF MUL NOT AND SWAP1 DUP4 PUSH4 0xFFFFFFFF AND MUL OR SWAP1 SSTORE POP PUSH1 0x0 DUP4 GT DUP1 ISZERO PUSH2 0x29A7 JUMPI POP PUSH1 0x0 DUP3 GT JUMPDEST ISZERO PUSH2 0x29E1 JUMPI DUP3 DUP2 PUSH1 0x1 ADD PUSH1 0x0 DUP3 DUP3 SLOAD PUSH2 0x29C0 SWAP2 SWAP1 PUSH2 0x39F6 JUMP JUMPDEST SWAP3 POP POP DUP2 SWAP1 SSTORE POP DUP2 DUP2 PUSH1 0x2 ADD PUSH1 0x0 DUP3 DUP3 SLOAD PUSH2 0x29DB SWAP2 SWAP1 PUSH2 0x39F6 JUMP JUMPDEST SWAP1 SWAP2 SSTORE POP POP JUMPDEST PUSH1 0x40 MLOAD DUP5 SWAP1 PUSH32 0x33A701182892FD888ED152CA2AC23771A32E814469B7CD255965471E1AF3A659 SWAP1 PUSH1 0x0 SWAP1 LOG2 POP POP POP POP JUMP JUMPDEST PUSH1 0x0 DUP3 DUP2 MSTORE PUSH1 0x3 PUSH1 0x20 SWAP1 DUP2 MSTORE PUSH1 0x40 SWAP2 DUP3 SWAP1 KECCAK256 PUSH1 0x5 DUP2 ADD DUP5 SWAP1 SSTORE SWAP2 MLOAD DUP4 DUP2 MSTORE DUP5 SWAP2 PUSH32 0xED3D5364266A40B08BE3572A189B162355BEFF1B143E03774E5CD7C94F224035 SWAP2 ADD JUMPDEST PUSH1 0x40 MLOAD DUP1 SWAP2 SUB SWAP1 LOG2 POP POP POP JUMP JUMPDEST PUSH1 0x0 SLOAD PUSH1 0x1 PUSH1 0xA0 SHL SWAP1 DIV PUSH1 0xFF AND PUSH2 0x2AB3 JUMPI PUSH1 0x40 MLOAD PUSH3 0x461BCD PUSH1 0xE5 SHL DUP2 MSTORE PUSH1 0x20 PUSH1 0x4 DUP3 ADD MSTORE PUSH1 0x14 PUSH1 0x24 DUP3 ADD MSTORE PUSH20 0x14185D5CD8589B194E881B9BDD081C185D5CD959 PUSH1 0x62 SHL PUSH1 0x44 DUP3 ADD MSTORE PUSH1 0x64 ADD PUSH2 0x939 JUMP JUMPDEST PUSH1 0x0 DUP1 SLOAD PUSH1 0xFF PUSH1 0xA0 SHL NOT AND SWAP1 SSTORE JUMP JUMPDEST PUSH1 0x40 MLOAD PUSH1 0x1 PUSH1 0x1 PUSH1 0xA0 SHL SUB DUP4 AND SWAP1 DUP3 ISZERO PUSH2 0x8FC MUL SWAP1 DUP4 SWAP1 PUSH1 0x0 DUP2 DUP2 DUP2 DUP6 DUP9 DUP9 CALL SWAP4 POP POP POP POP ISZERO DUP1 ISZERO PUSH2 0x16FC JUMPI RETURNDATASIZE PUSH1 0x0 DUP1 RETURNDATACOPY RETURNDATASIZE PUSH1 0x0 REVERT JUMPDEST PUSH1 0x0 SLOAD PUSH1 0x1 PUSH1 0xA0 SHL SWAP1 DIV PUSH1 0xFF AND ISZERO PUSH2 0x2B22 JUMPI PUSH1 0x40 MLOAD PUSH3 0x461BCD PUSH1 0xE5 SHL DUP2 MSTORE PUSH1 0x4 ADD PUSH2 0x939 SWAP1 PUSH2 0x3835 JUMP JUMPDEST PUSH1 0x0 DUP1 SLOAD PUSH1 0xFF PUSH1 0xA0 SHL NOT AND PUSH1 0x1 PUSH1 0xA0 SHL OR SWAP1 SSTORE JUMP JUMPDEST PUSH1 0x0 DUP3 DUP2 MSTORE PUSH1 0x3 PUSH1 0x20 MSTORE PUSH1 0x40 SWAP1 DUP2 SWAP1 KECCAK256 PUSH1 0x6 DUP2 ADD DUP4 SWAP1 SSTORE PUSH1 0x7 DUP2 ADD DUP1 SLOAD PUSH1 0xFF PUSH1 0x60 SHL NOT AND PUSH1 0x1 PUSH1 0x60 SHL OR SWAP1 SSTORE SWAP1 MLOAD DUP4 SWAP1 PUSH32 0xDCE8257390BDFA785E27C9715109E4B503B3006D9F4EA2D1F689E77E8A41713E SWAP1 PUSH2 0x2A56 SWAP1 DUP6 DUP2 MSTORE PUSH1 0x20 ADD SWAP1 JUMP JUMPDEST PUSH1 0x0 DUP2 DUP2 MSTORE PUSH1 0x3 PUSH1 0x20 MSTORE PUSH1 0x40 DUP2 KECCAK256 PUSH1 0x2 DUP2 ADD SLOAD PUSH1 0x1 DUP3 ADD SLOAD SWAP2 SWAP3 SWAP2 DUP3 SWAP2 DUP3 SWAP2 PUSH2 0x2BBF SWAP2 SWAP1 PUSH2 0x39F6 JUMP JUMPDEST SWAP1 POP DUP4 PUSH1 0x5 ADD SLOAD DUP5 PUSH1 0x6 ADD SLOAD SGT ISZERO PUSH2 0x2BF9 JUMPI DUP4 PUSH1 0x1 ADD SLOAD SWAP3 POP PUSH1 0x64 PUSH1 0x7 SLOAD DUP3 PUSH2 0x2BE8 SWAP2 SWAP1 PUSH2 0x3B80 JUMP JUMPDEST PUSH2 0x2BF2 SWAP2 SWAP1 PUSH2 0x3B9F JUMP JUMPDEST SWAP2 POP PUSH2 0x2C2D JUMP JUMPDEST DUP4 PUSH1 0x5 ADD SLOAD DUP5 PUSH1 0x6 ADD SLOAD SLT ISZERO PUSH2 0x2C2D JUMPI DUP4 PUSH1 0x2 ADD SLOAD SWAP3 POP PUSH1 0x64 PUSH1 0x7 SLOAD DUP3 PUSH2 0x2C20 SWAP2 SWAP1 PUSH2 0x3B80 JUMP JUMPDEST PUSH2 0x2C2A SWAP2 SWAP1 PUSH2 0x3B9F JUMP JUMPDEST SWAP2 POP JUMPDEST POP PUSH1 0x3 DUP4 ADD SWAP2 SWAP1 SWAP2 SSTORE PUSH1 0x4 SWAP1 SWAP2 ADD SSTORE POP JUMP JUMPDEST PUSH1 0x0 DUP1 JUMPDEST DUP3 DUP2 LT ISZERO PUSH2 0x312E JUMPI PUSH2 0x2C6D DUP5 DUP5 DUP4 DUP2 DUP2 LT PUSH2 0x2C60 JUMPI PUSH2 0x2C60 PUSH2 0x3A0E JUMP JUMPDEST SWAP1 POP PUSH1 0x20 MUL ADD CALLDATALOAD CALLER PUSH2 0x1B92 JUMP JUMPDEST ISZERO PUSH2 0x2F5D JUMPI PUSH1 0x0 PUSH1 0x3 PUSH1 0x0 DUP7 DUP7 DUP6 DUP2 DUP2 LT PUSH2 0x2C8A JUMPI PUSH2 0x2C8A PUSH2 0x3A0E JUMP JUMPDEST PUSH1 0x20 SWAP1 DUP2 MUL SWAP3 SWAP1 SWAP3 ADD CALLDATALOAD DUP4 MSTORE POP DUP2 DUP2 ADD SWAP3 SWAP1 SWAP3 MSTORE PUSH1 0x40 SWAP1 DUP2 ADD PUSH1 0x0 KECCAK256 DUP2 MLOAD PUSH2 0x1A0 DUP2 ADD DUP4 MSTORE DUP2 SLOAD DUP2 MSTORE PUSH1 0x1 DUP3 ADD SLOAD DUP2 DUP6 ADD MSTORE PUSH1 0x2 DUP3 ADD SLOAD DUP2 DUP5 ADD MSTORE PUSH1 0x3 DUP3 ADD SLOAD PUSH1 0x60 DUP3 ADD MSTORE PUSH1 0x4 DUP3 ADD SLOAD PUSH1 0x80 DUP3 ADD MSTORE PUSH1 0x5 DUP3 ADD SLOAD PUSH1 0xA0 DUP3 ADD MSTORE PUSH1 0x6 DUP3 ADD SLOAD PUSH1 0xC0 DUP3 ADD MSTORE PUSH1 0x7 DUP3 ADD SLOAD PUSH4 0xFFFFFFFF DUP1 DUP3 AND PUSH1 0xE0 DUP5 ADD MSTORE PUSH1 0x1 PUSH1 0x20 SHL DUP3 DIV DUP2 AND PUSH2 0x100 DUP5 ADD MSTORE PUSH1 0x1 PUSH1 0x40 SHL DUP3 DIV AND PUSH2 0x120 DUP4 ADD MSTORE PUSH1 0xFF PUSH1 0x1 PUSH1 0x60 SHL DUP3 DIV DUP2 AND ISZERO ISZERO PUSH2 0x140 DUP5 ADD MSTORE PUSH1 0x1 PUSH1 0x68 SHL SWAP1 SWAP2 DIV AND ISZERO ISZERO PUSH2 0x160 DUP3 ADD MSTORE PUSH1 0x8 DUP3 ADD DUP1 SLOAD DUP5 MLOAD DUP2 DUP8 MUL DUP2 ADD DUP8 ADD SWAP1 SWAP6 MSTORE DUP1 DUP6 MSTORE SWAP2 SWAP5 SWAP3 SWAP4 PUSH2 0x180 DUP7 ADD SWAP4 SWAP1 SWAP3 SWAP1 DUP4 ADD DUP3 DUP3 DUP1 ISZERO PUSH2 0x2D9B JUMPI PUSH1 0x20 MUL DUP3 ADD SWAP2 SWAP1 PUSH1 0x0 MSTORE PUSH1 0x20 PUSH1 0x0 KECCAK256 SWAP1 JUMPDEST DUP2 SLOAD PUSH1 0x1 PUSH1 0x1 PUSH1 0xA0 SHL SUB AND DUP2 MSTORE PUSH1 0x1 SWAP1 SWAP2 ADD SWAP1 PUSH1 0x20 ADD DUP1 DUP4 GT PUSH2 0x2D7D JUMPI JUMPDEST POP POP POP POP POP DUP2 MSTORE POP POP SWAP1 POP PUSH1 0x0 DUP2 PUSH1 0x60 ADD MLOAD DUP3 PUSH1 0x80 ADD MLOAD PUSH1 0x4 PUSH1 0x0 DUP10 DUP10 DUP9 DUP2 DUP2 LT PUSH2 0x2DC8 JUMPI PUSH2 0x2DC8 PUSH2 0x3A0E JUMP JUMPDEST SWAP1 POP PUSH1 0x20 MUL ADD CALLDATALOAD DUP2 MSTORE PUSH1 0x20 ADD SWAP1 DUP2 MSTORE PUSH1 0x20 ADD PUSH1 0x0 KECCAK256 PUSH1 0x0 CALLER PUSH1 0x1 PUSH1 0x1 PUSH1 0xA0 SHL SUB AND PUSH1 0x1 PUSH1 0x1 PUSH1 0xA0 SHL SUB AND DUP2 MSTORE PUSH1 0x20 ADD SWAP1 DUP2 MSTORE PUSH1 0x20 ADD PUSH1 0x0 KECCAK256 PUSH1 0x3 ADD SLOAD PUSH2 0x2E0E SWAP2 SWAP1 PUSH2 0x3B80 JUMP JUMPDEST PUSH2 0x2E18 SWAP2 SWAP1 PUSH2 0x3B9F JUMP JUMPDEST SWAP1 POP PUSH1 0x1 PUSH1 0x4 PUSH1 0x0 DUP9 DUP9 DUP8 DUP2 DUP2 LT PUSH2 0x2E32 JUMPI PUSH2 0x2E32 PUSH2 0x3A0E JUMP JUMPDEST SWAP1 POP PUSH1 0x20 MUL ADD CALLDATALOAD DUP2 MSTORE PUSH1 0x20 ADD SWAP1 DUP2 MSTORE PUSH1 0x20 ADD PUSH1 0x0 KECCAK256 PUSH1 0x0 CALLER PUSH1 0x1 PUSH1 0x1 PUSH1 0xA0 SHL SUB AND PUSH1 0x1 PUSH1 0x1 PUSH1 0xA0 SHL SUB AND DUP2 MSTORE PUSH1 0x20 ADD SWAP1 DUP2 MSTORE PUSH1 0x20 ADD PUSH1 0x0 KECCAK256 PUSH1 0x4 ADD PUSH1 0x0 PUSH2 0x100 EXP DUP2 SLOAD DUP2 PUSH1 0xFF MUL NOT AND SWAP1 DUP4 ISZERO ISZERO MUL OR SWAP1 SSTORE POP TIMESTAMP PUSH1 0x4 PUSH1 0x0 DUP9 DUP9 DUP8 DUP2 DUP2 LT PUSH2 0x2E9B JUMPI PUSH2 0x2E9B PUSH2 0x3A0E JUMP JUMPDEST PUSH1 0x20 SWAP1 DUP2 MUL SWAP3 SWAP1 SWAP3 ADD CALLDATALOAD DUP4 MSTORE POP DUP2 DUP2 ADD SWAP3 SWAP1 SWAP3 MSTORE PUSH1 0x40 SWAP1 DUP2 ADD PUSH1 0x0 SWAP1 DUP2 KECCAK256 CALLER DUP3 MSTORE SWAP1 SWAP3 MSTORE SWAP1 KECCAK256 PUSH1 0x2 ADD SSTORE PUSH2 0x2ECF DUP2 DUP6 PUSH2 0x39F6 JUMP JUMPDEST PUSH1 0xF DUP1 SLOAD SWAP2 SWAP6 POP PUSH1 0x0 PUSH2 0x2EE1 DUP4 PUSH2 0x3875 JUMP JUMPDEST SWAP2 SWAP1 POP SSTORE POP DUP1 PUSH1 0x10 PUSH1 0x0 DUP3 DUP3 SLOAD PUSH2 0x2EF8 SWAP2 SWAP1 PUSH2 0x39F6 JUMP JUMPDEST SWAP1 SWAP2 SSTORE POP DUP7 SWAP1 POP DUP6 DUP5 DUP2 DUP2 LT PUSH2 0x2F10 JUMPI PUSH2 0x2F10 PUSH2 0x3A0E JUMP JUMPDEST SWAP1 POP PUSH1 0x20 MUL ADD CALLDATALOAD CALLER PUSH1 0x1 PUSH1 0x1 PUSH1 0xA0 SHL SUB AND PUSH32 0x987D620F307FF6B94D58743CB7A7509F24071586A77759B77C2D4E29F75A2F9A DUP4 PUSH1 0x40 MLOAD PUSH2 0x2F52 SWAP2 DUP2 MSTORE PUSH1 0x20 ADD SWAP1 JUMP JUMPDEST PUSH1 0x40 MLOAD DUP1 SWAP2 SUB SWAP1 LOG3 POP POP JUMPDEST PUSH2 0x2F7F DUP5 DUP5 DUP4 DUP2 DUP2 LT PUSH2 0x2F72 JUMPI PUSH2 0x2F72 PUSH2 0x3A0E JUMP JUMPDEST SWAP1 POP PUSH1 0x20 MUL ADD CALLDATALOAD CALLER PUSH2 0x1033 JUMP JUMPDEST ISZERO PUSH2 0x311C JUMPI PUSH1 0x0 PUSH1 0x4 PUSH1 0x0 DUP7 DUP7 DUP6 DUP2 DUP2 LT PUSH2 0x2F9C JUMPI PUSH2 0x2F9C PUSH2 0x3A0E JUMP JUMPDEST SWAP1 POP PUSH1 0x20 MUL ADD CALLDATALOAD DUP2 MSTORE PUSH1 0x20 ADD SWAP1 DUP2 MSTORE PUSH1 0x20 ADD PUSH1 0x0 KECCAK256 PUSH1 0x0 CALLER PUSH1 0x1 PUSH1 0x1 PUSH1 0xA0 SHL SUB AND PUSH1 0x1 PUSH1 0x1 PUSH1 0xA0 SHL SUB AND DUP2 MSTORE PUSH1 0x20 ADD SWAP1 DUP2 MSTORE PUSH1 0x20 ADD PUSH1 0x0 KECCAK256 PUSH1 0x3 ADD SLOAD SWAP1 POP PUSH1 0x1 PUSH1 0x4 PUSH1 0x0 DUP8 DUP8 DUP7 DUP2 DUP2 LT PUSH2 0x2FF2 JUMPI PUSH2 0x2FF2 PUSH2 0x3A0E JUMP JUMPDEST SWAP1 POP PUSH1 0x20 MUL ADD CALLDATALOAD DUP2 MSTORE PUSH1 0x20 ADD SWAP1 DUP2 MSTORE PUSH1 0x20 ADD PUSH1 0x0 KECCAK256 PUSH1 0x0 CALLER PUSH1 0x1 PUSH1 0x1 PUSH1 0xA0 SHL SUB AND PUSH1 0x1 PUSH1 0x1 PUSH1 0xA0 SHL SUB AND DUP2 MSTORE PUSH1 0x20 ADD SWAP1 DUP2 MSTORE PUSH1 0x20 ADD PUSH1 0x0 KECCAK256 PUSH1 0x4 ADD PUSH1 0x0 PUSH2 0x100 EXP DUP2 SLOAD DUP2 PUSH1 0xFF MUL NOT AND SWAP1 DUP4 ISZERO ISZERO MUL OR SWAP1 SSTORE POP TIMESTAMP PUSH1 0x4 PUSH1 0x0 DUP8 DUP8 DUP7 DUP2 DUP2 LT PUSH2 0x305B JUMPI PUSH2 0x305B PUSH2 0x3A0E JUMP JUMPDEST PUSH1 0x20 SWAP1 DUP2 MUL SWAP3 SWAP1 SWAP3 ADD CALLDATALOAD DUP4 MSTORE POP DUP2 DUP2 ADD SWAP3 SWAP1 SWAP3 MSTORE PUSH1 0x40 SWAP1 DUP2 ADD PUSH1 0x0 SWAP1 DUP2 KECCAK256 CALLER DUP3 MSTORE SWAP1 SWAP3 MSTORE SWAP1 KECCAK256 PUSH1 0x2 ADD SSTORE PUSH2 0x308F DUP2 DUP5 PUSH2 0x39F6 JUMP JUMPDEST PUSH1 0xF DUP1 SLOAD SWAP2 SWAP5 POP PUSH1 0x0 PUSH2 0x30A1 DUP4 PUSH2 0x3875 JUMP JUMPDEST SWAP2 SWAP1 POP SSTORE POP DUP1 PUSH1 0x10 PUSH1 0x0 DUP3 DUP3 SLOAD PUSH2 0x30B8 SWAP2 SWAP1 PUSH2 0x39F6 JUMP JUMPDEST SWAP1 SWAP2 SSTORE POP DUP6 SWAP1 POP DUP5 DUP4 DUP2 DUP2 LT PUSH2 0x30D0 JUMPI PUSH2 0x30D0 PUSH2 0x3A0E JUMP JUMPDEST SWAP1 POP PUSH1 0x20 MUL ADD CALLDATALOAD CALLER PUSH1 0x1 PUSH1 0x1 PUSH1 0xA0 SHL SUB AND PUSH32 0x2DC8E290002F06FC0085BBCA9DFB8B415CF4D1178950C72FF9EE8F4D8878EE66 DUP4 PUSH1 0x40 MLOAD PUSH2 0x3112 SWAP2 DUP2 MSTORE PUSH1 0x20 ADD SWAP1 JUMP JUMPDEST PUSH1 0x40 MLOAD DUP1 SWAP2 SUB SWAP1 LOG3 POP JUMPDEST DUP1 PUSH2 0x3126 DUP2 PUSH2 0x3875 JUMP JUMPDEST SWAP2 POP POP PUSH2 0x2C43 JUMP JUMPDEST POP PUSH1 0x0 DUP2 GT PUSH2 0x319A JUMPI PUSH1 0x40 MLOAD PUSH3 0x461BCD PUSH1 0xE5 SHL DUP2 MSTORE PUSH1 0x20 PUSH1 0x4 DUP3 ADD MSTORE PUSH1 0x32 PUSH1 0x24 DUP3 ADD MSTORE PUSH32 0x4E6F7420666F756E6420616E7920656C696769626C6520726577617264206F72 PUSH1 0x44 DUP3 ADD MSTORE PUSH18 0x20726566756E647320666F7220636C61696D PUSH1 0x70 SHL PUSH1 0x64 DUP3 ADD MSTORE PUSH1 0x84 ADD PUSH2 0x939 JUMP JUMPDEST DUP1 ISZERO PUSH2 0x16FC JUMPI PUSH2 0x16FC CALLER DUP3 PUSH2 0x2AC2 JUMP JUMPDEST PUSH1 0x0 DUP2 DUP2 MSTORE PUSH1 0x3 PUSH1 0x20 MSTORE PUSH1 0x40 DUP2 KECCAK256 PUSH1 0x7 ADD SLOAD PUSH4 0xFFFFFFFF AND ISZERO DUP1 ISZERO SWAP1 PUSH2 0x31ED JUMPI POP PUSH1 0x0 DUP3 DUP2 MSTORE PUSH1 0x3 PUSH1 0x20 MSTORE PUSH1 0x40 SWAP1 KECCAK256 PUSH1 0x7 ADD SLOAD PUSH1 0x1 PUSH1 0x20 SHL SWAP1 DIV PUSH4 0xFFFFFFFF AND ISZERO ISZERO JUMPDEST DUP1 ISZERO PUSH2 0x320F JUMPI POP PUSH1 0x0 DUP3 DUP2 MSTORE PUSH1 0x3 PUSH1 0x20 MSTORE PUSH1 0x40 SWAP1 KECCAK256 PUSH1 0x7 ADD SLOAD PUSH4 0xFFFFFFFF AND TIMESTAMP GT JUMPDEST DUP1 ISZERO PUSH2 0x12B1 JUMPI POP POP PUSH1 0x0 SWAP1 DUP2 MSTORE PUSH1 0x3 PUSH1 0x20 MSTORE PUSH1 0x40 SWAP1 KECCAK256 PUSH1 0x7 ADD SLOAD PUSH1 0x1 PUSH1 0x20 SHL SWAP1 DIV PUSH4 0xFFFFFFFF AND TIMESTAMP LT SWAP1 JUMP JUMPDEST PUSH1 0x0 PUSH1 0x20 DUP3 DUP5 SUB SLT ISZERO PUSH2 0x324D JUMPI PUSH1 0x0 DUP1 REVERT JUMPDEST POP CALLDATALOAD SWAP2 SWAP1 POP JUMP JUMPDEST PUSH1 0x0 PUSH1 0x20 DUP1 DUP4 MSTORE DUP4 MLOAD DUP1 DUP3 DUP6 ADD MSTORE PUSH1 0x0 JUMPDEST DUP2 DUP2 LT ISZERO PUSH2 0x3281 JUMPI DUP6 DUP2 ADD DUP4 ADD MLOAD DUP6 DUP3 ADD PUSH1 0x40 ADD MSTORE DUP3 ADD PUSH2 0x3265 JUMP JUMPDEST DUP2 DUP2 GT ISZERO PUSH2 0x3293 JUMPI PUSH1 0x0 PUSH1 0x40 DUP4 DUP8 ADD ADD MSTORE JUMPDEST POP PUSH1 0x1F ADD PUSH1 0x1F NOT AND SWAP3 SWAP1 SWAP3 ADD PUSH1 0x40 ADD SWAP4 SWAP3 POP POP POP JUMP JUMPDEST PUSH1 0x1 PUSH1 0x1 PUSH1 0xA0 SHL SUB DUP2 AND DUP2 EQ PUSH2 0x94B JUMPI PUSH1 0x0 DUP1 REVERT JUMPDEST PUSH1 0x0 PUSH1 0x20 DUP3 DUP5 SUB SLT ISZERO PUSH2 0x32D0 JUMPI PUSH1 0x0 DUP1 REVERT JUMPDEST DUP2 CALLDATALOAD PUSH2 0x32DB DUP2 PUSH2 0x32A9 JUMP JUMPDEST SWAP4 SWAP3 POP POP POP JUMP JUMPDEST PUSH1 0x0 DUP1 PUSH1 0x40 DUP4 DUP6 SUB SLT ISZERO PUSH2 0x32F5 JUMPI PUSH1 0x0 DUP1 REVERT JUMPDEST DUP3 CALLDATALOAD SWAP2 POP PUSH1 0x20 DUP4 ADD CALLDATALOAD PUSH2 0x3307 DUP2 PUSH2 0x32A9 JUMP JUMPDEST DUP1 SWAP2 POP POP SWAP3 POP SWAP3 SWAP1 POP JUMP JUMPDEST PUSH4 0x4E487B71 PUSH1 0xE0 SHL PUSH1 0x0 MSTORE PUSH1 0x21 PUSH1 0x4 MSTORE PUSH1 0x24 PUSH1 0x0 REVERT JUMPDEST PUSH1 0x2 DUP2 LT PUSH2 0x3346 JUMPI PUSH4 0x4E487B71 PUSH1 0xE0 SHL PUSH1 0x0 MSTORE PUSH1 0x21 PUSH1 0x4 MSTORE PUSH1 0x24 PUSH1 0x0 REVERT JUMPDEST SWAP1 MSTORE JUMP JUMPDEST PUSH1 0xA0 DUP2 ADD PUSH2 0x3358 DUP3 DUP9 PUSH2 0x3328 JUMP JUMPDEST DUP6 PUSH1 0x20 DUP4 ADD MSTORE DUP5 PUSH1 0x40 DUP4 ADD MSTORE DUP4 PUSH1 0x60 DUP4 ADD MSTORE DUP3 ISZERO ISZERO PUSH1 0x80 DUP4 ADD MSTORE SWAP7 SWAP6 POP POP POP POP POP POP JUMP JUMPDEST PUSH1 0x20 DUP1 DUP3 MSTORE DUP3 MLOAD DUP3 DUP3 ADD DUP2 SWAP1 MSTORE PUSH1 0x0 SWAP2 SWAP1 DUP5 DUP3 ADD SWAP1 PUSH1 0x40 DUP6 ADD SWAP1 DUP5 JUMPDEST DUP2 DUP2 LT ISZERO PUSH2 0x33BD JUMPI DUP4 MLOAD PUSH1 0x1 PUSH1 0x1 PUSH1 0xA0 SHL SUB AND DUP4 MSTORE SWAP3 DUP5 ADD SWAP3 SWAP2 DUP5 ADD SWAP2 PUSH1 0x1 ADD PUSH2 0x3398 JUMP JUMPDEST POP SWAP1 SWAP7 SWAP6 POP POP POP POP POP POP JUMP JUMPDEST PUSH1 0x0 DUP1 PUSH1 0x0 PUSH1 0x60 DUP5 DUP7 SUB SLT ISZERO PUSH2 0x33DE JUMPI PUSH1 0x0 DUP1 REVERT JUMPDEST POP POP DUP2 CALLDATALOAD SWAP4 PUSH1 0x20 DUP4 ADD CALLDATALOAD SWAP4 POP PUSH1 0x40 SWAP1 SWAP3 ADD CALLDATALOAD SWAP2 SWAP1 POP JUMP JUMPDEST PUSH1 0x0 DUP2 MLOAD DUP1 DUP5 MSTORE PUSH1 0x20 DUP1 DUP6 ADD SWAP5 POP DUP1 DUP5 ADD PUSH1 0x0 JUMPDEST DUP4 DUP2 LT ISZERO PUSH2 0x342E JUMPI DUP2 MLOAD PUSH1 0x1 PUSH1 0x1 PUSH1 0xA0 SHL SUB AND DUP8 MSTORE SWAP6 DUP3 ADD SWAP6 SWAP1 DUP3 ADD SWAP1 PUSH1 0x1 ADD PUSH2 0x3409 JUMP JUMPDEST POP SWAP5 SWAP6 SWAP5 POP POP POP POP POP JUMP JUMPDEST PUSH1 0x20 DUP2 MSTORE DUP2 MLOAD PUSH1 0x20 DUP3 ADD MSTORE PUSH1 0x20 DUP3 ADD MLOAD PUSH1 0x40 DUP3 ADD MSTORE PUSH1 0x40 DUP3 ADD MLOAD PUSH1 0x60 DUP3 ADD MSTORE PUSH1 0x60 DUP3 ADD MLOAD PUSH1 0x80 DUP3 ADD MSTORE PUSH1 0x80 DUP3 ADD MLOAD PUSH1 0xA0 DUP3 ADD MSTORE PUSH1 0xA0 DUP3 ADD MLOAD PUSH1 0xC0 DUP3 ADD MSTORE PUSH1 0xC0 DUP3 ADD MLOAD PUSH1 0xE0 DUP3 ADD MSTORE PUSH1 0x0 PUSH1 0xE0 DUP4 ADD MLOAD PUSH2 0x100 PUSH2 0x349B DUP2 DUP6 ADD DUP4 PUSH4 0xFFFFFFFF AND SWAP1 MSTORE JUMP JUMPDEST DUP5 ADD MLOAD SWAP1 POP PUSH2 0x120 PUSH2 0x34B4 DUP5 DUP3 ADD DUP4 PUSH4 0xFFFFFFFF AND SWAP1 MSTORE JUMP JUMPDEST DUP5 ADD MLOAD SWAP1 POP PUSH2 0x140 PUSH2 0x34CD DUP5 DUP3 ADD DUP4 PUSH4 0xFFFFFFFF AND SWAP1 MSTORE JUMP JUMPDEST DUP5 ADD MLOAD SWAP1 POP PUSH2 0x160 PUSH2 0x34E2 DUP5 DUP3 ADD DUP4 ISZERO ISZERO SWAP1 MSTORE JUMP JUMPDEST DUP5 ADD MLOAD SWAP1 POP PUSH2 0x180 PUSH2 0x34F7 DUP5 DUP3 ADD DUP4 ISZERO ISZERO SWAP1 MSTORE JUMP JUMPDEST DUP5 ADD MLOAD PUSH2 0x1A0 DUP5 DUP2 ADD MSTORE SWAP1 POP PUSH2 0x3511 PUSH2 0x1C0 DUP5 ADD DUP3 PUSH2 0x33F5 JUMP JUMPDEST SWAP5 SWAP4 POP POP POP POP JUMP JUMPDEST PUSH1 0x0 DUP1 DUP4 PUSH1 0x1F DUP5 ADD SLT PUSH2 0x352B JUMPI PUSH1 0x0 DUP1 REVERT JUMPDEST POP DUP2 CALLDATALOAD PUSH8 0xFFFFFFFFFFFFFFFF DUP2 GT ISZERO PUSH2 0x3543 JUMPI PUSH1 0x0 DUP1 REVERT JUMPDEST PUSH1 0x20 DUP4 ADD SWAP2 POP DUP4 PUSH1 0x20 DUP3 PUSH1 0x5 SHL DUP6 ADD ADD GT ISZERO PUSH2 0x355E JUMPI PUSH1 0x0 DUP1 REVERT JUMPDEST SWAP3 POP SWAP3 SWAP1 POP JUMP JUMPDEST PUSH1 0x0 DUP1 PUSH1 0x20 DUP4 DUP6 SUB SLT ISZERO PUSH2 0x3578 JUMPI PUSH1 0x0 DUP1 REVERT JUMPDEST DUP3 CALLDATALOAD PUSH8 0xFFFFFFFFFFFFFFFF DUP2 GT ISZERO PUSH2 0x358F JUMPI PUSH1 0x0 DUP1 REVERT JUMPDEST PUSH2 0x359B DUP6 DUP3 DUP7 ADD PUSH2 0x3519 JUMP JUMPDEST SWAP1 SWAP7 SWAP1 SWAP6 POP SWAP4 POP POP POP POP JUMP JUMPDEST PUSH1 0x0 DUP1 PUSH1 0x0 PUSH1 0x60 DUP5 DUP7 SUB SLT ISZERO PUSH2 0x35BC JUMPI PUSH1 0x0 DUP1 REVERT JUMPDEST DUP4 CALLDATALOAD PUSH2 0x35C7 DUP2 PUSH2 0x32A9 JUMP JUMPDEST SWAP6 PUSH1 0x20 DUP6 ADD CALLDATALOAD SWAP6 POP PUSH1 0x40 SWAP1 SWAP5 ADD CALLDATALOAD SWAP4 SWAP3 POP POP POP JUMP JUMPDEST PUSH1 0x60 DUP1 DUP3 MSTORE DUP5 MLOAD DUP3 DUP3 ADD DUP2 SWAP1 MSTORE PUSH1 0x0 SWAP2 SWAP1 PUSH1 0x80 SWAP1 DUP2 DUP6 ADD SWAP1 PUSH1 0x20 DUP1 DUP11 ADD DUP7 JUMPDEST DUP4 DUP2 LT ISZERO PUSH2 0x3617 JUMPI DUP2 MLOAD DUP6 MSTORE SWAP4 DUP3 ADD SWAP4 SWAP1 DUP3 ADD SWAP1 PUSH1 0x1 ADD PUSH2 0x35FB JUMP JUMPDEST POP POP DUP7 DUP4 SUB DUP2 DUP9 ADD MSTORE DUP9 MLOAD DUP1 DUP5 MSTORE DUP10 DUP3 ADD SWAP4 DUP3 ADD SWAP3 POP PUSH1 0x0 JUMPDEST DUP2 DUP2 LT ISZERO PUSH2 0x367A JUMPI DUP5 MLOAD PUSH2 0x3645 DUP6 DUP3 MLOAD PUSH2 0x3328 JUMP JUMPDEST DUP1 DUP5 ADD MLOAD DUP6 DUP6 ADD MSTORE PUSH1 0x40 DUP1 DUP3 ADD MLOAD SWAP1 DUP7 ADD MSTORE DUP8 DUP2 ADD MLOAD DUP9 DUP7 ADD MSTORE DUP7 ADD MLOAD ISZERO ISZERO DUP7 DUP6 ADD MSTORE SWAP4 DUP3 ADD SWAP4 PUSH1 0xA0 SWAP1 SWAP4 ADD SWAP3 PUSH1 0x1 ADD PUSH2 0x3630 JUMP JUMPDEST POP POP POP DUP1 SWAP5 POP POP POP POP POP DUP3 PUSH1 0x40 DUP4 ADD MSTORE SWAP5 SWAP4 POP POP POP POP JUMP JUMPDEST PUSH1 0x0 DUP1 PUSH1 0x40 DUP4 DUP6 SUB SLT ISZERO PUSH2 0x36A5 JUMPI PUSH1 0x0 DUP1 REVERT JUMPDEST DUP3 CALLDATALOAD PUSH2 0x36B0 DUP2 PUSH2 0x32A9 JUMP JUMPDEST SWAP5 PUSH1 0x20 SWAP4 SWAP1 SWAP4 ADD CALLDATALOAD SWAP4 POP POP POP JUMP JUMPDEST PUSH1 0x0 DUP1 PUSH1 0x0 PUSH1 0x40 DUP5 DUP7 SUB SLT ISZERO PUSH2 0x36D3 JUMPI PUSH1 0x0 DUP1 REVERT JUMPDEST DUP4 CALLDATALOAD PUSH8 0xFFFFFFFFFFFFFFFF DUP2 GT ISZERO PUSH2 0x36EA JUMPI PUSH1 0x0 DUP1 REVERT JUMPDEST PUSH2 0x36F6 DUP7 DUP3 DUP8 ADD PUSH2 0x3519 JUMP JUMPDEST SWAP1 SWAP5 POP SWAP3 POP POP PUSH1 0x20 DUP5 ADD CALLDATALOAD PUSH2 0x370A DUP2 PUSH2 0x32A9 JUMP JUMPDEST DUP1 SWAP2 POP POP SWAP3 POP SWAP3 POP SWAP3 JUMP JUMPDEST PUSH4 0x4E487B71 PUSH1 0xE0 SHL PUSH1 0x0 MSTORE PUSH1 0x41 PUSH1 0x4 MSTORE PUSH1 0x24 PUSH1 0x0 REVERT JUMPDEST PUSH1 0x0 PUSH1 0x20 DUP3 DUP5 SUB SLT ISZERO PUSH2 0x373D JUMPI PUSH1 0x0 DUP1 REVERT JUMPDEST DUP2 CALLDATALOAD PUSH8 0xFFFFFFFFFFFFFFFF DUP1 DUP3 GT ISZERO PUSH2 0x3755 JUMPI PUSH1 0x0 DUP1 REVERT JUMPDEST DUP2 DUP5 ADD SWAP2 POP DUP5 PUSH1 0x1F DUP4 ADD SLT PUSH2 0x3769 JUMPI PUSH1 0x0 DUP1 REVERT JUMPDEST DUP2 CALLDATALOAD DUP2 DUP2 GT ISZERO PUSH2 0x377B JUMPI PUSH2 0x377B PUSH2 0x3715 JUMP JUMPDEST PUSH1 0x40 MLOAD PUSH1 0x1F DUP3 ADD PUSH1 0x1F NOT SWAP1 DUP2 AND PUSH1 0x3F ADD AND DUP2 ADD SWAP1 DUP4 DUP3 GT DUP2 DUP4 LT OR ISZERO PUSH2 0x37A3 JUMPI PUSH2 0x37A3 PUSH2 0x3715 JUMP JUMPDEST DUP2 PUSH1 0x40 MSTORE DUP3 DUP2 MSTORE DUP8 PUSH1 0x20 DUP5 DUP8 ADD ADD GT ISZERO PUSH2 0x37BC JUMPI PUSH1 0x0 DUP1 REVERT JUMPDEST DUP3 PUSH1 0x20 DUP7 ADD PUSH1 0x20 DUP4 ADD CALLDATACOPY PUSH1 0x0 SWAP3 DUP2 ADD PUSH1 0x20 ADD SWAP3 SWAP1 SWAP3 MSTORE POP SWAP6 SWAP5 POP POP POP POP POP JUMP JUMPDEST PUSH1 0x0 PUSH1 0x20 DUP3 DUP5 SUB SLT ISZERO PUSH2 0x37EE JUMPI PUSH1 0x0 DUP1 REVERT JUMPDEST DUP2 CALLDATALOAD DUP1 ISZERO ISZERO DUP2 EQ PUSH2 0x32DB JUMPI PUSH1 0x0 DUP1 REVERT JUMPDEST PUSH1 0x20 DUP1 DUP3 MSTORE PUSH1 0x1F SWAP1 DUP3 ADD MSTORE PUSH32 0x43616C6C6572206973206E6F74206F776E6572206F72206F70657261746F7200 PUSH1 0x40 DUP3 ADD MSTORE PUSH1 0x60 ADD SWAP1 JUMP JUMPDEST PUSH1 0x20 DUP1 DUP3 MSTORE PUSH1 0x10 SWAP1 DUP3 ADD MSTORE PUSH16 0x14185D5CD8589B194E881C185D5CD959 PUSH1 0x82 SHL PUSH1 0x40 DUP3 ADD MSTORE PUSH1 0x60 ADD SWAP1 JUMP JUMPDEST PUSH4 0x4E487B71 PUSH1 0xE0 SHL PUSH1 0x0 MSTORE PUSH1 0x11 PUSH1 0x4 MSTORE PUSH1 0x24 PUSH1 0x0 REVERT JUMPDEST PUSH1 0x0 PUSH1 0x1 DUP3 ADD PUSH2 0x3887 JUMPI PUSH2 0x3887 PUSH2 0x385F JUMP JUMPDEST POP PUSH1 0x1 ADD SWAP1 JUMP JUMPDEST PUSH1 0x1 DUP2 DUP2 SHR SWAP1 DUP3 AND DUP1 PUSH2 0x38A2 JUMPI PUSH1 0x7F DUP3 AND SWAP2 POP JUMPDEST PUSH1 0x20 DUP3 LT DUP2 SUB PUSH2 0x38C2 JUMPI PUSH4 0x4E487B71 PUSH1 0xE0 SHL PUSH1 0x0 MSTORE PUSH1 0x22 PUSH1 0x4 MSTORE PUSH1 0x24 PUSH1 0x0 REVERT JUMPDEST POP SWAP2 SWAP1 POP JUMP JUMPDEST PUSH1 0x0 PUSH1 0x20 DUP3 DUP5 SUB SLT ISZERO PUSH2 0x38DA JUMPI PUSH1 0x0 DUP1 REVERT JUMPDEST DUP2 MLOAD PUSH2 0x32DB DUP2 PUSH2 0x32A9 JUMP JUMPDEST PUSH1 0x0 PUSH4 0xFFFFFFFF DUP1 DUP4 AND DUP2 DUP6 AND DUP1 DUP4 SUB DUP3 GT ISZERO PUSH2 0x3904 JUMPI PUSH2 0x3904 PUSH2 0x385F JUMP JUMPDEST ADD SWAP5 SWAP4 POP POP POP POP JUMP JUMPDEST PUSH1 0x20 DUP1 DUP3 MSTORE DUP2 DUP2 ADD MSTORE PUSH32 0x4F776E61626C653A2063616C6C6572206973206E6F7420746865206F776E6572 PUSH1 0x40 DUP3 ADD MSTORE PUSH1 0x60 ADD SWAP1 JUMP JUMPDEST PUSH1 0x0 DUP3 DUP3 LT ISZERO PUSH2 0x3954 JUMPI PUSH2 0x3954 PUSH2 0x385F JUMP JUMPDEST POP SUB SWAP1 JUMP JUMPDEST PUSH1 0x20 DUP1 DUP3 MSTORE PUSH1 0x1F SWAP1 DUP3 ADD MSTORE PUSH32 0x5265656E7472616E637947756172643A207265656E7472616E742063616C6C00 PUSH1 0x40 DUP3 ADD MSTORE PUSH1 0x60 ADD SWAP1 JUMP JUMPDEST PUSH1 0x20 DUP1 DUP3 MSTORE PUSH1 0x15 SWAP1 DUP3 ADD MSTORE PUSH21 0x10DBDB9D1C9858DD1CC81B9BDD08185B1B1BDDD959 PUSH1 0x5A SHL PUSH1 0x40 DUP3 ADD MSTORE PUSH1 0x60 ADD SWAP1 JUMP JUMPDEST PUSH1 0x20 DUP1 DUP3 MSTORE PUSH1 0x1B SWAP1 DUP3 ADD MSTORE PUSH32 0x50726F787920636F6E747261637473206E6F7420616C6C6F7765640000000000 PUSH1 0x40 DUP3 ADD MSTORE PUSH1 0x60 ADD SWAP1 JUMP JUMPDEST PUSH1 0x0 DUP3 NOT DUP3 GT ISZERO PUSH2 0x3A09 JUMPI PUSH2 0x3A09 PUSH2 0x385F JUMP JUMPDEST POP ADD SWAP1 JUMP JUMPDEST PUSH4 0x4E487B71 PUSH1 0xE0 SHL PUSH1 0x0 MSTORE PUSH1 0x32 PUSH1 0x4 MSTORE PUSH1 0x24 PUSH1 0x0 REVERT JUMPDEST PUSH1 0x20 DUP1 DUP3 MSTORE PUSH1 0x2E SWAP1 DUP3 ADD MSTORE PUSH32 0x42657420616D6F756E74206D7573742062652067726561746572207468616E20 PUSH1 0x40 DUP3 ADD MSTORE PUSH14 0x1B5A5B9A5B5D5B48185B5BDD5B9D PUSH1 0x92 SHL PUSH1 0x60 DUP3 ADD MSTORE PUSH1 0x80 ADD SWAP1 JUMP JUMPDEST PUSH1 0x1F DUP3 GT ISZERO PUSH2 0x16FC JUMPI PUSH1 0x0 DUP2 DUP2 MSTORE PUSH1 0x20 DUP2 KECCAK256 PUSH1 0x1F DUP6 ADD PUSH1 0x5 SHR DUP2 ADD PUSH1 0x20 DUP7 LT ISZERO PUSH2 0x3A99 JUMPI POP DUP1 JUMPDEST PUSH1 0x1F DUP6 ADD PUSH1 0x5 SHR DUP3 ADD SWAP2 POP JUMPDEST DUP2 DUP2 LT ISZERO PUSH2 0x3AB8 JUMPI DUP3 DUP2 SSTORE PUSH1 0x1 ADD PUSH2 0x3AA5 JUMP JUMPDEST POP POP POP POP POP POP JUMP JUMPDEST DUP2 MLOAD PUSH8 0xFFFFFFFFFFFFFFFF DUP2 GT ISZERO PUSH2 0x3ADA JUMPI PUSH2 0x3ADA PUSH2 0x3715 JUMP JUMPDEST PUSH2 0x3AEE DUP2 PUSH2 0x3AE8 DUP5 SLOAD PUSH2 0x388E JUMP JUMPDEST DUP5 PUSH2 0x3A72 JUMP JUMPDEST PUSH1 0x20 DUP1 PUSH1 0x1F DUP4 GT PUSH1 0x1 DUP2 EQ PUSH2 0x3B23 JUMPI PUSH1 0x0 DUP5 ISZERO PUSH2 0x3B0B JUMPI POP DUP6 DUP4 ADD MLOAD JUMPDEST PUSH1 0x0 NOT PUSH1 0x3 DUP7 SWAP1 SHL SHR NOT AND PUSH1 0x1 DUP6 SWAP1 SHL OR DUP6 SSTORE PUSH2 0x3AB8 JUMP JUMPDEST PUSH1 0x0 DUP6 DUP2 MSTORE PUSH1 0x20 DUP2 KECCAK256 PUSH1 0x1F NOT DUP7 AND SWAP2 JUMPDEST DUP3 DUP2 LT ISZERO PUSH2 0x3B52 JUMPI DUP9 DUP7 ADD MLOAD DUP3 SSTORE SWAP5 DUP5 ADD SWAP5 PUSH1 0x1 SWAP1 SWAP2 ADD SWAP1 DUP5 ADD PUSH2 0x3B33 JUMP JUMPDEST POP DUP6 DUP3 LT ISZERO PUSH2 0x3B70 JUMPI DUP8 DUP6 ADD MLOAD PUSH1 0x0 NOT PUSH1 0x3 DUP9 SWAP1 SHL PUSH1 0xF8 AND SHR NOT AND DUP2 SSTORE JUMPDEST POP POP POP POP POP PUSH1 0x1 SWAP1 DUP2 SHL ADD SWAP1 SSTORE POP JUMP JUMPDEST PUSH1 0x0 DUP2 PUSH1 0x0 NOT DIV DUP4 GT DUP3 ISZERO ISZERO AND ISZERO PUSH2 0x3B9A JUMPI PUSH2 0x3B9A PUSH2 0x385F JUMP JUMPDEST POP MUL SWAP1 JUMP JUMPDEST PUSH1 0x0 DUP3 PUSH2 0x3BBC JUMPI PUSH4 0x4E487B71 PUSH1 0xE0 SHL PUSH1 0x0 MSTORE PUSH1 0x12 PUSH1 0x4 MSTORE PUSH1 0x24 PUSH1 0x0 REVERT JUMPDEST POP DIV SWAP1 JUMP INVALID LOG2 PUSH5 0x6970667358 0x22 SLT KECCAK256 0xEF PUSH23 0xDFB0BE05C68041F4C904F69FA02A5026E0E4B2FEC128F8 0xC6 MSTORE8 0xF DUP3 0xED 0xCA 0xAB PUSH5 0x736F6C6343 STOP ADDMOD 0xF STOP CALLER "},"methodIdentifiers":{"BetBear(uint256)":"bd776d8a","BetBull(uint256)":"bb434f28","Bets(uint256,address)":"3977b381","Claim(uint256[])":"8f9fa51b","ClaimReferred(uint256[],address)":"dd574ce6","FeedOperator(uint256)":"5b75c276","FundsExtract(uint256)":"8df3f826","FundsInject()":"83d2f5a0","OwnershipRenounce()":"fd5bab23","OwnershipTransfer(address)":"dfc39691","Pause()":"6985a022","Resume()":"490d6d11","RoundCancel(uint256)":"00e85590","RoundExecute(int256,uint256,uint256)":"8dfc6816","RoundLock(int256)":"31c5d137","RoundStart()":"1f713cae","Rounds(uint256)":"d5df9d23","SetMinBetAmount(uint256)":"48894f0d","SetOperator(address)":"dbebfba6","SetPriceSource(string)":"eef4eeae","SetReferralsContract(address)":"e20a66d0","SetReferralsRate(uint256)":"168f5300","SetRewardRate(uint256)":"1946fb78","SetRoundDuration(uint256)":"36f56ba0","SetShowPlayers(bool)":"f3c729be","UserBets(address,uint256)":"cf48098e","claimable(uint256,address)":"a0c7f71c","currentEpoch()":"76671808","getRound(uint256)":"8f1327c0","getRoundPlayers(uint256)":"776e11dd","getStats()":"c59d4847","getUserRounds(address,uint256,uint256)":"951fd600","getUserRoundsLength(address)":"273867d4","lockOnce()":"6a42c87b","minBetAmount()":"fa968eea","owner()":"8da5cb5b","paused()":"5c975abb","priceSource()":"20531bc9","referralRate()":"a053ce1f","refundable(uint256,address)":"7bf41254","rewardRate()":"7b0a47ee","roundDuration()":"f7cb789a","startOnce()":"381a5478"}}}}}