{
  "_format": "hh-sol-artifact-1",
  "contractName": "Genesis",
  "sourceName": "src/contracts/Genesis.sol",
  "abi": [
    {
      "inputs": [
        {
          "internalType": "uint256",
          "name": "_projectTax",
          "type": "uint256"
        }
      ],
      "stateMutability": "nonpayable",
      "type": "constructor"
    },
    {
      "anonymous": false,
      "inputs": [
        {
          "indexed": false,
          "internalType": "uint256",
          "name": "id",
          "type": "uint256"
        },
        {
          "indexed": false,
          "internalType": "string",
          "name": "actionType",
          "type": "string"
        },
        {
          "indexed": true,
          "internalType": "address",
          "name": "executor",
          "type": "address"
        },
        {
          "indexed": false,
          "internalType": "uint256",
          "name": "timestamp",
          "type": "uint256"
        }
      ],
      "name": "Action",
      "type": "event"
    },
    {
      "inputs": [
        {
          "internalType": "uint256",
          "name": "id",
          "type": "uint256"
        }
      ],
      "name": "backProject",
      "outputs": [
        {
          "internalType": "bool",
          "name": "",
          "type": "bool"
        }
      ],
      "stateMutability": "payable",
      "type": "function"
    },
    {
      "inputs": [],
      "name": "balance",
      "outputs": [
        {
          "internalType": "uint256",
          "name": "",
          "type": "uint256"
        }
      ],
      "stateMutability": "view",
      "type": "function"
    },
    {
      "inputs": [
        {
          "internalType": "uint256",
          "name": "_taxPct",
          "type": "uint256"
        }
      ],
      "name": "changeTax",
      "outputs": [],
      "stateMutability": "nonpayable",
      "type": "function"
    },
    {
      "inputs": [
        {
          "internalType": "string",
          "name": "title",
          "type": "string"
        },
        {
          "internalType": "string",
          "name": "description",
          "type": "string"
        },
        {
          "internalType": "string",
          "name": "imageURL",
          "type": "string"
        },
        {
          "internalType": "uint256",
          "name": "cost",
          "type": "uint256"
        },
        {
          "internalType": "uint256",
          "name": "expiresAt",
          "type": "uint256"
        }
      ],
      "name": "createProject",
      "outputs": [
        {
          "internalType": "bool",
          "name": "",
          "type": "bool"
        }
      ],
      "stateMutability": "nonpayable",
      "type": "function"
    },
    {
      "inputs": [
        {
          "internalType": "uint256",
          "name": "id",
          "type": "uint256"
        }
      ],
      "name": "deleteProject",
      "outputs": [
        {
          "internalType": "bool",
          "name": "",
          "type": "bool"
        }
      ],
      "stateMutability": "nonpayable",
      "type": "function"
    },
    {
      "inputs": [
        {
          "internalType": "uint256",
          "name": "id",
          "type": "uint256"
        }
      ],
      "name": "getBackers",
      "outputs": [
        {
          "components": [
            {
              "internalType": "address",
              "name": "owner",
              "type": "address"
            },
            {
              "internalType": "uint256",
              "name": "contribution",
              "type": "uint256"
            },
            {
              "internalType": "uint256",
              "name": "timestamp",
              "type": "uint256"
            },
            {
              "internalType": "bool",
              "name": "refunded",
              "type": "bool"
            }
          ],
          "internalType": "struct Genesis.backerStruct[]",
          "name": "",
          "type": "tuple[]"
        }
      ],
      "stateMutability": "view",
      "type": "function"
    },
    {
      "inputs": [
        {
          "internalType": "uint256",
          "name": "id",
          "type": "uint256"
        }
      ],
      "name": "getProject",
      "outputs": [
        {
          "components": [
            {
              "internalType": "uint256",
              "name": "id",
              "type": "uint256"
            },
            {
              "internalType": "address",
              "name": "owner",
              "type": "address"
            },
            {
              "internalType": "string",
              "name": "title",
              "type": "string"
            },
            {
              "internalType": "string",
              "name": "description",
              "type": "string"
            },
            {
              "internalType": "string",
              "name": "imageURL",
              "type": "string"
            },
            {
              "internalType": "uint256",
              "name": "cost",
              "type": "uint256"
            },
            {
              "internalType": "uint256",
              "name": "raised",
              "type": "uint256"
            },
            {
              "internalType": "uint256",
              "name": "timestamp",
              "type": "uint256"
            },
            {
              "internalType": "uint256",
              "name": "expiresAt",
              "type": "uint256"
            },
            {
              "internalType": "uint256",
              "name": "backers",
              "type": "uint256"
            },
            {
              "internalType": "enum Genesis.statusEnum",
              "name": "status",
              "type": "uint8"
            }
          ],
          "internalType": "struct Genesis.projectStruct",
          "name": "",
          "type": "tuple"
        }
      ],
      "stateMutability": "view",
      "type": "function"
    },
    {
      "inputs": [],
      "name": "getProjects",
      "outputs": [
        {
          "components": [
            {
              "internalType": "uint256",
              "name": "id",
              "type": "uint256"
            },
            {
              "internalType": "address",
              "name": "owner",
              "type": "address"
            },
            {
              "internalType": "string",
              "name": "title",
              "type": "string"
            },
            {
              "internalType": "string",
              "name": "description",
              "type": "string"
            },
            {
              "internalType": "string",
              "name": "imageURL",
              "type": "string"
            },
            {
              "internalType": "uint256",
              "name": "cost",
              "type": "uint256"
            },
            {
              "internalType": "uint256",
              "name": "raised",
              "type": "uint256"
            },
            {
              "internalType": "uint256",
              "name": "timestamp",
              "type": "uint256"
            },
            {
              "internalType": "uint256",
              "name": "expiresAt",
              "type": "uint256"
            },
            {
              "internalType": "uint256",
              "name": "backers",
              "type": "uint256"
            },
            {
              "internalType": "enum Genesis.statusEnum",
              "name": "status",
              "type": "uint8"
            }
          ],
          "internalType": "struct Genesis.projectStruct[]",
          "name": "",
          "type": "tuple[]"
        }
      ],
      "stateMutability": "view",
      "type": "function"
    },
    {
      "inputs": [],
      "name": "owner",
      "outputs": [
        {
          "internalType": "address",
          "name": "",
          "type": "address"
        }
      ],
      "stateMutability": "view",
      "type": "function"
    },
    {
      "inputs": [
        {
          "internalType": "uint256",
          "name": "id",
          "type": "uint256"
        }
      ],
      "name": "payOutProject",
      "outputs": [
        {
          "internalType": "bool",
          "name": "",
          "type": "bool"
        }
      ],
      "stateMutability": "nonpayable",
      "type": "function"
    },
    {
      "inputs": [],
      "name": "projectCount",
      "outputs": [
        {
          "internalType": "uint256",
          "name": "",
          "type": "uint256"
        }
      ],
      "stateMutability": "view",
      "type": "function"
    },
    {
      "inputs": [
        {
          "internalType": "uint256",
          "name": "",
          "type": "uint256"
        }
      ],
      "name": "projectExist",
      "outputs": [
        {
          "internalType": "bool",
          "name": "",
          "type": "bool"
        }
      ],
      "stateMutability": "view",
      "type": "function"
    },
    {
      "inputs": [],
      "name": "projectTax",
      "outputs": [
        {
          "internalType": "uint256",
          "name": "",
          "type": "uint256"
        }
      ],
      "stateMutability": "view",
      "type": "function"
    },
    {
      "inputs": [
        {
          "internalType": "uint256",
          "name": "id",
          "type": "uint256"
        }
      ],
      "name": "requestRefund",
      "outputs": [
        {
          "internalType": "bool",
          "name": "",
          "type": "bool"
        }
      ],
      "stateMutability": "nonpayable",
      "type": "function"
    },
    {
      "inputs": [],
      "name": "stats",
      "outputs": [
        {
          "internalType": "uint256",
          "name": "totalProjects",
          "type": "uint256"
        },
        {
          "internalType": "uint256",
          "name": "totalBacking",
          "type": "uint256"
        },
        {
          "internalType": "uint256",
          "name": "totalDonations",
          "type": "uint256"
        }
      ],
      "stateMutability": "view",
      "type": "function"
    },
    {
      "inputs": [
        {
          "internalType": "uint256",
          "name": "id",
          "type": "uint256"
        },
        {
          "internalType": "string",
          "name": "title",
          "type": "string"
        },
        {
          "internalType": "string",
          "name": "description",
          "type": "string"
        },
        {
          "internalType": "string",
          "name": "imageURL",
          "type": "string"
        },
        {
          "internalType": "uint256",
          "name": "expiresAt",
          "type": "uint256"
        }
      ],
      "name": "updateProject",
      "outputs": [
        {
          "internalType": "bool",
          "name": "",
          "type": "bool"
        }
      ],
      "stateMutability": "nonpayable",
      "type": "function"
    }
  ],
  "bytecode": "0x608060405234801561001057600080fd5b506040516121f13803806121f183398101604081905261002f91610049565b600080546001600160a01b03191633179055600155610062565b60006020828403121561005b57600080fd5b5051919050565b612180806100716000396000f3fe6080604052600436106100f35760003560e01c8063a4b2409e1161008a578063d24cd3ec11610059578063d24cd3ec146102b1578063d80528ae146102c7578063dcc6012814610301578063f0f3f2c81461032357600080fd5b8063a4b2409e1461022e578063b531dcba1461024e578063b69ef8a81461026e578063c9168b721461028457600080fd5b80638593054b116100c65780638593054b146101935780638da5cb5b146101c35780639a3fa8c7146101fb5780639f39a1941461021b57600080fd5b8063056c29ee146100f857806336fbad261461012d5780633e45c8af146101515780634cd0cb2814610173575b600080fd5b34801561010457600080fd5b50610118610113366004611c89565b610350565b60405190151581526020015b60405180910390f35b34801561013957600080fd5b5061014360025481565b604051908152602001610124565b34801561015d57600080fd5b5061017161016c366004611d23565b6107b9565b005b34801561017f57600080fd5b5061011861018e366004611d23565b61080e565b34801561019f57600080fd5b506101186101ae366004611d23565b600a6020526000908152604090205460ff1681565b3480156101cf57600080fd5b506000546101e3906001600160a01b031681565b6040516001600160a01b039091168152602001610124565b34801561020757600080fd5b50610118610216366004611d3c565b61098a565b610118610229366004611d23565b610c01565b34801561023a57600080fd5b50610118610249366004611d23565b61100e565b34801561025a57600080fd5b50610118610269366004611d23565b611105565b34801561027a57600080fd5b5061014360035481565b34801561029057600080fd5b506102a461029f366004611d23565b611173565b6040516101249190611dd6565b3480156102bd57600080fd5b5061014360015481565b3480156102d357600080fd5b506004546005546006546102e692919083565b60408051938452602084019290925290820152606001610124565b34801561030d57600080fd5b50610316611215565b6040516101249190611f8f565b34801561032f57600080fd5b5061034361033e366004611d23565b6114b0565b6040516101249190611ff1565b60008086511161039f5760405162461bcd60e51b81526020600482015260156024820152745469746c652063616e6e6f7420626520656d70747960581b60448201526064015b60405180910390fd5b60008551116103f05760405162461bcd60e51b815260206004820152601b60248201527f4465736372697074696f6e2063616e6e6f7420626520656d70747900000000006044820152606401610396565b600084511161043c5760405162461bcd60e51b8152602060048201526018602482015277496d61676555524c2063616e6e6f7420626520656d70747960401b6044820152606401610396565b600083116104825760405162461bcd60e51b8152602060048201526013602482015272436f73742063616e6e6f74206265207a65726f60681b6044820152606401610396565b61048a611ada565b600254815233602080830191825260408301898152606084018990526080840188905260a084018790524260e085015261010084018690526007805460018101825560009190915284517fa66cc928b5edb82af9bd49922954155ab7b0942694bea4ce44661d9a8736c688600b90920291820190815593517fa66cc928b5edb82af9bd49922954155ab7b0942694bea4ce44661d9a8736c689820180546001600160a01b0319166001600160a01b0390921691909117905590518051859493610577937fa66cc928b5edb82af9bd49922954155ab7b0942694bea4ce44661d9a8736c68a01920190611b4d565b5060608201518051610593916003840191602090910190611b4d565b50608082015180516105af916004840191602090910190611b4d565b5060a0820151600582015560c0820151600682015560e0820151600782015561010082015160088201556101208201516009820155610140820151600a8201805460ff1916600183600481111561060857610608611e92565b021790555050600280546000908152600a602090815260408083208054600160ff1990911681179091553384526008835281842080548083018255908552938390208751600b909502019384558683015190840180546001600160a01b0319166001600160a01b039092169190911790558501518051869550929361069593908501929190910190611b4d565b50606082015180516106b1916003840191602090910190611b4d565b50608082015180516106cd916004840191602090910190611b4d565b5060a0820151600582015560c0820151600682015560e0820151600782015561010082015160088201556101208201516009820155610140820151600a8201805460ff1916600183600481111561072657610726611e92565b021790555050506001600460000160008282546107439190612021565b909155505060028054339160008051602061212b8339815191529190600061076a83612039565b9091555060408051918252606060208301819052600f908301526e141493d29150d50810d49150551151608a1b6080830152429082015260a00160405180910390a25060019695505050505050565b6000546001600160a01b031633146108095760405162461bcd60e51b81526020600482015260136024820152724f776e6572207265736572766564206f6e6c7960681b6044820152606401610396565b600155565b6000806007838154811061082457610824612054565b60009182526020909120600a600b90920201015460ff16600481111561084c5761084c611e92565b146108945760405162461bcd60e51b8152602060048201526018602482015277141c9bda9958dd081b9bc81b1bdb99d95c881bdc195b995960421b6044820152606401610396565b600782815481106108a7576108a7612054565b60009182526020909120600b90910201600101546001600160a01b031633146108e25760405162461bcd60e51b81526004016103969061206a565b6003600783815481106108f7576108f7612054565b60009182526020909120600a600b9092020101805460ff1916600183600481111561092457610924611e92565b021790555061093282611790565b60408051838152606060208201819052600f908201526e141493d29150d50811115311551151608a1b608082015242818301529051339160008051602061212b833981519152919081900360a00190a2506001919050565b60006007868154811061099f5761099f612054565b60009182526020909120600b90910201600101546001600160a01b031633146109da5760405162461bcd60e51b81526004016103969061206a565b6000855111610a235760405162461bcd60e51b81526020600482015260156024820152745469746c652063616e6e6f7420626520656d70747960581b6044820152606401610396565b6000845111610a745760405162461bcd60e51b815260206004820152601b60248201527f4465736372697074696f6e2063616e6e6f7420626520656d70747900000000006044820152606401610396565b6000835111610ac05760405162461bcd60e51b8152602060048201526018602482015277496d61676555524c2063616e6e6f7420626520656d70747960401b6044820152606401610396565b8460078781548110610ad457610ad4612054565b90600052602060002090600b02016002019080519060200190610af8929190611b4d565b508360078781548110610b0d57610b0d612054565b90600052602060002090600b02016003019080519060200190610b31929190611b4d565b508260078781548110610b4657610b46612054565b90600052602060002090600b02016004019080519060200190610b6a929190611b4d565b508160078781548110610b7f57610b7f612054565b90600052602060002090600b020160080181905550336001600160a01b031660008051602061212b8339815191528742604051610bed929190918252606060208301819052600f908301526e141493d29150d50815541110551151608a1b6080830152604082015260a00190565b60405180910390a250600195945050505050565b6000803411610c525760405162461bcd60e51b815260206004820152601f60248201527f4574686572206d7573742062652067726561746572207468616e207a65726f006044820152606401610396565b6000828152600a602052604090205460ff16610ca45760405162461bcd60e51b8152602060048201526011602482015270141c9bda9958dd081b9bdd08199bdd5b99607a1b6044820152606401610396565b600060078381548110610cb957610cb9612054565b60009182526020909120600a600b90920201015460ff166004811115610ce157610ce1611e92565b14610d295760405162461bcd60e51b8152602060048201526018602482015277141c9bda9958dd081b9bc81b1bdb99d95c881bdc195b995960421b6044820152606401610396565b600160046001016000828254610d3f9190612021565b909155505060068054349190600090610d59908490612021565b925050819055503460078381548110610d7457610d74612054565b90600052602060002090600b02016006016000828254610d949190612021565b92505081905550600160078381548110610db057610db0612054565b90600052602060002090600b02016009016000828254610dd09190612021565b9091555050600082815260096020908152604080832081516080808201845233808352348387019081524284870181815260608087018b8152885460018082018b55998d529b8b902097516004909c0290970180546001600160a01b0319166001600160a01b03909c169b909b178b559251968a01969096559451600289015592516003909701805460ff1916971515979097179096558351888152948501829052600e918501919091526d141493d29150d508109050d2d15160921b908401529082015260008051602061212b8339815191529060a00160405180910390a260078281548110610ec357610ec3612054565b90600052602060002090600b02016005015460078381548110610ee857610ee8612054565b90600052602060002090600b02016006015410610f9357600160078381548110610f1457610f14612054565b60009182526020909120600a600b9092020101805460ff19166001836004811115610f4157610f41611e92565b021790555060078281548110610f5957610f59612054565b90600052602060002090600b02016006015460036000828254610f7c9190612021565b90915550610f8b9050826118fe565b506001919050565b60078281548110610fa657610fa6612054565b90600052602060002090600b0201600801544210610f8b57600260078381548110610fd357610fd3612054565b60009182526020909120600a600b9092020101805460ff1916600183600481111561100057611000611e92565b0217905550610f8b82611790565b600060026007838154811061102557611025612054565b60009182526020909120600a600b90920201015460ff16600481111561104d5761104d611e92565b141580611095575060036007838154811061106a5761106a612054565b60009182526020909120600a600b90920201015460ff16600481111561109257611092611e92565b14155b6110f05760405162461bcd60e51b815260206004820152602660248201527f50726f6a656374206e6f74206d61726b656420617320726576657274206f722060448201526564656c65746560d01b6064820152608401610396565b600260078381548110610fd357610fd3612054565b60006007828154811061111a5761111a612054565b60009182526020909120600b90910201600101546001600160a01b031633148061114e57506000546001600160a01b031633145b61116a5760405162461bcd60e51b81526004016103969061206a565b610f8b826118fe565b606060096000838152602001908152602001600020805480602002602001604051908101604052809291908181526020016000905b8282101561120a576000848152602090819020604080516080810182526004860290920180546001600160a01b03168352600180820154848601526002820154928401929092526003015460ff161515606083015290835290920191016111a8565b505050509050919050565b60606007805480602002602001604051908101604052809291908181526020016000905b828210156114a75760008481526020908190206040805161016081018252600b86029092018054835260018101546001600160a01b0316938301939093526002830180549293929184019161128d90612097565b80601f01602080910402602001604051908101604052809291908181526020018280546112b990612097565b80156113065780601f106112db57610100808354040283529160200191611306565b820191906000526020600020905b8154815290600101906020018083116112e957829003601f168201915b5050505050815260200160038201805461131f90612097565b80601f016020809104026020016040519081016040528092919081815260200182805461134b90612097565b80156113985780601f1061136d57610100808354040283529160200191611398565b820191906000526020600020905b81548152906001019060200180831161137b57829003601f168201915b505050505081526020016004820180546113b190612097565b80601f01602080910402602001604051908101604052809291908181526020018280546113dd90612097565b801561142a5780601f106113ff5761010080835404028352916020019161142a565b820191906000526020600020905b81548152906001019060200180831161140d57829003601f168201915b505050918352505060058201546020820152600682015460408201526007820154606082015260088201546080820152600982015460a0820152600a82015460c09091019060ff16600481111561148357611483611e92565b600481111561149457611494611e92565b8152505081526020019060010190611239565b50505050905090565b6114b8611ada565b6000828152600a602052604090205460ff1661150a5760405162461bcd60e51b8152602060048201526011602482015270141c9bda9958dd081b9bdd08199bdd5b99607a1b6044820152606401610396565b6007828154811061151d5761151d612054565b90600052602060002090600b020160405180610160016040529081600082015481526020016001820160009054906101000a90046001600160a01b03166001600160a01b03166001600160a01b0316815260200160028201805461158090612097565b80601f01602080910402602001604051908101604052809291908181526020018280546115ac90612097565b80156115f95780601f106115ce576101008083540402835291602001916115f9565b820191906000526020600020905b8154815290600101906020018083116115dc57829003601f168201915b5050505050815260200160038201805461161290612097565b80601f016020809104026020016040519081016040528092919081815260200182805461163e90612097565b801561168b5780601f106116605761010080835404028352916020019161168b565b820191906000526020600020905b81548152906001019060200180831161166e57829003601f168201915b505050505081526020016004820180546116a490612097565b80601f01602080910402602001604051908101604052809291908181526020018280546116d090612097565b801561171d5780601f106116f25761010080835404028352916020019161171d565b820191906000526020600020905b81548152906001019060200180831161170057829003601f168201915b505050918352505060058201546020820152600682015460408201526007820154606082015260088201546080820152600982015460a0820152600a82015460c09091019060ff16600481111561177657611776611e92565b600481111561178757611787611e92565b90525092915050565b60005b6000828152600960205260409020548110156118fa5760008281526009602052604081208054839081106117c9576117c9612054565b6000918252602080832060049092029091015485835260099091526040822080546001600160a01b039092169350908490811061180857611808612054565b9060005260206000209060040201600101549050600160096000868152602001908152602001600020848154811061184257611842612054565b906000526020600020906004020160030160006101000a81548160ff0219169083151502179055504260096000868152602001908152602001600020848154811061188f5761188f612054565b9060005260206000209060040201600201819055506118ae8282611a75565b6001600460010160008282546118c491906120d2565b9091555050600680548291906000906118de9084906120d2565b92505081905550505080806118f290612039565b915050611793565b5050565b60006007828154811061191357611913612054565b90600052602060002090600b0201600601549050600060646001548361193991906120e9565b6119439190612108565b905060046007848154811061195a5761195a612054565b60009182526020909120600a600b9092020101805460ff1916600183600481111561198757611987611e92565b02179055506119ce600784815481106119a2576119a2612054565b600091825260209091206001600b9092020101546001600160a01b03166119c983856120d2565b611a75565b6000546119e4906001600160a01b031682611a75565b600783815481106119f7576119f7612054565b90600052602060002090600b02016006015460036000828254611a1a91906120d2565b9091555050604080518481526060602082018190526010908201526f141493d29150d508141052510813d55560821b608082015242818301529051339160008051602061212b833981519152919081900360a00190a2505050565b6000826001600160a01b03168260405160006040518083038185875af1925050503d8060008114611ac2576040519150601f19603f3d011682016040523d82523d6000602084013e611ac7565b606091505b5050905080611ad557600080fd5b505050565b6040518061016001604052806000815260200160006001600160a01b03168152602001606081526020016060815260200160608152602001600081526020016000815260200160008152602001600081526020016000815260200160006004811115611b4857611b48611e92565b905290565b828054611b5990612097565b90600052602060002090601f016020900481019282611b7b5760008555611bc1565b82601f10611b9457805160ff1916838001178555611bc1565b82800160010185558215611bc1579182015b82811115611bc1578251825591602001919060010190611ba6565b50611bcd929150611bd1565b5090565b5b80821115611bcd5760008155600101611bd2565b634e487b7160e01b600052604160045260246000fd5b600082601f830112611c0d57600080fd5b813567ffffffffffffffff80821115611c2857611c28611be6565b604051601f8301601f19908116603f01168101908282118183101715611c5057611c50611be6565b81604052838152866020858801011115611c6957600080fd5b836020870160208301376000602085830101528094505050505092915050565b600080600080600060a08688031215611ca157600080fd5b853567ffffffffffffffff80821115611cb957600080fd5b611cc589838a01611bfc565b96506020880135915080821115611cdb57600080fd5b611ce789838a01611bfc565b95506040880135915080821115611cfd57600080fd5b50611d0a88828901611bfc565b9598949750949560608101359550608001359392505050565b600060208284031215611d3557600080fd5b5035919050565b600080600080600060a08688031215611d5457600080fd5b85359450602086013567ffffffffffffffff80821115611d7357600080fd5b611d7f89838a01611bfc565b95506040880135915080821115611d9557600080fd5b611da189838a01611bfc565b94506060880135915080821115611db757600080fd5b50611dc488828901611bfc565b95989497509295608001359392505050565b602080825282518282018190526000919060409081850190868401855b82811015611e3857815180516001600160a01b031685528681015187860152858101518686015260609081015115159085015260809093019290850190600101611df3565b5091979650505050505050565b6000815180845260005b81811015611e6b57602081850181015186830182015201611e4f565b81811115611e7d576000602083870101525b50601f01601f19169290920160200192915050565b634e487b7160e01b600052602160045260246000fd5b60058110611ec657634e487b7160e01b600052602160045260246000fd5b9052565b6000610160825184526020830151611eed60208601826001600160a01b03169052565b506040830151816040860152611f0582860182611e45565b91505060608301518482036060860152611f1f8282611e45565b91505060808301518482036080860152611f398282611e45565b91505060a083015160a085015260c083015160c085015260e083015160e085015261010080840151818601525061012080840151818601525061014080840151611f8582870182611ea8565b5090949350505050565b6000602080830181845280855180835260408601915060408160051b870101925083870160005b82811015611fe457603f19888603018452611fd2858351611eca565b94509285019290850190600101611fb6565b5092979650505050505050565b6020815260006120046020830184611eca565b9392505050565b634e487b7160e01b600052601160045260246000fd5b600082198211156120345761203461200b565b500190565b600060001982141561204d5761204d61200b565b5060010190565b634e487b7160e01b600052603260045260246000fd5b602080825260139082015272556e617574686f72697a656420456e7469747960681b604082015260600190565b600181811c908216806120ab57607f821691505b602082108114156120cc57634e487b7160e01b600052602260045260246000fd5b50919050565b6000828210156120e4576120e461200b565b500390565b60008160001904831182151516156121035761210361200b565b500290565b60008261212557634e487b7160e01b600052601260045260246000fd5b50049056feaee8e5d3bbb2f71a951b5632cee20f7ac487b9f8ab4f66a236f7694b13af7c6aa26469706673582212202f649e8ea7cbd01ca49349d0dd7538bdbc45326c7e5ec84cd074f75d439a568364736f6c634300080b0033",
  "linkReferences": {},
  "deployedLinkReferences": {}
}